{
  "address": "0x954D38e998c4306af2Ea184da309b84452F15f22",
  "abi": [
    {
      "anonymous": false,
      "inputs": [
        {
          "indexed": true,
          "internalType": "bytes6",
          "name": "assetId",
          "type": "bytes6"
        },
        {
          "indexed": true,
          "internalType": "address",
          "name": "asset",
          "type": "address"
        }
      ],
      "name": "AssetAdded",
      "type": "event"
    },
    {
      "anonymous": false,
      "inputs": [
        {
          "indexed": true,
          "internalType": "bytes6",
          "name": "baseId",
          "type": "bytes6"
        },
        {
          "indexed": true,
          "internalType": "bytes6",
          "name": "ilkId",
          "type": "bytes6"
        },
        {
          "indexed": false,
          "internalType": "uint96",
          "name": "max",
          "type": "uint96"
        },
        {
          "indexed": false,
          "internalType": "uint24",
          "name": "min",
          "type": "uint24"
        },
        {
          "indexed": false,
          "internalType": "uint8",
          "name": "dec",
          "type": "uint8"
        }
      ],
      "name": "DebtLimitsSet",
      "type": "event"
    },
    {
      "anonymous": false,
      "inputs": [
        {
          "indexed": true,
          "internalType": "bytes6",
          "name": "seriesId",
          "type": "bytes6"
        },
        {
          "indexed": true,
          "internalType": "bytes6",
          "name": "ilkId",
          "type": "bytes6"
        }
      ],
      "name": "IlkAdded",
      "type": "event"
    },
    {
      "anonymous": false,
      "inputs": [
        {
          "indexed": true,
          "internalType": "bytes6",
          "name": "baseId",
          "type": "bytes6"
        },
        {
          "indexed": true,
          "internalType": "address",
          "name": "oracle",
          "type": "address"
        }
      ],
      "name": "RateOracleAdded",
      "type": "event"
    },
    {
      "anonymous": false,
      "inputs": [
        {
          "indexed": true,
          "internalType": "bytes4",
          "name": "role",
          "type": "bytes4"
        },
        {
          "indexed": true,
          "internalType": "bytes4",
          "name": "newAdminRole",
          "type": "bytes4"
        }
      ],
      "name": "RoleAdminChanged",
      "type": "event"
    },
    {
      "anonymous": false,
      "inputs": [
        {
          "indexed": true,
          "internalType": "bytes4",
          "name": "role",
          "type": "bytes4"
        },
        {
          "indexed": true,
          "internalType": "address",
          "name": "account",
          "type": "address"
        },
        {
          "indexed": true,
          "internalType": "address",
          "name": "sender",
          "type": "address"
        }
      ],
      "name": "RoleGranted",
      "type": "event"
    },
    {
      "anonymous": false,
      "inputs": [
        {
          "indexed": true,
          "internalType": "bytes4",
          "name": "role",
          "type": "bytes4"
        },
        {
          "indexed": true,
          "internalType": "address",
          "name": "account",
          "type": "address"
        },
        {
          "indexed": true,
          "internalType": "address",
          "name": "sender",
          "type": "address"
        }
      ],
      "name": "RoleRevoked",
      "type": "event"
    },
    {
      "anonymous": false,
      "inputs": [
        {
          "indexed": true,
          "internalType": "bytes6",
          "name": "seriesId",
          "type": "bytes6"
        },
        {
          "indexed": true,
          "internalType": "bytes6",
          "name": "baseId",
          "type": "bytes6"
        },
        {
          "indexed": true,
          "internalType": "address",
          "name": "fyToken",
          "type": "address"
        }
      ],
      "name": "SeriesAdded",
      "type": "event"
    },
    {
      "anonymous": false,
      "inputs": [
        {
          "indexed": true,
          "internalType": "bytes6",
          "name": "seriesId",
          "type": "bytes6"
        },
        {
          "indexed": false,
          "internalType": "uint256",
          "name": "rateAtMaturity",
          "type": "uint256"
        }
      ],
      "name": "SeriesMatured",
      "type": "event"
    },
    {
      "anonymous": false,
      "inputs": [
        {
          "indexed": true,
          "internalType": "bytes6",
          "name": "baseId",
          "type": "bytes6"
        },
        {
          "indexed": true,
          "internalType": "bytes6",
          "name": "ilkId",
          "type": "bytes6"
        },
        {
          "indexed": true,
          "internalType": "address",
          "name": "oracle",
          "type": "address"
        },
        {
          "indexed": false,
          "internalType": "uint32",
          "name": "ratio",
          "type": "uint32"
        }
      ],
      "name": "SpotOracleAdded",
      "type": "event"
    },
    {
      "anonymous": false,
      "inputs": [
        {
          "indexed": true,
          "internalType": "bytes12",
          "name": "vaultId",
          "type": "bytes12"
        },
        {
          "indexed": true,
          "internalType": "address",
          "name": "owner",
          "type": "address"
        },
        {
          "indexed": true,
          "internalType": "bytes6",
          "name": "seriesId",
          "type": "bytes6"
        },
        {
          "indexed": false,
          "internalType": "bytes6",
          "name": "ilkId",
          "type": "bytes6"
        }
      ],
      "name": "VaultBuilt",
      "type": "event"
    },
    {
      "anonymous": false,
      "inputs": [
        {
          "indexed": true,
          "internalType": "bytes12",
          "name": "vaultId",
          "type": "bytes12"
        }
      ],
      "name": "VaultDestroyed",
      "type": "event"
    },
    {
      "anonymous": false,
      "inputs": [
        {
          "indexed": true,
          "internalType": "bytes12",
          "name": "vaultId",
          "type": "bytes12"
        },
        {
          "indexed": true,
          "internalType": "address",
          "name": "receiver",
          "type": "address"
        }
      ],
      "name": "VaultGiven",
      "type": "event"
    },
    {
      "anonymous": false,
      "inputs": [
        {
          "indexed": true,
          "internalType": "bytes12",
          "name": "vaultId",
          "type": "bytes12"
        },
        {
          "indexed": true,
          "internalType": "bytes6",
          "name": "seriesId",
          "type": "bytes6"
        },
        {
          "indexed": true,
          "internalType": "bytes6",
          "name": "ilkId",
          "type": "bytes6"
        },
        {
          "indexed": false,
          "internalType": "int128",
          "name": "ink",
          "type": "int128"
        },
        {
          "indexed": false,
          "internalType": "int128",
          "name": "art",
          "type": "int128"
        }
      ],
      "name": "VaultPoured",
      "type": "event"
    },
    {
      "anonymous": false,
      "inputs": [
        {
          "indexed": true,
          "internalType": "bytes12",
          "name": "vaultId",
          "type": "bytes12"
        },
        {
          "indexed": true,
          "internalType": "bytes6",
          "name": "seriesId",
          "type": "bytes6"
        },
        {
          "indexed": false,
          "internalType": "uint128",
          "name": "art",
          "type": "uint128"
        }
      ],
      "name": "VaultRolled",
      "type": "event"
    },
    {
      "anonymous": false,
      "inputs": [
        {
          "indexed": true,
          "internalType": "bytes12",
          "name": "from",
          "type": "bytes12"
        },
        {
          "indexed": true,
          "internalType": "bytes12",
          "name": "to",
          "type": "bytes12"
        },
        {
          "indexed": false,
          "internalType": "uint128",
          "name": "ink",
          "type": "uint128"
        },
        {
          "indexed": false,
          "internalType": "uint128",
          "name": "art",
          "type": "uint128"
        }
      ],
      "name": "VaultStirred",
      "type": "event"
    },
    {
      "anonymous": false,
      "inputs": [
        {
          "indexed": true,
          "internalType": "bytes12",
          "name": "vaultId",
          "type": "bytes12"
        },
        {
          "indexed": true,
          "internalType": "bytes6",
          "name": "seriesId",
          "type": "bytes6"
        },
        {
          "indexed": true,
          "internalType": "bytes6",
          "name": "ilkId",
          "type": "bytes6"
        }
      ],
      "name": "VaultTweaked",
      "type": "event"
    },
    {
      "inputs": [],
      "name": "LOCK",
      "outputs": [
        {
          "internalType": "bytes4",
          "name": "",
          "type": "bytes4"
        }
      ],
      "stateMutability": "view",
      "type": "function"
    },
    {
      "inputs": [],
      "name": "LOCK8605463013",
      "outputs": [
        {
          "internalType": "bytes4",
          "name": "",
          "type": "bytes4"
        }
      ],
      "stateMutability": "view",
      "type": "function"
    },
    {
      "inputs": [],
      "name": "ROOT",
      "outputs": [
        {
          "internalType": "bytes4",
          "name": "",
          "type": "bytes4"
        }
      ],
      "stateMutability": "view",
      "type": "function"
    },
    {
      "inputs": [],
      "name": "ROOT4146650865",
      "outputs": [
        {
          "internalType": "bytes4",
          "name": "",
          "type": "bytes4"
        }
      ],
      "stateMutability": "view",
      "type": "function"
    },
    {
      "inputs": [
        {
          "internalType": "bytes6",
          "name": "seriesId",
          "type": "bytes6"
        }
      ],
      "name": "accrual",
      "outputs": [
        {
          "internalType": "uint256",
          "name": "",
          "type": "uint256"
        }
      ],
      "stateMutability": "nonpayable",
      "type": "function"
    },
    {
      "inputs": [
        {
          "internalType": "bytes6",
          "name": "assetId",
          "type": "bytes6"
        },
        {
          "internalType": "address",
          "name": "asset",
          "type": "address"
        }
      ],
      "name": "addAsset",
      "outputs": [],
      "stateMutability": "nonpayable",
      "type": "function"
    },
    {
      "inputs": [
        {
          "internalType": "bytes6",
          "name": "seriesId",
          "type": "bytes6"
        },
        {
          "internalType": "bytes6[]",
          "name": "ilkIds",
          "type": "bytes6[]"
        }
      ],
      "name": "addIlks",
      "outputs": [],
      "stateMutability": "nonpayable",
      "type": "function"
    },
    {
      "inputs": [
        {
          "internalType": "bytes6",
          "name": "seriesId",
          "type": "bytes6"
        },
        {
          "internalType": "bytes6",
          "name": "baseId",
          "type": "bytes6"
        },
        {
          "internalType": "contract IFYToken",
          "name": "fyToken",
          "type": "address"
        }
      ],
      "name": "addSeries",
      "outputs": [],
      "stateMutability": "nonpayable",
      "type": "function"
    },
    {
      "inputs": [
        {
          "internalType": "bytes6",
          "name": "",
          "type": "bytes6"
        }
      ],
      "name": "assets",
      "outputs": [
        {
          "internalType": "address",
          "name": "",
          "type": "address"
        }
      ],
      "stateMutability": "view",
      "type": "function"
    },
    {
      "inputs": [
        {
          "internalType": "bytes12",
          "name": "",
          "type": "bytes12"
        }
      ],
      "name": "balances",
      "outputs": [
        {
          "internalType": "uint128",
          "name": "art",
          "type": "uint128"
        },
        {
          "internalType": "uint128",
          "name": "ink",
          "type": "uint128"
        }
      ],
      "stateMutability": "view",
      "type": "function"
    },
    {
      "inputs": [
        {
          "internalType": "address",
          "name": "owner",
          "type": "address"
        },
        {
          "internalType": "bytes12",
          "name": "vaultId",
          "type": "bytes12"
        },
        {
          "internalType": "bytes6",
          "name": "seriesId",
          "type": "bytes6"
        },
        {
          "internalType": "bytes6",
          "name": "ilkId",
          "type": "bytes6"
        }
      ],
      "name": "build",
      "outputs": [
        {
          "components": [
            {
              "internalType": "address",
              "name": "owner",
              "type": "address"
            },
            {
              "internalType": "bytes6",
              "name": "seriesId",
              "type": "bytes6"
            },
            {
              "internalType": "bytes6",
              "name": "ilkId",
              "type": "bytes6"
            }
          ],
          "internalType": "struct DataTypes.Vault",
          "name": "vault",
          "type": "tuple"
        }
      ],
      "stateMutability": "nonpayable",
      "type": "function"
    },
    {
      "inputs": [
        {
          "internalType": "bytes6",
          "name": "",
          "type": "bytes6"
        },
        {
          "internalType": "bytes6",
          "name": "",
          "type": "bytes6"
        }
      ],
      "name": "debt",
      "outputs": [
        {
          "internalType": "uint96",
          "name": "max",
          "type": "uint96"
        },
        {
          "internalType": "uint24",
          "name": "min",
          "type": "uint24"
        },
        {
          "internalType": "uint8",
          "name": "dec",
          "type": "uint8"
        },
        {
          "internalType": "uint128",
          "name": "sum",
          "type": "uint128"
        }
      ],
      "stateMutability": "view",
      "type": "function"
    },
    {
      "inputs": [
        {
          "internalType": "bytes6",
          "name": "seriesId",
          "type": "bytes6"
        },
        {
          "internalType": "uint128",
          "name": "base",
          "type": "uint128"
        }
      ],
      "name": "debtFromBase",
      "outputs": [
        {
          "internalType": "uint128",
          "name": "art",
          "type": "uint128"
        }
      ],
      "stateMutability": "nonpayable",
      "type": "function"
    },
    {
      "inputs": [
        {
          "internalType": "bytes6",
          "name": "seriesId",
          "type": "bytes6"
        },
        {
          "internalType": "uint128",
          "name": "art",
          "type": "uint128"
        }
      ],
      "name": "debtToBase",
      "outputs": [
        {
          "internalType": "uint128",
          "name": "base",
          "type": "uint128"
        }
      ],
      "stateMutability": "nonpayable",
      "type": "function"
    },
    {
      "inputs": [
        {
          "internalType": "bytes12",
          "name": "vaultId",
          "type": "bytes12"
        }
      ],
      "name": "destroy",
      "outputs": [],
      "stateMutability": "nonpayable",
      "type": "function"
    },
    {
      "inputs": [
        {
          "internalType": "bytes4",
          "name": "role",
          "type": "bytes4"
        }
      ],
      "name": "getRoleAdmin",
      "outputs": [
        {
          "internalType": "bytes4",
          "name": "",
          "type": "bytes4"
        }
      ],
      "stateMutability": "view",
      "type": "function"
    },
    {
      "inputs": [
        {
          "internalType": "bytes12",
          "name": "vaultId",
          "type": "bytes12"
        },
        {
          "internalType": "address",
          "name": "receiver",
          "type": "address"
        }
      ],
      "name": "give",
      "outputs": [
        {
          "components": [
            {
              "internalType": "address",
              "name": "owner",
              "type": "address"
            },
            {
              "internalType": "bytes6",
              "name": "seriesId",
              "type": "bytes6"
            },
            {
              "internalType": "bytes6",
              "name": "ilkId",
              "type": "bytes6"
            }
          ],
          "internalType": "struct DataTypes.Vault",
          "name": "vault",
          "type": "tuple"
        }
      ],
      "stateMutability": "nonpayable",
      "type": "function"
    },
    {
      "inputs": [
        {
          "internalType": "bytes4",
          "name": "role",
          "type": "bytes4"
        },
        {
          "internalType": "address",
          "name": "account",
          "type": "address"
        }
      ],
      "name": "grantRole",
      "outputs": [],
      "stateMutability": "nonpayable",
      "type": "function"
    },
    {
      "inputs": [
        {
          "internalType": "bytes4[]",
          "name": "roles",
          "type": "bytes4[]"
        },
        {
          "internalType": "address",
          "name": "account",
          "type": "address"
        }
      ],
      "name": "grantRoles",
      "outputs": [],
      "stateMutability": "nonpayable",
      "type": "function"
    },
    {
      "inputs": [
        {
          "internalType": "bytes4",
          "name": "role",
          "type": "bytes4"
        },
        {
          "internalType": "address",
          "name": "account",
          "type": "address"
        }
      ],
      "name": "hasRole",
      "outputs": [
        {
          "internalType": "bool",
          "name": "",
          "type": "bool"
        }
      ],
      "stateMutability": "view",
      "type": "function"
    },
    {
      "inputs": [
        {
          "internalType": "bytes6",
          "name": "",
          "type": "bytes6"
        },
        {
          "internalType": "bytes6",
          "name": "",
          "type": "bytes6"
        }
      ],
      "name": "ilks",
      "outputs": [
        {
          "internalType": "bool",
          "name": "",
          "type": "bool"
        }
      ],
      "stateMutability": "view",
      "type": "function"
    },
    {
      "inputs": [
        {
          "internalType": "bytes6",
          "name": "",
          "type": "bytes6"
        }
      ],
      "name": "lendingOracles",
      "outputs": [
        {
          "internalType": "contract IOracle",
          "name": "",
          "type": "address"
        }
      ],
      "stateMutability": "view",
      "type": "function"
    },
    {
      "inputs": [
        {
          "internalType": "bytes12",
          "name": "vaultId",
          "type": "bytes12"
        }
      ],
      "name": "level",
      "outputs": [
        {
          "internalType": "int256",
          "name": "",
          "type": "int256"
        }
      ],
      "stateMutability": "nonpayable",
      "type": "function"
    },
    {
      "inputs": [
        {
          "internalType": "bytes4",
          "name": "role",
          "type": "bytes4"
        }
      ],
      "name": "lockRole",
      "outputs": [],
      "stateMutability": "nonpayable",
      "type": "function"
    },
    {
      "inputs": [
        {
          "internalType": "bytes6",
          "name": "seriesId",
          "type": "bytes6"
        }
      ],
      "name": "mature",
      "outputs": [],
      "stateMutability": "nonpayable",
      "type": "function"
    },
    {
      "inputs": [
        {
          "internalType": "bytes12",
          "name": "vaultId",
          "type": "bytes12"
        },
        {
          "internalType": "int128",
          "name": "ink",
          "type": "int128"
        },
        {
          "internalType": "int128",
          "name": "art",
          "type": "int128"
        }
      ],
      "name": "pour",
      "outputs": [
        {
          "components": [
            {
              "internalType": "uint128",
              "name": "art",
              "type": "uint128"
            },
            {
              "internalType": "uint128",
              "name": "ink",
              "type": "uint128"
            }
          ],
          "internalType": "struct DataTypes.Balances",
          "name": "",
          "type": "tuple"
        }
      ],
      "stateMutability": "nonpayable",
      "type": "function"
    },
    {
      "inputs": [
        {
          "internalType": "bytes6",
          "name": "",
          "type": "bytes6"
        }
      ],
      "name": "ratesAtMaturity",
      "outputs": [
        {
          "internalType": "uint256",
          "name": "",
          "type": "uint256"
        }
      ],
      "stateMutability": "view",
      "type": "function"
    },
    {
      "inputs": [
        {
          "internalType": "bytes4",
          "name": "role",
          "type": "bytes4"
        },
        {
          "internalType": "address",
          "name": "account",
          "type": "address"
        }
      ],
      "name": "renounceRole",
      "outputs": [],
      "stateMutability": "nonpayable",
      "type": "function"
    },
    {
      "inputs": [
        {
          "internalType": "bytes4",
          "name": "role",
          "type": "bytes4"
        },
        {
          "internalType": "address",
          "name": "account",
          "type": "address"
        }
      ],
      "name": "revokeRole",
      "outputs": [],
      "stateMutability": "nonpayable",
      "type": "function"
    },
    {
      "inputs": [
        {
          "internalType": "bytes4[]",
          "name": "roles",
          "type": "bytes4[]"
        },
        {
          "internalType": "address",
          "name": "account",
          "type": "address"
        }
      ],
      "name": "revokeRoles",
      "outputs": [],
      "stateMutability": "nonpayable",
      "type": "function"
    },
    {
      "inputs": [
        {
          "internalType": "bytes12",
          "name": "vaultId",
          "type": "bytes12"
        },
        {
          "internalType": "bytes6",
          "name": "newSeriesId",
          "type": "bytes6"
        },
        {
          "internalType": "int128",
          "name": "art",
          "type": "int128"
        }
      ],
      "name": "roll",
      "outputs": [
        {
          "components": [
            {
              "internalType": "address",
              "name": "owner",
              "type": "address"
            },
            {
              "internalType": "bytes6",
              "name": "seriesId",
              "type": "bytes6"
            },
            {
              "internalType": "bytes6",
              "name": "ilkId",
              "type": "bytes6"
            }
          ],
          "internalType": "struct DataTypes.Vault",
          "name": "",
          "type": "tuple"
        },
        {
          "components": [
            {
              "internalType": "uint128",
              "name": "art",
              "type": "uint128"
            },
            {
              "internalType": "uint128",
              "name": "ink",
              "type": "uint128"
            }
          ],
          "internalType": "struct DataTypes.Balances",
          "name": "",
          "type": "tuple"
        }
      ],
      "stateMutability": "nonpayable",
      "type": "function"
    },
    {
      "inputs": [
        {
          "internalType": "bytes6",
          "name": "",
          "type": "bytes6"
        }
      ],
      "name": "series",
      "outputs": [
        {
          "internalType": "contract IFYToken",
          "name": "fyToken",
          "type": "address"
        },
        {
          "internalType": "bytes6",
          "name": "baseId",
          "type": "bytes6"
        },
        {
          "internalType": "uint32",
          "name": "maturity",
          "type": "uint32"
        }
      ],
      "stateMutability": "view",
      "type": "function"
    },
    {
      "inputs": [
        {
          "internalType": "bytes6",
          "name": "baseId",
          "type": "bytes6"
        },
        {
          "internalType": "bytes6",
          "name": "ilkId",
          "type": "bytes6"
        },
        {
          "internalType": "uint96",
          "name": "max",
          "type": "uint96"
        },
        {
          "internalType": "uint24",
          "name": "min",
          "type": "uint24"
        },
        {
          "internalType": "uint8",
          "name": "dec",
          "type": "uint8"
        }
      ],
      "name": "setDebtLimits",
      "outputs": [],
      "stateMutability": "nonpayable",
      "type": "function"
    },
    {
      "inputs": [
        {
          "internalType": "bytes6",
          "name": "baseId",
          "type": "bytes6"
        },
        {
          "internalType": "contract IOracle",
          "name": "oracle",
          "type": "address"
        }
      ],
      "name": "setLendingOracle",
      "outputs": [],
      "stateMutability": "nonpayable",
      "type": "function"
    },
    {
      "inputs": [
        {
          "internalType": "bytes4",
          "name": "role",
          "type": "bytes4"
        },
        {
          "internalType": "bytes4",
          "name": "adminRole",
          "type": "bytes4"
        }
      ],
      "name": "setRoleAdmin",
      "outputs": [],
      "stateMutability": "nonpayable",
      "type": "function"
    },
    {
      "inputs": [
        {
          "internalType": "bytes6",
          "name": "baseId",
          "type": "bytes6"
        },
        {
          "internalType": "bytes6",
          "name": "ilkId",
          "type": "bytes6"
        },
        {
          "internalType": "contract IOracle",
          "name": "oracle",
          "type": "address"
        },
        {
          "internalType": "uint32",
          "name": "ratio",
          "type": "uint32"
        }
      ],
      "name": "setSpotOracle",
      "outputs": [],
      "stateMutability": "nonpayable",
      "type": "function"
    },
    {
      "inputs": [
        {
          "internalType": "bytes12",
          "name": "vaultId",
          "type": "bytes12"
        },
        {
          "internalType": "uint128",
          "name": "ink",
          "type": "uint128"
        },
        {
          "internalType": "uint128",
          "name": "art",
          "type": "uint128"
        }
      ],
      "name": "slurp",
      "outputs": [
        {
          "components": [
            {
              "internalType": "uint128",
              "name": "art",
              "type": "uint128"
            },
            {
              "internalType": "uint128",
              "name": "ink",
              "type": "uint128"
            }
          ],
          "internalType": "struct DataTypes.Balances",
          "name": "",
          "type": "tuple"
        }
      ],
      "stateMutability": "nonpayable",
      "type": "function"
    },
    {
      "inputs": [
        {
          "internalType": "bytes6",
          "name": "",
          "type": "bytes6"
        },
        {
          "internalType": "bytes6",
          "name": "",
          "type": "bytes6"
        }
      ],
      "name": "spotOracles",
      "outputs": [
        {
          "internalType": "contract IOracle",
          "name": "oracle",
          "type": "address"
        },
        {
          "internalType": "uint32",
          "name": "ratio",
          "type": "uint32"
        }
      ],
      "stateMutability": "view",
      "type": "function"
    },
    {
      "inputs": [
        {
          "internalType": "bytes12",
          "name": "from",
          "type": "bytes12"
        },
        {
          "internalType": "bytes12",
          "name": "to",
          "type": "bytes12"
        },
        {
          "internalType": "uint128",
          "name": "ink",
          "type": "uint128"
        },
        {
          "internalType": "uint128",
          "name": "art",
          "type": "uint128"
        }
      ],
      "name": "stir",
      "outputs": [
        {
          "components": [
            {
              "internalType": "uint128",
              "name": "art",
              "type": "uint128"
            },
            {
              "internalType": "uint128",
              "name": "ink",
              "type": "uint128"
            }
          ],
          "internalType": "struct DataTypes.Balances",
          "name": "",
          "type": "tuple"
        },
        {
          "components": [
            {
              "internalType": "uint128",
              "name": "art",
              "type": "uint128"
            },
            {
              "internalType": "uint128",
              "name": "ink",
              "type": "uint128"
            }
          ],
          "internalType": "struct DataTypes.Balances",
          "name": "",
          "type": "tuple"
        }
      ],
      "stateMutability": "nonpayable",
      "type": "function"
    },
    {
      "inputs": [
        {
          "internalType": "bytes12",
          "name": "vaultId",
          "type": "bytes12"
        },
        {
          "internalType": "bytes6",
          "name": "seriesId",
          "type": "bytes6"
        },
        {
          "internalType": "bytes6",
          "name": "ilkId",
          "type": "bytes6"
        }
      ],
      "name": "tweak",
      "outputs": [
        {
          "components": [
            {
              "internalType": "address",
              "name": "owner",
              "type": "address"
            },
            {
              "internalType": "bytes6",
              "name": "seriesId",
              "type": "bytes6"
            },
            {
              "internalType": "bytes6",
              "name": "ilkId",
              "type": "bytes6"
            }
          ],
          "internalType": "struct DataTypes.Vault",
          "name": "vault",
          "type": "tuple"
        }
      ],
      "stateMutability": "nonpayable",
      "type": "function"
    },
    {
      "inputs": [
        {
          "internalType": "bytes12",
          "name": "",
          "type": "bytes12"
        }
      ],
      "name": "vaults",
      "outputs": [
        {
          "internalType": "address",
          "name": "owner",
          "type": "address"
        },
        {
          "internalType": "bytes6",
          "name": "seriesId",
          "type": "bytes6"
        },
        {
          "internalType": "bytes6",
          "name": "ilkId",
          "type": "bytes6"
        }
      ],
      "stateMutability": "view",
      "type": "function"
    }
  ],
  "transactionHash": "0xd3a8e167c83a7193da6a945fc42903353b8261c4642a534164ea6c29b07c7eae",
  "args": [],
  "solcInputHash": "33ce1b88dd6eab84b0d7ae38c48ff578",
  "bytecode": "0x60806040526243484960e81b600155635241544560e01b6002556003805465ffffffffffff1916653030000000001790553480156200003d57600080fd5b506200004b60003362000065565b6200005f6001600160e01b031980620000fd565b6200019b565b6001600160e01b031982166000908152602081815260408083206001600160a01b038516845290915290205460ff16620000f9576001600160e01b031982166000818152602081815260408083206001600160a01b0386168085529252808320805460ff1916600117905551339391927fe6231789d19137da31d0550f4ba9ee379020a8cfb64cb79bf1790c996d2e616591a45b5050565b6001600160e01b031981166200012f836001600160e01b03191660009081526020819052604090206001015460e01b90565b6001600160e01b03191614620000f9576001600160e01b0319828116600081815260208190526040808220600101805463ffffffff191660e087901c17905551928416927fd348e2220a50b4500ec353f6e802d2f14dd1b5d6786148fd1bbcc570bf92d4739190a35050565b61428780620001ab6000396000f3fe608060405234801561001057600080fd5b50600436106101de5760003560e01c80156101e357806310ab94321461020957806319be8d121461022c5780631e81f8291461026d5780632458028a146102de578063272c0a6e146102ff5780632b7b312f1461031f5780632fcdab661461033f578063415d8ad81461036d57806343d8f0bb1461039b57806344faded01461040257806353eecb7714610417578063550b02531461042a57806355727d481461044a578063559742d91461045d57806355d03e34146104705780635909c12f146101e35780635ba5e9f0146104e75780636295afac146104fa578063687f0e4c1461051b5780637229280c1461052e578063782006b614610570578063798a828b146105835780638e8a5a29146105965780638ef6bdfa146105a957806396dcdf26146105bc57806397389c3a146105cf5780639be24c4d146105e25780639dd6c00e1461067f578063a4f0d7d014610692578063ad82110f146106a1578063ae8ad492146106b4578063ae93c1b5146106c7578063b2bb4cc7146106da578063b9af392014610703578063d3fc152b14610716578063de02cde714610729578063e665f9e41461073c578063effae3531461074f578063f413577114610762578063ffffffff14610692575b600080fd5b6101eb600081565b6040516001600160e01b031990911681526020015b60405180910390f35b61021c61021736600461396b565b610775565b6040519015158152602001610200565b61025561023a3660046139ba565b6004602052600090815260409020546001600160a01b031681565b6040516001600160a01b039091168152602001610200565b6102ae61027b3660046137d2565b600b602052600090815260409020546001600160a01b03811690600160a01b810460d090811b91600160d01b9004901b83565b604080516001600160a01b0390941684526001600160d01b03199283166020850152911690820152606001610200565b6102f16102ec366004613824565b61078a565b604051610200929190613ea5565b61031261030d36600461369f565b610bf2565b6040516102009190613ec0565b61033261032d366004613916565b610e25565b6040516102009190613e97565b61035f61034d3660046139ba565b600a6020526000908152604090205481565b604051908152602001610200565b61021c61037b366004613a76565b600660209081526000928352604080842090915290825290205460ff1681565b6103de6103a9366004613a76565b60086020908152600092835260408084209091529082529020546001600160a01b03811690600160a01b900463ffffffff1682565b604080516001600160a01b03909316835263ffffffff909116602083015201610200565b61041561041036600461396b565b610ec4565b005b6104156104253660046139f1565b610f02565b61043d610438366004613bcf565b611172565b6040516102009190613ee9565b6104156104583660046139d5565b611231565b61041561046b366004613950565b611304565b6104b361047e3660046139ba565b6005602052600090815260409020546001600160a01b03811690600160a01b810460d01b90600160d01b900463ffffffff1683565b604080516001600160a01b0390941684526001600160d01b0319909216602084015263ffffffff1690820152606001610200565b6101eb6104f5366004613950565b611343565b61050d6105083660046138b0565b61134e565b604051610200929190613ece565b61041561052936600461396b565b611534565b61056261053c3660046137d2565b600c602052600090815260409020546001600160801b0380821691600160801b90041682565b604051610200929190613efd565b61041561057e3660046137d2565b61158f565b6103126105913660046137ed565b6116ed565b6104156105a43660046139ba565b611731565b6104156105b7366004613ae7565b6117ee565b6104156105ca366004613aa0565b61194a565b61035f6105dd3660046139ba565b611cee565b6106406105f0366004613a76565b60096020908152600092835260408084209091529082529020546001600160601b03811690600160601b810462ffffff1690600160781b810460ff1690600160801b90046001600160801b031684565b604080516001600160601b03909516855262ffffff909316602085015260ff909116918301919091526001600160801b03166060820152608001610200565b61043d61068d366004613bcf565b611d55565b6101eb6001600160e01b031981565b6104156106af3660046136f5565b611e01565b6103326106c23660046138ea565b611e83565b6104156106d5366004613987565b611f47565b6102556106e83660046139ba565b6007602052600090815260409020546001600160a01b031681565b61031261071136600461386d565b611f7a565b610415610724366004613b48565b611fc7565b61041561073736600461396b565b612323565b61041561074a3660046139d5565b612356565b61041561075d3660046136f5565b612474565b61035f6107703660046137d2565b6124e9565b60006107818383612514565b90505b92915050565b6107926135ca565b61079a6135ca565b6107b06000356001600160e01b03191633612514565b6107d55760405162461bcd60e51b81526004016107cc90613e20565b60405180910390fd5b6001600160a01b031986811690861614156108255760405162461bcd60e51b815260206004820152601060248201526f4964656e746963616c207661756c747360801b60448201526064016107cc565b600080610833886000612549565b9250509150600080610846896000612549565b92505091506000886001600160801b031611156108fe5781604001516001600160d01b03191684604001516001600160d01b031916146108bf5760405162461bcd60e51b8152602060048201526014602482015273111a5999995c995b9d0818dbdb1b185d195c985b60621b60448201526064016107cc565b87836020018181516108d1919061418c565b6001600160801b03169052506020810180518991906108f1908390613f68565b6001600160801b03169052505b6001600160801b038716156109a75781602001516001600160d01b03191684602001516001600160d01b0319161461096b5760405162461bcd60e51b815260206004820152601060248201526f446966666572656e742073657269657360801b60448201526064016107cc565b868360000181815161097d919061418c565b6001600160801b031690525080518790829061099a908390613f68565b6001600160801b03169052505b6001600160a01b03198a81166000908152600c602090815260408083208751888401516001600160801b03918216600160801b918316820217909255948e1684529220845191850151918416918416909202179055881615610abe576020848101516001600160d01b03199081166000908152600583526040808220815160608101835290546001600160a01b0381168252600160a01b810460d01b90941694810194909452600160d01b90920463ffffffff169183019190915290610a7090869086906126c9565b1215610abe5760405162461bcd60e51b815260206004820152601d60248201527f556e646572636f6c6c61746572616c697a6564206174206f726967696e00000060448201526064016107cc565b6001600160801b03871615610b93576020828101516001600160d01b03199081166000908152600583526040808220815160608101835290546001600160a01b0381168252600160a01b810460d01b90941694810194909452600160d01b90920463ffffffff169183019190915290610b3a90849084906126c9565b1215610b935760405162461bcd60e51b815260206004820152602260248201527f556e646572636f6c6c61746572616c697a65642061742064657374696e61746960448201526137b760f11b60648201526084016107cc565b886001600160a01b0319168a6001600160a01b0319167f4052ad584a8928874474834de8b1a8e81183844340a6355af0577eeaa70f38a38a8a604051610bda929190613efd565b60405180910390a39199919850909650505050505050565b610bfa6135e1565b610c106000356001600160e01b03191633612514565b610c2c5760405162461bcd60e51b81526004016107cc90613e20565b6001600160a01b03198416610c535760405162461bcd60e51b81526004016107cc90613df6565b6001600160d01b03198316610c7a5760405162461bcd60e51b81526004016107cc90613cf0565b6001600160d01b03198216610ca15760405162461bcd60e51b81526004016107cc90613d1b565b6001600160a01b031984166000908152600b6020526040902054600160a01b900460d01b6001600160d01b03191615610d135760405162461bcd60e51b81526020600482015260146024820152735661756c7420616c72656164792065786973747360601b60448201526064016107cc565b6001600160d01b031980841660009081526006602090815260408083209386168352929052205460ff161515600114610d5e5760405162461bcd60e51b81526004016107cc90613d9d565b50604080516060810182526001600160a01b038681168083526001600160d01b031986811660208086018281528884168789018181526001600160a01b03198d166000818152600b86528b90208a5181549551935160d090811c600160d01b0294901c600160a01b02959098169790991696909617929092176001600160d01b03169190911790955595519384529394919290917f9ac97fd6af059aea8b5fdcb128adb5bcbe11a206b94f81bf9025234e945a0403910160405180910390a4949350505050565b610e2d6135ca565b610e436000356001600160e01b03191633612514565b610e5f5760405162461bcd60e51b81526004016107cc90613e20565b6000806000610e6f876001612549565b925092509250610eb787848385610e8e8b6001600160801b031661288c565b610e97906141cf565b610ea98b6001600160801b031661288c565b610eb2906141cf565b6128c2565b93505050505b9392505050565b81610ed7610ed182612c2b565b33612514565b610ef35760405162461bcd60e51b81526004016107cc90613ccc565b610efd8383612c4d565b505050565b610f186000356001600160e01b03191633612514565b610f345760405162461bcd60e51b81526004016107cc90613e20565b6001600160d01b0319838116600090815260056020908152604091829020825160608101845290546001600160a01b038116808352600160a01b820460d01b90951692820192909252600160d01b90910463ffffffff169181019190915290610fd25760405162461bcd60e51b815260206004820152601060248201526f14d95c9a595cc81b9bdd08199bdd5b9960821b60448201526064016107cc565b60005b8281101561116b576020808301516001600160d01b03191660009081526008909152604081208186868581811061100e5761100e61420d565b905060200201602081019061102391906139ba565b6001600160d01b03191681526020810191909152604001600020546001600160a01b0316141561108d5760405162461bcd60e51b815260206004820152601560248201527414dc1bdd081bdc9858db19481b9bdd08199bdd5b99605a1b60448201526064016107cc565b6001600160d01b0319851660009081526006602052604081206001918686858181106110bb576110bb61420d565b90506020020160208101906110d091906139ba565b6001600160d01b03191681526020810191909152604001600020805460ff191691151591909117905583838281811061110b5761110b61420d565b905060200201602081019061112091906139ba565b6040516001600160d01b0319918216918716907fe73e300d12c78fcde3773c25ce875cdfb586b6e0819fe5de30f7e04978b70ece90600090a380611163816141b4565b915050610fd5565b5050505050565b6001600160d01b0319821660009081526005602052604081205463ffffffff600160d01b9091048116429091161061122b576001600160d01b0319838116600090815260056020908152604091829020825160608101845290546001600160a01b0381168252600160a01b810460d01b90941691810191909152600160d01b90920463ffffffff169082015261122361121e61120e8684612cbc565b6001600160801b03861690612dca565b612de8565b915050610784565b50919050565b6112476000356001600160e01b03191633612514565b6112635760405162461bcd60e51b81526004016107cc90613e20565b6001600160d01b031982166000908152600460205260409020546001600160a01b03166112a25760405162461bcd60e51b81526004016107cc90613dce565b6001600160d01b0319821660008181526007602052604080822080546001600160a01b0319166001600160a01b03861690811790915590519092917f337df85bae5e2a246f3b25d1ba2fe329f515b78930e2bd493047d03e1e88810891a35050565b80611311610ed182612c2b565b61132d5760405162461bcd60e51b81526004016107cc90613ccc565b61133f826001600160e01b0319612e11565b5050565b600061078482612c2b565b6113566135e1565b61135e6135ca565b6113746000356001600160e01b03191633612514565b6113905760405162461bcd60e51b81526004016107cc90613e20565b60008060006113a0886001612549565b6001600160d01b03198a8116600090815260056020908152604091829020825160608101845290546001600160a01b0381168252600160a01b810460d01b8516828401819052600160d01b90910463ffffffff1693820193909352908501519598509396509194509192909116146114575760405162461bcd60e51b815260206004820152601a6024820152794d69736d61746368656420626173657320696e2073657269657360301b60448201526064016107cc565b600061146f83600001516001600160801b031661288c565b90506114838a8685876000610eb2876141cf565b92506114948a8a8760400151612e90565b506114a88a8685856000610eb28e88613f17565b925060006114b78685856126c9565b12156114d55760405162461bcd60e51b81526004016107cc90613d70565b82516040516001600160d01b03198b16916001600160a01b03198d16917f254fe27feb43b700f61a77b23dca122c3560e8bde44e9febbdf360fccf694f469161151d91613ee9565b60405180910390a350929890975095505050505050565b6001600160a01b03811633146115855760405162461bcd60e51b81526020600482015260166024820152752932b737bab731b29037b7363c903337b91039b2b63360511b60448201526064016107cc565b61133f8282612c4d565b6115a56000356001600160e01b03191633612514565b6115c15760405162461bcd60e51b81526004016107cc90613e20565b6001600160a01b031981166000908152600b6020526040902054600160a01b900460d01b6001600160d01b03191661160b5760405162461bcd60e51b81526004016107cc90613d43565b6001600160a01b031981166000908152600c60209081526040918290208251808401909352546001600160801b03808216808552600160801b9092041691830191909152158015611667575060208101516001600160801b0316155b6116a75760405162461bcd60e51b81526020600482015260116024820152704f6e6c7920656d707479207661756c747360781b60448201526064016107cc565b6001600160a01b031982166000818152600b6020526040808220829055517f43c96573c873c6deebf730628cdb0895f1aa1dc2d0b5df22ab48b8f72efcae5b9190a25050565b6116f56135e1565b61170b6000356001600160e01b03191633612514565b6117275760405162461bcd60e51b81526004016107cc90613e20565b6107818383613182565b6001600160d01b031981166000908152600a60205260409020541561178a5760405162461bcd60e51b815260206004820152600f60248201526e105b1c9958591e481b585d1d5c9959608a1b60448201526064016107cc565b6001600160d01b0319818116600090815260056020908152604091829020825160608101845290546001600160a01b0381168252600160a01b810460d01b90941691810191909152600160d01b90920463ffffffff169082015261133f82826132c2565b6118046000356001600160e01b03191633612514565b6118205760405162461bcd60e51b81526004016107cc90613e20565b6001600160d01b031984166000908152600460205260409020546001600160a01b031661185f5760405162461bcd60e51b81526004016107cc90613dce565b6001600160d01b031983166000908152600460205260409020546001600160a01b031661189e5760405162461bcd60e51b81526004016107cc90613e47565b6040805180820182526001600160a01b0384811680835263ffffffff85811660208086018281526001600160d01b03198c81166000818152600885528a8120928e168082529285528a9020985189549351909616600160a01b026001600160c01b03199093169590971694909417179095559451948552909390927f70a18247cef14fc637945535d1f9936b698a9883a4b428149d6a688c76ac29c2910160405180910390a450505050565b6119606000356001600160e01b03191633612514565b61197c5760405162461bcd60e51b81526004016107cc90613e20565b6001600160d01b031983166119a35760405162461bcd60e51b81526004016107cc90613cf0565b6001600160d01b031982166000908152600460205260409020546001600160a01b0316806119e35760405162461bcd60e51b81526004016107cc90613dce565b6001600160a01b038216611a315760405162461bcd60e51b815260206004820152601560248201527429b2b934b2b9903732b2b2103090333caa37b5b2b760591b60448201526064016107cc565b806001600160a01b0316826001600160a01b0316636f307dc36040518163ffffffff1660e01b815260040160206040518083038186803b158015611a7457600080fd5b505afa158015611a88573d6000803e3d6000fd5b505050506040513d601f19601f82011682018060405250810190611aac9190613682565b6001600160a01b031614611aff5760405162461bcd60e51b815260206004820152601a6024820152794d69736d6174636865642073657269657320616e64206261736560301b60448201526064016107cc565b6001600160d01b031983166000908152600760205260409020546001600160a01b0316611b665760405162461bcd60e51b815260206004820152601560248201527414985d19481bdc9858db19481b9bdd08199bdd5b99605a1b60448201526064016107cc565b6001600160d01b031984166000908152600560205260409020546001600160a01b031615611ba65760405162461bcd60e51b81526004016107cc90613e6e565b6040518060600160405280836001600160a01b03168152602001846001600160d01b0319168152602001611c49846001600160a01b031663204f83f96040518163ffffffff1660e01b815260040160206040518083038186803b158015611c0c57600080fd5b505afa158015611c20573d6000803e3d6000fd5b505050506040513d601f19601f82011682018060405250810190611c449190613bf9565b613422565b63ffffffff9081169091526001600160d01b03198087166000818152600560209081526040808320875181549389015198830151909716600160d01b0263ffffffff60d01b1960d09990991c600160a01b029387166001600160a01b03988916179390931797909716919091179095559351928616939187169290917f3ac47a984492c15bd7e6cec70afd5be94205b77f48840a80e6d04d8241d3d2ef91a450505050565b6001600160d01b03198181166000908152600560209081526040808320815160608101835290546001600160a01b0381168252600160a01b810460d01b90951692810192909252600160d01b90930463ffffffff169281019290925290610ebd8382612cbc565b6001600160d01b0319821660009081526005602052604081205463ffffffff600160d01b9091048116429091161061122b576001600160d01b0319838116600090815260056020908152604091829020825160608101845290546001600160a01b0381168252600160a01b810460d01b90941691810191909152600160d01b90920463ffffffff169082015261122361121e611df18684612cbc565b6001600160801b03861690613448565b60005b8251811015610efd57611e32610ed1848381518110611e2557611e2561420d565b6020026020010151612c2b565b611e4e5760405162461bcd60e51b81526004016107cc90613ccc565b611e71838281518110611e6357611e6361420d565b602002602001015183612c4d565b80611e7b816141b4565b915050611e04565b611e8b6135ca565b611ea16000356001600160e01b03191633612514565b611ebd5760405162461bcd60e51b81526004016107cc90613e20565b6000806000611ecd876001612549565b925092509250611ee1878483858a8a6128c2565b80519091506001600160801b031615801590611f0d5750600086600f0b1280611f0d5750600085600f0b135b15611f3d576000611f1f8483856126c9565b1215611f3d5760405162461bcd60e51b81526004016107cc90613d70565b9695505050505050565b81611f54610ed182612c2b565b611f705760405162461bcd60e51b81526004016107cc90613ccc565b610efd8383612e11565b611f826135e1565b611f986000356001600160e01b03191633612514565b611fb45760405162461bcd60e51b81526004016107cc90613e20565b611fbf848484612e90565b949350505050565b611fdd6000356001600160e01b03191633612514565b611ff95760405162461bcd60e51b81526004016107cc90613e20565b6001600160d01b031985166000908152600460205260409020546001600160a01b03166120385760405162461bcd60e51b81526004016107cc90613dce565b6001600160d01b031984166000908152600460205260409020546001600160a01b03166120775760405162461bcd60e51b81526004016107cc90613e47565b600060096000876001600160d01b0319166001600160d01b03191681526020019081526020016000206000866001600160d01b0319166001600160d01b03191681526020019081526020016000206040518060800160405290816000820160009054906101000a90046001600160601b03166001600160601b03166001600160601b0316815260200160008201600c9054906101000a900462ffffff1662ffffff1662ffffff16815260200160008201600f9054906101000a900460ff1660ff1660ff1681526020016000820160109054906101000a90046001600160801b03166001600160801b03166001600160801b03168152505090508381600001906001600160601b031690816001600160601b03168152505082816020019062ffffff16908162ffffff168152505081816040019060ff16908160ff16815250508060096000886001600160d01b0319166001600160d01b03191681526020019081526020016000206000876001600160d01b0319166001600160d01b031916815260200190815260200160002060008201518160000160006101000a8154816001600160601b0302191690836001600160601b03160217905550602082015181600001600c6101000a81548162ffffff021916908362ffffff160217905550604082015181600001600f6101000a81548160ff021916908360ff16021790555060608201518160000160106101000a8154816001600160801b0302191690836001600160801b03160217905550905050846001600160d01b031916866001600160d01b0319167ff3f3d166661542eb96775860683c6adcfaf7e5b0ebd577416f87da9b85680416868686604051612313939291906001600160601b0393909316835262ffffff91909116602083015260ff16604082015260600190565b60405180910390a3505050505050565b81612330610ed182612c2b565b61234c5760405162461bcd60e51b81526004016107cc90613ccc565b610efd8383613477565b61236c6000356001600160e01b03191633612514565b6123885760405162461bcd60e51b81526004016107cc90613e20565b6001600160d01b031982166123d25760405162461bcd60e51b815260206004820152601060248201526f4173736574206964206973207a65726f60801b60448201526064016107cc565b6001600160d01b031982166000908152600460205260409020546001600160a01b0316156124125760405162461bcd60e51b81526004016107cc90613e6e565b6001600160d01b0319821660008181526004602052604080822080546001600160a01b0319166001600160a01b03861690811790915590519092917fdef753622c22e6bb00c169370aa67bce8f8cb336118980f0b0986ee349c0523491a35050565b60005b8251811015610efd57612498610ed1848381518110611e2557611e2561420d565b6124b45760405162461bcd60e51b81526004016107cc90613ccc565b6124d78382815181106124c9576124c961420d565b602002602001015183613477565b806124e1816141b4565b915050612477565b6000806000806124fa856001612549565b92509250925061250b8382846126c9565b95945050505050565b6001600160e01b031982166000908152602081815260408083206001600160a01b038516845290915290205460ff1692915050565b6125516135e1565b60408051606081018252600080825260208201819052918101919091526125766135ca565b6001600160a01b031985166000908152600b6020908152604091829020825160608101845290546001600160a01b03811682526001600160d01b0319600160a01b820460d090811b8216948401859052600160d01b90920490911b169281019290925290935061261a5760405162461bcd60e51b815260206004820152600f60248201526e15985d5b1d081b9bdd08199bdd5b99608a1b60448201526064016107cc565b8315612680576020838101516001600160d01b0319908116600090815260058352604090819020815160608101835290546001600160a01b0381168252600160a01b810460d01b90931693810193909352600160d01b90910463ffffffff169082015291505b506001600160a01b03199093166000908152600c60209081526040918290208251808401909352546001600160801b038082168452600160801b90910416908201529093909150565b6020818101516001600160d01b031990811660009081526008835260408082208782015190931682529183528181208251808401909352546001600160a01b0381168352600160a01b900463ffffffff169282018390529182906127329064e8d4a5100061412e565b8251604080890151602080890151908a015192516308c5f34560e31b81526001600160d01b03199283166004820152911660248201526001600160801b0390911660448201529192506000916001600160a01b039091169063462f9a28906064016040805180830381600087803b1580156127ac57600080fd5b505af11580156127c0573d6000803e3d6000fd5b505050506040513d601f19601f820116820180604052508101906127e49190613c12565b509050846040015163ffffffff164263ffffffff161061286057600061280e886020015187612cbc565b905061284261283d84612837848b600001516001600160801b0316612dca90919063ffffffff16565b90612dca565b6134e8565b61284b836134e8565b612855919061414d565b945050505050610ebd565b85516128799061283d906001600160801b031684612dca565b612882826134e8565b610eb7919061414d565b600060016001607f1b036001600160801b03831611156128be5760405162461bcd60e51b81526004016107cc90613ca5565b5090565b6128ca6135ca565b82600f0b6000146128fc5760208501516128ed906001600160801b031684613511565b6001600160801b031660208601525b81600f0b600014612b84576020848101516001600160d01b031990811660009081526009835260408082208a8201519093168252918352819020815160808101835290546001600160601b0381168252600160601b810462ffffff1693820193909352600160781b830460ff1691810191909152600160801b9091046001600160801b0390811660608301528651612995911684613511565b6001600160801b03908116875260608201516129b2911684613511565b6001600160801b0316606082015260408101516000906129d390600a614016565b826020015162ffffff166129e791906140ff565b905060008260400151600a6129fc9190614016565b8351612a1191906001600160601b03166140ff565b88519091506001600160801b03161580612a38575087516001600160801b03808416911610155b612a7b5760405162461bcd60e51b8152602060048201526014602482015273135a5b881919589d081b9bdd081c995858da195960621b60448201526064016107cc565b600085600f0b1315612ae157806001600160801b031683606001516001600160801b03161115612ae15760405162461bcd60e51b815260206004820152601160248201527013585e081919589d08195e18d959591959607a1b60448201526064016107cc565b50506020808601516001600160d01b031990811660009081526009835260408082208b82015190931682529183528190208351815493850151928501516060909501516001600160801b03908116600160801b0260ff909616600160781b02166001600160781b0362ffffff909416600160601b026001600160781b03199095166001600160601b03909216919091179390931791909116919091179190911790555b6001600160a01b031987166000818152600c60209081526040918290208851828a01516001600160801b03908116600160801b029116179055888201519089015191516001600160d01b0319918216939290911691907ff1f8a6d2ee1a0289fb7bf5683937eccec7f9315bce044a93f68a3d850ef13e9290612c189088908890600f92830b8152910b602082015260400190565b60405180910390a4509295945050505050565b6001600160e01b03191660009081526020819052604090206001015460e01b90565b612c578282612514565b1561133f576001600160e01b031982166000818152602081815260408083206001600160a01b0386168085529252808320805460ff1916905551339391927f4ddc7b757e7bdd7254a9cd39452d307a52761bc824625c6a33104a075d8099e691a45050565b6001600160d01b031982166000908152600a602052604081205480612cea57612ce584846132c2565b612da5565b602080840180516001600160d01b03191660009081526007909252604080832054915160025491516308c5f34560e31b81526001600160a01b039093169392849263462f9a2892612d42929091908690600401613c83565b6040805180830381600087803b158015612d5b57600080fd5b505af1158015612d6f573d6000803e3d6000fd5b505050506040513d601f19601f82011682018060405250810190612d939190613c12565b509050612da081846135ab565b935050505b670de0b6b3a7640000821015612dc357670de0b6b3a7640000611fbf565b5092915050565b6000612dd6828461412e565b670de0b6b3a764000090049392505050565b60006001600160801b038211156128be5760405162461bcd60e51b81526004016107cc90613ca5565b6001600160e01b03198116612e2583612c2b565b6001600160e01b0319161461133f576001600160e01b0319828116600081815260208190526040808220600101805463ffffffff191660e087901c17905551928416927fd348e2220a50b4500ec353f6e802d2f14dd1b5d6786148fd1bbcc570bf92d4739190a35050565b612e986135e1565b6001600160d01b03198316612ebf5760405162461bcd60e51b81526004016107cc90613cf0565b6001600160d01b03198216612ee65760405162461bcd60e51b81526004016107cc90613d1b565b6001600160d01b031980841660009081526006602090815260408083209386168352929052205460ff161515600114612f315760405162461bcd60e51b81526004016107cc90613d9d565b506001600160a01b031983166000908152600b6020908152604091829020825160608101845290546001600160a01b03811682526001600160d01b0319600160a01b820460d090811b8216948401859052600160d01b90920490911b1692810192909252612fb15760405162461bcd60e51b81526004016107cc90613d43565b6001600160a01b031984166000908152600c60209081526040918290208251808401909352546001600160801b038082168452600160801b90910416828201528201516001600160d01b03198581169116146130645780516001600160801b0316156130535760405162461bcd60e51b815260206004820152601160248201527013db9b1e481dda5d1a081b9bc81919589d607a1b60448201526064016107cc565b6001600160d01b0319841660208301525b60408201516001600160d01b03198481169116146130e25760208101516001600160801b0316156130d15760405162461bcd60e51b815260206004820152601760248201527613db9b1e481dda5d1a081b9bc818dbdb1b185d195c985b604a1b60448201526064016107cc565b6001600160d01b0319831660408301525b6001600160a01b031985166000818152600b602090815260408083208651815493880151888401516001600160a01b039092166001600160d01b031995861617600160a01b60d083811c91909102919091176001600160d01b0316600160d01b9184901c91909102179092559151918316949216927f5fb3a302df4981a8198a313e55d498f09bb49d40170fcd3600dbb82a67ef4bcd91a4509392505050565b61318a6135e1565b6001600160a01b031983166131b15760405162461bcd60e51b81526004016107cc90613df6565b6001600160a01b031983166000908152600b6020526040902054600160a01b900460d01b6001600160d01b0319166131fb5760405162461bcd60e51b81526004016107cc90613d43565b506001600160a01b031982166000818152600b60208181526040808420815160608101835281546001600160d01b0319600160a01b80830460d090811b8316858901908152600160d01b808604831b8516878a019081526001600160a01b038f8116808a528f8f529c909b52875192519051841c909102921c90920292909316961695909517949094176001600160d01b031693909317905551909391927f12d0ad6ae14e565fab3ac8b7fff11605af9042db1cb20da586af813a0b47bf2691a392915050565b806040015163ffffffff164263ffffffff1610156133185760405162461bcd60e51b81526020600482015260136024820152724f6e6c79206166746572206d6174757269747960681b60448201526064016107cc565b602080820180516001600160d01b03191660009081526007909252604080832054915160025491516308c5f34560e31b81526001600160a01b039093169392849263462f9a2892613370929091908690600401613c83565b6040805180830381600087803b15801561338957600080fd5b505af115801561339d573d6000803e3d6000fd5b505050506040513d601f19601f820116820180604052508101906133c19190613c12565b506001600160d01b031985166000818152600a60205260409081902083905551919250907f3c895c7573bc141d22a0b69609686bd311d12b90b83b1bfeedfb941a9ba1ac53906134149084815260200190565b60405180910390a250505050565b600063ffffffff8211156128be5760405162461bcd60e51b81526004016107cc90613ca5565b60008161345d84670de0b6b3a764000061412e565b6134679190613f93565b6000190190506107818282613fab565b6134818282612514565b61133f576001600160e01b031982166000818152602081815260408083206001600160a01b0386168085529252808320805460ff1916600117905551339391927fe6231789d19137da31d0550f4ba9ee379020a8cfb64cb79bf1790c996d2e616591a45050565b60006001600160ff1b038211156128be5760405162461bcd60e51b81526004016107cc90613ca5565b60008082600f0b138061353e5750613528826141cf565b6001600160801b0316836001600160801b031610155b61357e5760405162461bcd60e51b8152602060048201526011602482015270526573756c742062656c6f77207a65726f60781b60448201526064016107cc565b600082600f0b136135a157613592826141cf565b61359c908461418c565b610781565b6107818284613f68565b6000816135c084670de0b6b3a764000061412e565b6107819190613fab565b604080518082019091526000808252602082015290565b604080516060810182526000808252602082018190529181019190915290565b803561360c81614239565b919050565b80356001600160a01b03198116811461360c57600080fd5b80356001600160e01b03198116811461360c57600080fd5b80356001600160d01b03198116811461360c57600080fd5b8035600f81900b811461360c57600080fd5b80356001600160801b038116811461360c57600080fd5b60006020828403121561369457600080fd5b8151610ebd81614239565b600080600080608085870312156136b557600080fd5b84356136c081614239565b93506136ce60208601613611565b92506136dc60408601613641565b91506136ea60608601613641565b905092959194509250565b6000806040838503121561370857600080fd5b82356001600160401b038082111561371f57600080fd5b818501915085601f83011261373357600080fd5b813560208282111561374757613747614223565b8160051b604051601f19603f8301168101818110868211171561376c5761376c614223565b604052838152828101945085830182870184018b101561378b57600080fd5b600096505b848710156137b5576137a181613629565b865260019690960195948301948301613790565b5096506137c59050878201613601565b9450505050509250929050565b6000602082840312156137e457600080fd5b61078182613611565b6000806040838503121561380057600080fd5b61380983613611565b9150602083013561381981614239565b809150509250929050565b6000806000806080858703121561383a57600080fd5b61384385613611565b935061385160208601613611565b925061385f6040860161366b565b91506136ea6060860161366b565b60008060006060848603121561388257600080fd5b61388b84613611565b925061389960208501613641565b91506138a760408501613641565b90509250925092565b6000806000606084860312156138c557600080fd5b6138ce84613611565b92506138dc60208501613641565b91506138a760408501613659565b6000806000606084860312156138ff57600080fd5b61390884613611565b92506138dc60208501613659565b60008060006060848603121561392b57600080fd5b61393484613611565b92506139426020850161366b565b91506138a76040850161366b565b60006020828403121561396257600080fd5b61078182613629565b6000806040838503121561397e57600080fd5b61380983613629565b6000806040838503121561399a57600080fd5b6139a383613629565b91506139b160208401613629565b90509250929050565b6000602082840312156139cc57600080fd5b61078182613641565b600080604083850312156139e857600080fd5b61380983613641565b600080600060408486031215613a0657600080fd5b613a0f84613641565b925060208401356001600160401b0380821115613a2b57600080fd5b818601915086601f830112613a3f57600080fd5b813581811115613a4e57600080fd5b8760208260051b8501011115613a6357600080fd5b6020830194508093505050509250925092565b60008060408385031215613a8957600080fd5b613a9283613641565b91506139b160208401613641565b600080600060608486031215613ab557600080fd5b613abe84613641565b9250613acc60208501613641565b91506040840135613adc81614239565b809150509250925092565b60008060008060808587031215613afd57600080fd5b613b0685613641565b9350613b1460208601613641565b92506040850135613b2481614239565b9150606085013563ffffffff81168114613b3d57600080fd5b939692955090935050565b600080600080600060a08688031215613b6057600080fd5b613b6986613641565b9450613b7760208701613641565b935060408601356001600160601b0381168114613b9357600080fd5b9250606086013562ffffff81168114613bab57600080fd5b9150608086013560ff81168114613bc157600080fd5b809150509295509295909350565b60008060408385031215613be257600080fd5b613beb83613641565b91506139b16020840161366b565b600060208284031215613c0b57600080fd5b5051919050565b60008060408385031215613c2557600080fd5b505080516020909101519092909150565b80516001600160801b03908116835260209182015116910152565b80516001600160a01b031682526020808201516001600160d01b03199081169184019190915260409182015116910152565b6001600160d01b03199390931683526020830191909152604082015260600190565b6020808252600d908201526c43617374206f766572666c6f7760981b604082015260600190565b6020808252600a908201526927b7363c9030b236b4b760b11b604082015260600190565b602080825260119082015270536572696573206964206973207a65726f60781b604082015260600190565b6020808252600e908201526d496c6b206964206973207a65726f60901b604082015260600190565b60208082526013908201527215985d5b1d08191bd95cdb89dd08195e1a5cdd606a1b604082015260600190565b602080825260139082015272155b99195c98dbdb1b185d195c985b1a5e9959606a1b604082015260600190565b602080825260179082015276496c6b206e6f7420616464656420746f2073657269657360481b604082015260600190565b6020808252600e908201526d10985cd9481b9bdd08199bdd5b9960921b604082015260600190565b60208082526010908201526f5661756c74206964206973207a65726f60801b604082015260600190565b6020808252600d908201526c1058d8d95cdcc819195b9a5959609a1b604082015260600190565b6020808252600d908201526c125b1ac81b9bdd08199bdd5b99609a1b604082015260600190565b6020808252600f908201526e125908185b1c9958591e481d5cd959608a1b604082015260600190565b604081016107848284613c36565b60808101613eb38285613c36565b610ebd6040830184613c36565b606081016107848284613c51565b60a08101613edc8285613c51565b610ebd6060830184613c36565b6001600160801b0391909116815260200190565b6001600160801b0392831681529116602082015260400190565b6000600f82810b9084900b828212801560016001607f1b0384900383131615613f4257613f426141f7565b60016001607f1b03198390038212811615613f5f57613f5f6141f7565b50019392505050565b60006001600160801b03828116848216808303821115613f8a57613f8a6141f7565b01949350505050565b60008219821115613fa657613fa66141f7565b500190565b600082613fc857634e487b7160e01b600052601260045260246000fd5b500490565b600181815b8085111561400e576001600160801b03829004821115613ff457613ff46141f7565b8085161561400157918102915b93841c9390800290613fd2565b509250929050565b600061078160ff84166001600160801b03841660008261403857506001610784565b8161404557506000610784565b816001811461405b576002811461406557614099565b6001915050610784565b60ff841115614076576140766141f7565b6001841b91506001600160801b03821115614093576140936141f7565b50610784565b5060208310610133831016604e8410600b84101617156140d3575081810a6001600160801b038111156140ce576140ce6141f7565b610784565b6140dd8383613fcd565b6001600160801b038190048211156140f7576140f76141f7565b029392505050565b60006001600160801b0382811684821681151582840482111615614125576141256141f7565b02949350505050565b6000816000190483118215151615614148576141486141f7565b500290565b60008083128015600160ff1b85018412161561416b5761416b6141f7565b6001600160ff1b0384018313811615614186576141866141f7565b50500390565b60006001600160801b03838116908316818110156141ac576141ac6141f7565b039392505050565b60006000198214156141c8576141c86141f7565b5060010190565b6000600f82900b60016001607f1b03198114156141ee576141ee6141f7565b60000392915050565b634e487b7160e01b600052601160045260246000fd5b634e487b7160e01b600052603260045260246000fd5b634e487b7160e01b600052604160045260246000fd5b6001600160a01b038116811461424e57600080fd5b5056fea2646970667358221220fe807ce5333b86b97983cf5506b2bc5191500e25a0c7f780df98869cc8613d0964736f6c63430008060033",
  "devdoc": {
    "kind": "dev",
    "methods": {
      "accrual(bytes6)": {
        "details": "Retrieve the rate accrual since maturity, maturing if necessary."
      },
      "addAsset(bytes6,address)": {
        "details": "Add a new Asset."
      },
      "addIlks(bytes6,bytes6[])": {
        "details": "Add a new Ilk (approve an asset as collateral for a series)."
      },
      "addSeries(bytes6,bytes6,address)": {
        "details": "Add a new series"
      },
      "build(address,bytes12,bytes6,bytes6)": {
        "details": "Create a new vault, linked to a series (and therefore underlying) and a collateral"
      },
      "debtFromBase(bytes6,uint128)": {
        "details": "Convert a debt amount for a series from base to fyToken terms."
      },
      "debtToBase(bytes6,uint128)": {
        "details": "Convert a debt amount for a series from fyToken to base terms"
      },
      "destroy(bytes12)": {
        "details": "Destroy an empty vault. Used to recover gas costs."
      },
      "getRoleAdmin(bytes4)": {
        "details": "Returns the admin role that controls `role`. See {grantRole} and {revokeRole}. To change a role's admin, use {_setRoleAdmin}."
      },
      "give(bytes12,address)": {
        "details": "Transfer a vault to another user."
      },
      "grantRole(bytes4,address)": {
        "details": "Grants `role` to `account`. If `account` had not been already granted `role`, emits a {RoleGranted} event. Requirements: - the caller must have ``role``'s admin role."
      },
      "grantRoles(bytes4[],address)": {
        "details": "Grants all of `role` in `roles` to `account`. If `account` had not been already granted `role`, emits a {RoleGranted} event. Requirements: - For each `role` in `roles`, the caller must have ``role``'s admin role."
      },
      "hasRole(bytes4,address)": {
        "details": "Returns `true` if `account` has been granted `role`."
      },
      "level(bytes12)": {
        "details": "Return the collateralization level of a vault. It will be negative if undercollateralized."
      },
      "lockRole(bytes4)": {
        "details": "Sets LOCK as ``role``'s admin role. LOCK has no members, so this disables admin management of ``role``. Emits a {RoleAdminChanged} event. Requirements: - the caller must have ``role``'s admin role."
      },
      "mature(bytes6)": {
        "details": "Record the borrowing rate at maturity for a series"
      },
      "pour(bytes12,int128,int128)": {
        "details": "Manipulate a vault, ensuring it is collateralized afterwards. To be used by debt management contracts."
      },
      "renounceRole(bytes4,address)": {
        "details": "Revokes `role` from the calling account. Roles are often managed via {grantRole} and {revokeRole}: this function's purpose is to provide a mechanism for accounts to lose their privileges if they are compromised (such as when a trusted device is misplaced). If the calling account had been granted `role`, emits a {RoleRevoked} event. Requirements: - the caller must be `account`."
      },
      "revokeRole(bytes4,address)": {
        "details": "Revokes `role` from `account`. If `account` had been granted `role`, emits a {RoleRevoked} event. Requirements: - the caller must have ``role``'s admin role."
      },
      "revokeRoles(bytes4[],address)": {
        "details": "Revokes all of `role` in `roles` from `account`. If `account` had been granted `role`, emits a {RoleRevoked} event. Requirements: - For each `role` in `roles`, the caller must have ``role``'s admin role."
      },
      "roll(bytes12,bytes6,int128)": {
        "details": "Change series and debt of a vault. The module calling this function also needs to buy underlying in the pool for the new series, and sell it in pool for the old series."
      },
      "setDebtLimits(bytes6,bytes6,uint96,uint24,uint8)": {
        "details": "Set the maximum and minimum debt for an underlying and ilk pair. Can be reset."
      },
      "setLendingOracle(bytes6,address)": {
        "details": "Set a rate oracle. Can be reset."
      },
      "setRoleAdmin(bytes4,bytes4)": {
        "details": "Sets `adminRole` as ``role``'s admin role. If ``role``'s admin role is not `adminRole` emits a {RoleAdminChanged} event. Requirements: - the caller must have ``role``'s admin role."
      },
      "setSpotOracle(bytes6,bytes6,address,uint32)": {
        "details": "Set a spot oracle and its collateralization ratio. Can be reset."
      },
      "slurp(bytes12,uint128,uint128)": {
        "details": "Reduce debt and collateral from a vault, ignoring collateralization checks. To be used by liquidation engines."
      },
      "stir(bytes12,bytes12,uint128,uint128)": {
        "details": "Move collateral and debt between vaults."
      },
      "tweak(bytes12,bytes6,bytes6)": {
        "details": "Change a vault series and/or collateral types. We can change the series if there is no debt, or assets if there are no assets"
      }
    },
    "version": 1
  },
  "userdoc": {
    "kind": "user",
    "methods": {
      "debtFromBase(bytes6,uint128)": {
        "notice": "Think about rounding up if using, since we are dividing."
      }
    },
    "version": 1
  },
  "storageLayout": {
    "storage": [
      {
        "astId": 15,
        "contract": "contracts/vault/Cauldron.sol:Cauldron",
        "label": "_roles",
        "offset": 0,
        "slot": "0",
        "type": "t_mapping(t_bytes4,t_struct(RoleData)10_storage)"
      },
      {
        "astId": 19920,
        "contract": "contracts/vault/Cauldron.sol:Cauldron",
        "label": "CHI",
        "offset": 0,
        "slot": "1",
        "type": "t_bytes32"
      },
      {
        "astId": 19923,
        "contract": "contracts/vault/Cauldron.sol:Cauldron",
        "label": "RATE",
        "offset": 0,
        "slot": "2",
        "type": "t_bytes32"
      },
      {
        "astId": 19926,
        "contract": "contracts/vault/Cauldron.sol:Cauldron",
        "label": "ETH",
        "offset": 0,
        "slot": "3",
        "type": "t_bytes6"
      },
      {
        "astId": 11670,
        "contract": "contracts/vault/Cauldron.sol:Cauldron",
        "label": "assets",
        "offset": 0,
        "slot": "4",
        "type": "t_mapping(t_bytes6,t_address)"
      },
      {
        "astId": 11675,
        "contract": "contracts/vault/Cauldron.sol:Cauldron",
        "label": "series",
        "offset": 0,
        "slot": "5",
        "type": "t_mapping(t_bytes6,t_struct(Series)2316_storage)"
      },
      {
        "astId": 11681,
        "contract": "contracts/vault/Cauldron.sol:Cauldron",
        "label": "ilks",
        "offset": 0,
        "slot": "6",
        "type": "t_mapping(t_bytes6,t_mapping(t_bytes6,t_bool))"
      },
      {
        "astId": 11686,
        "contract": "contracts/vault/Cauldron.sol:Cauldron",
        "label": "lendingOracles",
        "offset": 0,
        "slot": "7",
        "type": "t_mapping(t_bytes6,t_contract(IOracle)2912)"
      },
      {
        "astId": 11693,
        "contract": "contracts/vault/Cauldron.sol:Cauldron",
        "label": "spotOracles",
        "offset": 0,
        "slot": "8",
        "type": "t_mapping(t_bytes6,t_mapping(t_bytes6,t_struct(SpotOracle)2331_storage))"
      },
      {
        "astId": 11700,
        "contract": "contracts/vault/Cauldron.sol:Cauldron",
        "label": "debt",
        "offset": 0,
        "slot": "9",
        "type": "t_mapping(t_bytes6,t_mapping(t_bytes6,t_struct(Debt)2325_storage))"
      },
      {
        "astId": 11704,
        "contract": "contracts/vault/Cauldron.sol:Cauldron",
        "label": "ratesAtMaturity",
        "offset": 0,
        "slot": "10",
        "type": "t_mapping(t_bytes6,t_uint256)"
      },
      {
        "astId": 11709,
        "contract": "contracts/vault/Cauldron.sol:Cauldron",
        "label": "vaults",
        "offset": 0,
        "slot": "11",
        "type": "t_mapping(t_bytes12,t_struct(Vault)2338_storage)"
      },
      {
        "astId": 11714,
        "contract": "contracts/vault/Cauldron.sol:Cauldron",
        "label": "balances",
        "offset": 0,
        "slot": "12",
        "type": "t_mapping(t_bytes12,t_struct(Balances)2343_storage)"
      }
    ],
    "types": {
      "t_address": {
        "encoding": "inplace",
        "label": "address",
        "numberOfBytes": "20"
      },
      "t_bool": {
        "encoding": "inplace",
        "label": "bool",
        "numberOfBytes": "1"
      },
      "t_bytes12": {
        "encoding": "inplace",
        "label": "bytes12",
        "numberOfBytes": "12"
      },
      "t_bytes32": {
        "encoding": "inplace",
        "label": "bytes32",
        "numberOfBytes": "32"
      },
      "t_bytes4": {
        "encoding": "inplace",
        "label": "bytes4",
        "numberOfBytes": "4"
      },
      "t_bytes6": {
        "encoding": "inplace",
        "label": "bytes6",
        "numberOfBytes": "6"
      },
      "t_contract(IFYToken)2705": {
        "encoding": "inplace",
        "label": "contract IFYToken",
        "numberOfBytes": "20"
      },
      "t_contract(IOracle)2912": {
        "encoding": "inplace",
        "label": "contract IOracle",
        "numberOfBytes": "20"
      },
      "t_mapping(t_address,t_bool)": {
        "encoding": "mapping",
        "key": "t_address",
        "label": "mapping(address => bool)",
        "numberOfBytes": "32",
        "value": "t_bool"
      },
      "t_mapping(t_bytes12,t_struct(Balances)2343_storage)": {
        "encoding": "mapping",
        "key": "t_bytes12",
        "label": "mapping(bytes12 => struct DataTypes.Balances)",
        "numberOfBytes": "32",
        "value": "t_struct(Balances)2343_storage"
      },
      "t_mapping(t_bytes12,t_struct(Vault)2338_storage)": {
        "encoding": "mapping",
        "key": "t_bytes12",
        "label": "mapping(bytes12 => struct DataTypes.Vault)",
        "numberOfBytes": "32",
        "value": "t_struct(Vault)2338_storage"
      },
      "t_mapping(t_bytes4,t_struct(RoleData)10_storage)": {
        "encoding": "mapping",
        "key": "t_bytes4",
        "label": "mapping(bytes4 => struct AccessControl.RoleData)",
        "numberOfBytes": "32",
        "value": "t_struct(RoleData)10_storage"
      },
      "t_mapping(t_bytes6,t_address)": {
        "encoding": "mapping",
        "key": "t_bytes6",
        "label": "mapping(bytes6 => address)",
        "numberOfBytes": "32",
        "value": "t_address"
      },
      "t_mapping(t_bytes6,t_bool)": {
        "encoding": "mapping",
        "key": "t_bytes6",
        "label": "mapping(bytes6 => bool)",
        "numberOfBytes": "32",
        "value": "t_bool"
      },
      "t_mapping(t_bytes6,t_contract(IOracle)2912)": {
        "encoding": "mapping",
        "key": "t_bytes6",
        "label": "mapping(bytes6 => contract IOracle)",
        "numberOfBytes": "32",
        "value": "t_contract(IOracle)2912"
      },
      "t_mapping(t_bytes6,t_mapping(t_bytes6,t_bool))": {
        "encoding": "mapping",
        "key": "t_bytes6",
        "label": "mapping(bytes6 => mapping(bytes6 => bool))",
        "numberOfBytes": "32",
        "value": "t_mapping(t_bytes6,t_bool)"
      },
      "t_mapping(t_bytes6,t_mapping(t_bytes6,t_struct(Debt)2325_storage))": {
        "encoding": "mapping",
        "key": "t_bytes6",
        "label": "mapping(bytes6 => mapping(bytes6 => struct DataTypes.Debt))",
        "numberOfBytes": "32",
        "value": "t_mapping(t_bytes6,t_struct(Debt)2325_storage)"
      },
      "t_mapping(t_bytes6,t_mapping(t_bytes6,t_struct(SpotOracle)2331_storage))": {
        "encoding": "mapping",
        "key": "t_bytes6",
        "label": "mapping(bytes6 => mapping(bytes6 => struct DataTypes.SpotOracle))",
        "numberOfBytes": "32",
        "value": "t_mapping(t_bytes6,t_struct(SpotOracle)2331_storage)"
      },
      "t_mapping(t_bytes6,t_struct(Debt)2325_storage)": {
        "encoding": "mapping",
        "key": "t_bytes6",
        "label": "mapping(bytes6 => struct DataTypes.Debt)",
        "numberOfBytes": "32",
        "value": "t_struct(Debt)2325_storage"
      },
      "t_mapping(t_bytes6,t_struct(Series)2316_storage)": {
        "encoding": "mapping",
        "key": "t_bytes6",
        "label": "mapping(bytes6 => struct DataTypes.Series)",
        "numberOfBytes": "32",
        "value": "t_struct(Series)2316_storage"
      },
      "t_mapping(t_bytes6,t_struct(SpotOracle)2331_storage)": {
        "encoding": "mapping",
        "key": "t_bytes6",
        "label": "mapping(bytes6 => struct DataTypes.SpotOracle)",
        "numberOfBytes": "32",
        "value": "t_struct(SpotOracle)2331_storage"
      },
      "t_mapping(t_bytes6,t_uint256)": {
        "encoding": "mapping",
        "key": "t_bytes6",
        "label": "mapping(bytes6 => uint256)",
        "numberOfBytes": "32",
        "value": "t_uint256"
      },
      "t_struct(Balances)2343_storage": {
        "encoding": "inplace",
        "label": "struct DataTypes.Balances",
        "members": [
          {
            "astId": 2340,
            "contract": "contracts/vault/Cauldron.sol:Cauldron",
            "label": "art",
            "offset": 0,
            "slot": "0",
            "type": "t_uint128"
          },
          {
            "astId": 2342,
            "contract": "contracts/vault/Cauldron.sol:Cauldron",
            "label": "ink",
            "offset": 16,
            "slot": "0",
            "type": "t_uint128"
          }
        ],
        "numberOfBytes": "32"
      },
      "t_struct(Debt)2325_storage": {
        "encoding": "inplace",
        "label": "struct DataTypes.Debt",
        "members": [
          {
            "astId": 2318,
            "contract": "contracts/vault/Cauldron.sol:Cauldron",
            "label": "max",
            "offset": 0,
            "slot": "0",
            "type": "t_uint96"
          },
          {
            "astId": 2320,
            "contract": "contracts/vault/Cauldron.sol:Cauldron",
            "label": "min",
            "offset": 12,
            "slot": "0",
            "type": "t_uint24"
          },
          {
            "astId": 2322,
            "contract": "contracts/vault/Cauldron.sol:Cauldron",
            "label": "dec",
            "offset": 15,
            "slot": "0",
            "type": "t_uint8"
          },
          {
            "astId": 2324,
            "contract": "contracts/vault/Cauldron.sol:Cauldron",
            "label": "sum",
            "offset": 16,
            "slot": "0",
            "type": "t_uint128"
          }
        ],
        "numberOfBytes": "32"
      },
      "t_struct(RoleData)10_storage": {
        "encoding": "inplace",
        "label": "struct AccessControl.RoleData",
        "members": [
          {
            "astId": 7,
            "contract": "contracts/vault/Cauldron.sol:Cauldron",
            "label": "members",
            "offset": 0,
            "slot": "0",
            "type": "t_mapping(t_address,t_bool)"
          },
          {
            "astId": 9,
            "contract": "contracts/vault/Cauldron.sol:Cauldron",
            "label": "adminRole",
            "offset": 0,
            "slot": "1",
            "type": "t_bytes4"
          }
        ],
        "numberOfBytes": "64"
      },
      "t_struct(Series)2316_storage": {
        "encoding": "inplace",
        "label": "struct DataTypes.Series",
        "members": [
          {
            "astId": 2311,
            "contract": "contracts/vault/Cauldron.sol:Cauldron",
            "label": "fyToken",
            "offset": 0,
            "slot": "0",
            "type": "t_contract(IFYToken)2705"
          },
          {
            "astId": 2313,
            "contract": "contracts/vault/Cauldron.sol:Cauldron",
            "label": "baseId",
            "offset": 20,
            "slot": "0",
            "type": "t_bytes6"
          },
          {
            "astId": 2315,
            "contract": "contracts/vault/Cauldron.sol:Cauldron",
            "label": "maturity",
            "offset": 26,
            "slot": "0",
            "type": "t_uint32"
          }
        ],
        "numberOfBytes": "32"
      },
      "t_struct(SpotOracle)2331_storage": {
        "encoding": "inplace",
        "label": "struct DataTypes.SpotOracle",
        "members": [
          {
            "astId": 2328,
            "contract": "contracts/vault/Cauldron.sol:Cauldron",
            "label": "oracle",
            "offset": 0,
            "slot": "0",
            "type": "t_contract(IOracle)2912"
          },
          {
            "astId": 2330,
            "contract": "contracts/vault/Cauldron.sol:Cauldron",
            "label": "ratio",
            "offset": 20,
            "slot": "0",
            "type": "t_uint32"
          }
        ],
        "numberOfBytes": "32"
      },
      "t_struct(Vault)2338_storage": {
        "encoding": "inplace",
        "label": "struct DataTypes.Vault",
        "members": [
          {
            "astId": 2333,
            "contract": "contracts/vault/Cauldron.sol:Cauldron",
            "label": "owner",
            "offset": 0,
            "slot": "0",
            "type": "t_address"
          },
          {
            "astId": 2335,
            "contract": "contracts/vault/Cauldron.sol:Cauldron",
            "label": "seriesId",
            "offset": 20,
            "slot": "0",
            "type": "t_bytes6"
          },
          {
            "astId": 2337,
            "contract": "contracts/vault/Cauldron.sol:Cauldron",
            "label": "ilkId",
            "offset": 26,
            "slot": "0",
            "type": "t_bytes6"
          }
        ],
        "numberOfBytes": "32"
      },
      "t_uint128": {
        "encoding": "inplace",
        "label": "uint128",
        "numberOfBytes": "16"
      },
      "t_uint24": {
        "encoding": "inplace",
        "label": "uint24",
        "numberOfBytes": "3"
      },
      "t_uint256": {
        "encoding": "inplace",
        "label": "uint256",
        "numberOfBytes": "32"
      },
      "t_uint32": {
        "encoding": "inplace",
        "label": "uint32",
        "numberOfBytes": "4"
      },
      "t_uint8": {
        "encoding": "inplace",
        "label": "uint8",
        "numberOfBytes": "1"
      },
      "t_uint96": {
        "encoding": "inplace",
        "label": "uint96",
        "numberOfBytes": "12"
      }
    }
  }
}