{
  "address": "0x2511B91a9CE253A6eFc7CB6c8a40cd793a62E04B",
  "abi": [
    {
      "anonymous": false,
      "inputs": [
        {
          "indexed": true,
          "internalType": "bytes4",
          "name": "role",
          "type": "bytes4"
        },
        {
          "indexed": true,
          "internalType": "bytes4",
          "name": "newAdminRole",
          "type": "bytes4"
        }
      ],
      "name": "RoleAdminChanged",
      "type": "event"
    },
    {
      "anonymous": false,
      "inputs": [
        {
          "indexed": true,
          "internalType": "bytes4",
          "name": "role",
          "type": "bytes4"
        },
        {
          "indexed": true,
          "internalType": "address",
          "name": "account",
          "type": "address"
        },
        {
          "indexed": true,
          "internalType": "address",
          "name": "sender",
          "type": "address"
        }
      ],
      "name": "RoleGranted",
      "type": "event"
    },
    {
      "anonymous": false,
      "inputs": [
        {
          "indexed": true,
          "internalType": "bytes4",
          "name": "role",
          "type": "bytes4"
        },
        {
          "indexed": true,
          "internalType": "address",
          "name": "account",
          "type": "address"
        },
        {
          "indexed": true,
          "internalType": "address",
          "name": "sender",
          "type": "address"
        }
      ],
      "name": "RoleRevoked",
      "type": "event"
    },
    {
      "anonymous": false,
      "inputs": [
        {
          "indexed": true,
          "internalType": "bytes6",
          "name": "baseId",
          "type": "bytes6"
        },
        {
          "indexed": true,
          "internalType": "bytes6",
          "name": "kind",
          "type": "bytes6"
        },
        {
          "indexed": true,
          "internalType": "address",
          "name": "source",
          "type": "address"
        }
      ],
      "name": "SourceSet",
      "type": "event"
    },
    {
      "inputs": [],
      "name": "LOCK",
      "outputs": [
        {
          "internalType": "bytes4",
          "name": "",
          "type": "bytes4"
        }
      ],
      "stateMutability": "view",
      "type": "function"
    },
    {
      "inputs": [],
      "name": "LOCK8605463013",
      "outputs": [
        {
          "internalType": "bytes4",
          "name": "",
          "type": "bytes4"
        }
      ],
      "stateMutability": "view",
      "type": "function"
    },
    {
      "inputs": [],
      "name": "ROOT",
      "outputs": [
        {
          "internalType": "bytes4",
          "name": "",
          "type": "bytes4"
        }
      ],
      "stateMutability": "view",
      "type": "function"
    },
    {
      "inputs": [],
      "name": "ROOT4146650865",
      "outputs": [
        {
          "internalType": "bytes4",
          "name": "",
          "type": "bytes4"
        }
      ],
      "stateMutability": "view",
      "type": "function"
    },
    {
      "inputs": [
        {
          "internalType": "bytes32",
          "name": "base",
          "type": "bytes32"
        },
        {
          "internalType": "bytes32",
          "name": "kind",
          "type": "bytes32"
        },
        {
          "internalType": "uint256",
          "name": "",
          "type": "uint256"
        }
      ],
      "name": "get",
      "outputs": [
        {
          "internalType": "uint256",
          "name": "accumulator",
          "type": "uint256"
        },
        {
          "internalType": "uint256",
          "name": "updateTime",
          "type": "uint256"
        }
      ],
      "stateMutability": "nonpayable",
      "type": "function"
    },
    {
      "inputs": [
        {
          "internalType": "bytes4",
          "name": "role",
          "type": "bytes4"
        }
      ],
      "name": "getRoleAdmin",
      "outputs": [
        {
          "internalType": "bytes4",
          "name": "",
          "type": "bytes4"
        }
      ],
      "stateMutability": "view",
      "type": "function"
    },
    {
      "inputs": [
        {
          "internalType": "bytes4",
          "name": "role",
          "type": "bytes4"
        },
        {
          "internalType": "address",
          "name": "account",
          "type": "address"
        }
      ],
      "name": "grantRole",
      "outputs": [],
      "stateMutability": "nonpayable",
      "type": "function"
    },
    {
      "inputs": [
        {
          "internalType": "bytes4[]",
          "name": "roles",
          "type": "bytes4[]"
        },
        {
          "internalType": "address",
          "name": "account",
          "type": "address"
        }
      ],
      "name": "grantRoles",
      "outputs": [],
      "stateMutability": "nonpayable",
      "type": "function"
    },
    {
      "inputs": [
        {
          "internalType": "bytes4",
          "name": "role",
          "type": "bytes4"
        },
        {
          "internalType": "address",
          "name": "account",
          "type": "address"
        }
      ],
      "name": "hasRole",
      "outputs": [
        {
          "internalType": "bool",
          "name": "",
          "type": "bool"
        }
      ],
      "stateMutability": "view",
      "type": "function"
    },
    {
      "inputs": [
        {
          "internalType": "bytes4",
          "name": "role",
          "type": "bytes4"
        }
      ],
      "name": "lockRole",
      "outputs": [],
      "stateMutability": "nonpayable",
      "type": "function"
    },
    {
      "inputs": [
        {
          "internalType": "bytes32",
          "name": "base",
          "type": "bytes32"
        },
        {
          "internalType": "bytes32",
          "name": "kind",
          "type": "bytes32"
        },
        {
          "internalType": "uint256",
          "name": "",
          "type": "uint256"
        }
      ],
      "name": "peek",
      "outputs": [
        {
          "internalType": "uint256",
          "name": "accumulator",
          "type": "uint256"
        },
        {
          "internalType": "uint256",
          "name": "updateTime",
          "type": "uint256"
        }
      ],
      "stateMutability": "view",
      "type": "function"
    },
    {
      "inputs": [
        {
          "internalType": "bytes4",
          "name": "role",
          "type": "bytes4"
        },
        {
          "internalType": "address",
          "name": "account",
          "type": "address"
        }
      ],
      "name": "renounceRole",
      "outputs": [],
      "stateMutability": "nonpayable",
      "type": "function"
    },
    {
      "inputs": [
        {
          "internalType": "bytes4",
          "name": "role",
          "type": "bytes4"
        },
        {
          "internalType": "address",
          "name": "account",
          "type": "address"
        }
      ],
      "name": "revokeRole",
      "outputs": [],
      "stateMutability": "nonpayable",
      "type": "function"
    },
    {
      "inputs": [
        {
          "internalType": "bytes4[]",
          "name": "roles",
          "type": "bytes4[]"
        },
        {
          "internalType": "address",
          "name": "account",
          "type": "address"
        }
      ],
      "name": "revokeRoles",
      "outputs": [],
      "stateMutability": "nonpayable",
      "type": "function"
    },
    {
      "inputs": [
        {
          "internalType": "bytes4",
          "name": "role",
          "type": "bytes4"
        },
        {
          "internalType": "bytes4",
          "name": "adminRole",
          "type": "bytes4"
        }
      ],
      "name": "setRoleAdmin",
      "outputs": [],
      "stateMutability": "nonpayable",
      "type": "function"
    },
    {
      "inputs": [
        {
          "internalType": "bytes6",
          "name": "base",
          "type": "bytes6"
        },
        {
          "internalType": "bytes6",
          "name": "kind",
          "type": "bytes6"
        },
        {
          "internalType": "address",
          "name": "source",
          "type": "address"
        }
      ],
      "name": "setSource",
      "outputs": [],
      "stateMutability": "nonpayable",
      "type": "function"
    },
    {
      "inputs": [
        {
          "internalType": "bytes6",
          "name": "",
          "type": "bytes6"
        },
        {
          "internalType": "bytes6",
          "name": "",
          "type": "bytes6"
        }
      ],
      "name": "sources",
      "outputs": [
        {
          "internalType": "address",
          "name": "",
          "type": "address"
        }
      ],
      "stateMutability": "view",
      "type": "function"
    }
  ],
  "transactionHash": "0x38abea8e632ab874e12d1d02c11b77b22c898b0f03a2e45ea043f301acdd411f",
  "args": [],
  "solcInputHash": "33ce1b88dd6eab84b0d7ae38c48ff578",
  "bytecode": "0x60806040526243484960e81b600155635241544560e01b6002556003805465ffffffffffff19166530300000000017905534801561003c57600080fd5b5061004860003361005f565b61005a6001600160e01b0319806100f6565b610192565b6001600160e01b031982166000908152602081815260408083206001600160a01b038516845290915290205460ff166100f2576001600160e01b031982166000818152602081815260408083206001600160a01b0386168085529252808320805460ff1916600117905551339391927fe6231789d19137da31d0550f4ba9ee379020a8cfb64cb79bf1790c996d2e616591a45b5050565b6001600160e01b03198116610127836001600160e01b03191660009081526020819052604090206001015460e01b90565b6001600160e01b031916146100f2576001600160e01b0319828116600081815260208190526040808220600101805463ffffffff191660e087901c17905551928416927fd348e2220a50b4500ec353f6e802d2f14dd1b5d6786148fd1bbcc570bf92d4739190a35050565b610ca2806101a16000396000f3fe608060405234801561001057600080fd5b50600436106100d65760003560e01c80156100db57806310ab94321461010157806344faded014610124578063462f9a2814610139578063559742d9146101615780635909c12f146100db5780635ba5e9f01461017457806368284fd414610139578063687f0e4c1461018757806392b45d9c1461019a5780639f1ed3c0146101ad578063a4f0d7d0146101f9578063ad82110f14610208578063ae93c1b51461021b578063de02cde71461022e578063effae35314610241578063ffffffff146101f9575b600080fd5b6100e3600081565b6040516001600160e01b031990911681526020015b60405180910390f35b61011461010f366004610b10565b610254565b60405190151581526020016100f8565b610137610132366004610b10565b610267565b005b61014c610147366004610ac9565b6102ae565b604080519283526020830191909152016100f8565b61013761016f366004610af5565b6102d7565b6100e3610182366004610af5565b610316565b610137610195366004610b10565b610327565b6101376101a8366004610b97565b610382565b6101e16101bb366004610b6d565b60046020908152600092835260408084209091529082529020546001600160a01b031681565b6040516001600160a01b0390911681526020016100f8565b6100e36001600160e01b031981565b6101376102163660046109ec565b610448565b610137610229366004610b43565b6104ca565b61013761023c366004610b10565b6104fd565b61013761024f3660046109ec565b610530565b600061026083836105a5565b9392505050565b8161027a610274826105da565b336105a5565b61029f5760405162461bcd60e51b815260040161029690610bf3565b60405180910390fd5b6102a983836105fc565b505050565b6000806102cb6102bd8661066b565b6102c68661066b565b6106ba565b90969095509350505050565b806102e4610274826105da565b6103005760405162461bcd60e51b815260040161029690610bf3565b610312826001600160e01b03196108b5565b5050565b6000610321826105da565b92915050565b6001600160a01b03811633146103785760405162461bcd60e51b81526020600482015260166024820152752932b737bab731b29037b7363c903337b91039b2b63360511b6044820152606401610296565b61031282826105fc565b6103986000356001600160e01b031916336105a5565b6103d45760405162461bcd60e51b815260206004820152600d60248201526c1058d8d95cdcc819195b9a5959609a1b6044820152606401610296565b6001600160d01b031983811660008181526004602090815260408083209487168084529490915280822080546001600160a01b0319166001600160a01b0387169081179091559051909392917f6b17b6fe258656b70fbe6082d40c42859bfac908441594fab748a898387cc03591a4505050565b60005b82518110156102a95761047961027484838151811061046c5761046c610c40565b60200260200101516105da565b6104955760405162461bcd60e51b815260040161029690610bf3565b6104b88382815181106104aa576104aa610c40565b6020026020010151836105fc565b806104c281610c17565b91505061044b565b816104d7610274826105da565b6104f35760405162461bcd60e51b815260040161029690610bf3565b6102a983836108b5565b8161050a610274826105da565b6105265760405162461bcd60e51b815260040161029690610bf3565b6102a98383610934565b60005b82518110156102a95761055461027484838151811061046c5761046c610c40565b6105705760405162461bcd60e51b815260040161029690610bf3565b61059383828151811061058557610585610c40565b602002602001015183610934565b8061059d81610c17565b915050610533565b6001600160e01b031982166000908152602081815260408083206001600160a01b038516845290915290205460ff1692915050565b6001600160e01b03191660009081526020819052604090206001015460e01b90565b61060682826105a5565b15610312576001600160e01b031982166000818152602081815260408083206001600160a01b0386168085529252808320805460ff1916905551339391927f4ddc7b757e7bdd7254a9cd39452d307a52761bc824625c6a33104a075d8099e691a45050565b806001600160d01b0319811681146106b55760405162461bcd60e51b815260206004820152600d60248201526c43617374206f766572666c6f7760981b6044820152606401610296565b919050565b6001600160d01b0319808316600090815260046020908152604080832093851683529290529081205481906001600160a01b03168061072e5760405162461bcd60e51b815260206004820152601060248201526f14dbdd5c98d9481b9bdd08199bdd5b9960821b6044820152606401610296565b61073960025461066b565b6001600160d01b0319858116911614156107c557806001600160a01b031663aa5af0fd6040518163ffffffff1660e01b815260040160206040518083038186803b15801561078657600080fd5b505afa15801561079a573d6000803e3d6000fd5b505050506040513d601f19601f820116820180604052508101906107be9190610bda565b925061085b565b6107d060015461066b565b6001600160d01b03198581169116141561081d57806001600160a01b031663182df0f56040518163ffffffff1660e01b815260040160206040518083038186803b15801561078657600080fd5b60405162461bcd60e51b8152602060048201526013602482015272556e6b6e6f776e206f7261636c65207479706560681b6044820152606401610296565b600083116108aa5760405162461bcd60e51b815260206004820152601c60248201527b436f6d706f756e6420616363756d756c61746f72206973207a65726f60201b6044820152606401610296565b429150509250929050565b6001600160e01b031981166108c9836105da565b6001600160e01b03191614610312576001600160e01b0319828116600081815260208190526040808220600101805463ffffffff191660e087901c17905551928416927fd348e2220a50b4500ec353f6e802d2f14dd1b5d6786148fd1bbcc570bf92d4739190a35050565b61093e82826105a5565b610312576001600160e01b031982166000818152602081815260408083206001600160a01b0386168085529252808320805460ff1916600117905551339391927fe6231789d19137da31d0550f4ba9ee379020a8cfb64cb79bf1790c996d2e616591a45050565b80356001600160a01b03811681146106b557600080fd5b80356001600160e01b0319811681146106b557600080fd5b80356001600160d01b0319811681146106b557600080fd5b600080604083850312156109ff57600080fd5b82356001600160401b0380821115610a1657600080fd5b818501915085601f830112610a2a57600080fd5b8135602082821115610a3e57610a3e610c56565b8160051b604051601f19603f83011681018181108682111715610a6357610a63610c56565b604052838152828101945085830182870184018b1015610a8257600080fd5b600096505b84871015610aac57610a98816109bc565b865260019690960195948301948301610a87565b509650610abc90508782016109a5565b9450505050509250929050565b600080600060608486031215610ade57600080fd5b505081359360208301359350604090920135919050565b600060208284031215610b0757600080fd5b610260826109bc565b60008060408385031215610b2357600080fd5b610b2c836109bc565b9150610b3a602084016109a5565b90509250929050565b60008060408385031215610b5657600080fd5b610b5f836109bc565b9150610b3a602084016109bc565b60008060408385031215610b8057600080fd5b610b89836109d4565b9150610b3a602084016109d4565b600080600060608486031215610bac57600080fd5b610bb5846109d4565b9250610bc3602085016109d4565b9150610bd1604085016109a5565b90509250925092565b600060208284031215610bec57600080fd5b5051919050565b6020808252600a908201526927b7363c9030b236b4b760b11b604082015260600190565b6000600019821415610c3957634e487b7160e01b600052601160045260246000fd5b5060010190565b634e487b7160e01b600052603260045260246000fd5b634e487b7160e01b600052604160045260246000fdfea264697066735822122066fb0cbf63bebd22517019d80546001a8a2b80960321df6704cf49cdaf1eb38564736f6c63430008060033",
  "devdoc": {
    "kind": "dev",
    "methods": {
      "getRoleAdmin(bytes4)": {
        "details": "Returns the admin role that controls `role`. See {grantRole} and {revokeRole}. To change a role's admin, use {_setRoleAdmin}."
      },
      "grantRole(bytes4,address)": {
        "details": "Grants `role` to `account`. If `account` had not been already granted `role`, emits a {RoleGranted} event. Requirements: - the caller must have ``role``'s admin role."
      },
      "grantRoles(bytes4[],address)": {
        "details": "Grants all of `role` in `roles` to `account`. If `account` had not been already granted `role`, emits a {RoleGranted} event. Requirements: - For each `role` in `roles`, the caller must have ``role``'s admin role."
      },
      "hasRole(bytes4,address)": {
        "details": "Returns `true` if `account` has been granted `role`."
      },
      "lockRole(bytes4)": {
        "details": "Sets LOCK as ``role``'s admin role. LOCK has no members, so this disables admin management of ``role``. Emits a {RoleAdminChanged} event. Requirements: - the caller must have ``role``'s admin role."
      },
      "renounceRole(bytes4,address)": {
        "details": "Revokes `role` from the calling account. Roles are often managed via {grantRole} and {revokeRole}: this function's purpose is to provide a mechanism for accounts to lose their privileges if they are compromised (such as when a trusted device is misplaced). If the calling account had been granted `role`, emits a {RoleRevoked} event. Requirements: - the caller must be `account`."
      },
      "revokeRole(bytes4,address)": {
        "details": "Revokes `role` from `account`. If `account` had been granted `role`, emits a {RoleRevoked} event. Requirements: - the caller must have ``role``'s admin role."
      },
      "revokeRoles(bytes4[],address)": {
        "details": "Revokes all of `role` in `roles` from `account`. If `account` had been granted `role`, emits a {RoleRevoked} event. Requirements: - For each `role` in `roles`, the caller must have ``role``'s admin role."
      },
      "setRoleAdmin(bytes4,bytes4)": {
        "details": "Sets `adminRole` as ``role``'s admin role. If ``role``'s admin role is not `adminRole` emits a {RoleAdminChanged} event. Requirements: - the caller must have ``role``'s admin role."
      }
    },
    "version": 1
  },
  "userdoc": {
    "kind": "user",
    "methods": {
      "get(bytes32,bytes32,uint256)": {
        "notice": "Retrieve the latest accumulator from source, updating it if necessary."
      },
      "peek(bytes32,bytes32,uint256)": {
        "notice": "Retrieve the latest stored accumulator."
      },
      "setSource(bytes6,bytes6,address)": {
        "notice": "Set or reset a source"
      }
    },
    "version": 1
  },
  "storageLayout": {
    "storage": [
      {
        "astId": 15,
        "contract": "contracts/vault/compound/CompoundMultiOracle.sol:CompoundMultiOracle",
        "label": "_roles",
        "offset": 0,
        "slot": "0",
        "type": "t_mapping(t_bytes4,t_struct(RoleData)10_storage)"
      },
      {
        "astId": 19920,
        "contract": "contracts/vault/compound/CompoundMultiOracle.sol:CompoundMultiOracle",
        "label": "CHI",
        "offset": 0,
        "slot": "1",
        "type": "t_bytes32"
      },
      {
        "astId": 19923,
        "contract": "contracts/vault/compound/CompoundMultiOracle.sol:CompoundMultiOracle",
        "label": "RATE",
        "offset": 0,
        "slot": "2",
        "type": "t_bytes32"
      },
      {
        "astId": 19926,
        "contract": "contracts/vault/compound/CompoundMultiOracle.sol:CompoundMultiOracle",
        "label": "ETH",
        "offset": 0,
        "slot": "3",
        "type": "t_bytes6"
      },
      {
        "astId": 19754,
        "contract": "contracts/vault/compound/CompoundMultiOracle.sol:CompoundMultiOracle",
        "label": "sources",
        "offset": 0,
        "slot": "4",
        "type": "t_mapping(t_bytes6,t_mapping(t_bytes6,t_address))"
      }
    ],
    "types": {
      "t_address": {
        "encoding": "inplace",
        "label": "address",
        "numberOfBytes": "20"
      },
      "t_bool": {
        "encoding": "inplace",
        "label": "bool",
        "numberOfBytes": "1"
      },
      "t_bytes32": {
        "encoding": "inplace",
        "label": "bytes32",
        "numberOfBytes": "32"
      },
      "t_bytes4": {
        "encoding": "inplace",
        "label": "bytes4",
        "numberOfBytes": "4"
      },
      "t_bytes6": {
        "encoding": "inplace",
        "label": "bytes6",
        "numberOfBytes": "6"
      },
      "t_mapping(t_address,t_bool)": {
        "encoding": "mapping",
        "key": "t_address",
        "label": "mapping(address => bool)",
        "numberOfBytes": "32",
        "value": "t_bool"
      },
      "t_mapping(t_bytes4,t_struct(RoleData)10_storage)": {
        "encoding": "mapping",
        "key": "t_bytes4",
        "label": "mapping(bytes4 => struct AccessControl.RoleData)",
        "numberOfBytes": "32",
        "value": "t_struct(RoleData)10_storage"
      },
      "t_mapping(t_bytes6,t_address)": {
        "encoding": "mapping",
        "key": "t_bytes6",
        "label": "mapping(bytes6 => address)",
        "numberOfBytes": "32",
        "value": "t_address"
      },
      "t_mapping(t_bytes6,t_mapping(t_bytes6,t_address))": {
        "encoding": "mapping",
        "key": "t_bytes6",
        "label": "mapping(bytes6 => mapping(bytes6 => address))",
        "numberOfBytes": "32",
        "value": "t_mapping(t_bytes6,t_address)"
      },
      "t_struct(RoleData)10_storage": {
        "encoding": "inplace",
        "label": "struct AccessControl.RoleData",
        "members": [
          {
            "astId": 7,
            "contract": "contracts/vault/compound/CompoundMultiOracle.sol:CompoundMultiOracle",
            "label": "members",
            "offset": 0,
            "slot": "0",
            "type": "t_mapping(t_address,t_bool)"
          },
          {
            "astId": 9,
            "contract": "contracts/vault/compound/CompoundMultiOracle.sol:CompoundMultiOracle",
            "label": "adminRole",
            "offset": 0,
            "slot": "1",
            "type": "t_bytes4"
          }
        ],
        "numberOfBytes": "64"
      }
    }
  }
}