{
  "address": "0x99E3B7C91f72C05420412e7EcA397fD9b1DdF58B",
  "abi": [
    {
      "inputs": [],
      "name": "borrowIndex",
      "outputs": [
        {
          "internalType": "uint256",
          "name": "",
          "type": "uint256"
        }
      ],
      "stateMutability": "view",
      "type": "function"
    },
    {
      "inputs": [],
      "name": "exchangeRateCurrent",
      "outputs": [
        {
          "internalType": "uint256",
          "name": "",
          "type": "uint256"
        }
      ],
      "stateMutability": "nonpayable",
      "type": "function"
    },
    {
      "inputs": [],
      "name": "exchangeRateStored",
      "outputs": [
        {
          "internalType": "uint256",
          "name": "",
          "type": "uint256"
        }
      ],
      "stateMutability": "view",
      "type": "function"
    },
    {
      "inputs": [
        {
          "internalType": "uint256",
          "name": "chi",
          "type": "uint256"
        }
      ],
      "name": "setBorrowIndex",
      "outputs": [],
      "stateMutability": "nonpayable",
      "type": "function"
    },
    {
      "inputs": [
        {
          "internalType": "uint256",
          "name": "chi",
          "type": "uint256"
        }
      ],
      "name": "setExchangeRate",
      "outputs": [],
      "stateMutability": "nonpayable",
      "type": "function"
    }
  ],
  "transactionHash": "0x5d041fbba6da4cf552594a6b6972d524cc48294dff5c9025979162b9e6d5b664",
  "args": [],
  "solcInputHash": "c94919c925af7cc2d7b0ada396b632f9",
  "bytecode": "0x608060405234801561001057600080fd5b50610131806100206000396000f3fe6080604052348015600f57600080fd5b506004361060505760003560e01c8063182df0f514605557806337d9bd9214606f578063aa5af0fd146081578063bd6d894d146089578063db068e0e14608f575b600080fd5b605d60005481565b60405190815260200160405180910390f35b607f607a36600460bb565b600155565b005b605d60015481565b605d609f565b607f609a36600460bb565b600055565b600280546000918260ae8360d3565b9190505550600054905090565b60006020828403121560cc57600080fd5b5035919050565b600060001982141560f457634e487b7160e01b600052601160045260246000fd5b506001019056fea26469706673582212203af3c1fc0f0244c7bcddcf7c51dee9637e31993f603deb860d7fa577c792bdec64736f6c63430008060033",
  "devdoc": {
    "kind": "dev",
    "methods": {},
    "version": 1
  },
  "userdoc": {
    "kind": "user",
    "methods": {},
    "version": 1
  },
  "storageLayout": {
    "storage": [
      {
        "astId": 3,
        "contract": "contracts/vault/compound/CTokenMock.sol:CTokenMock",
        "label": "exchangeRateStored",
        "offset": 0,
        "slot": "0",
        "type": "t_uint256"
      },
      {
        "astId": 5,
        "contract": "contracts/vault/compound/CTokenMock.sol:CTokenMock",
        "label": "borrowIndex",
        "offset": 0,
        "slot": "1",
        "type": "t_uint256"
      },
      {
        "astId": 7,
        "contract": "contracts/vault/compound/CTokenMock.sol:CTokenMock",
        "label": "counter",
        "offset": 0,
        "slot": "2",
        "type": "t_uint256"
      }
    ],
    "types": {
      "t_uint256": {
        "encoding": "inplace",
        "label": "uint256",
        "numberOfBytes": "32"
      }
    }
  }
}