{
  "address": "0xDAA932791761190811F08d31BaeD160E0AF0EbD5",
  "abi": [
    {
      "anonymous": false,
      "inputs": [
        {
          "indexed": true,
          "internalType": "address",
          "name": "fyToken",
          "type": "address"
        },
        {
          "indexed": true,
          "internalType": "address",
          "name": "asset",
          "type": "address"
        },
        {
          "indexed": true,
          "internalType": "uint32",
          "name": "maturity",
          "type": "uint32"
        }
      ],
      "name": "FYTokenCreated",
      "type": "event"
    },
    {
      "anonymous": false,
      "inputs": [
        {
          "indexed": true,
          "internalType": "bytes4",
          "name": "role",
          "type": "bytes4"
        },
        {
          "indexed": true,
          "internalType": "bytes4",
          "name": "newAdminRole",
          "type": "bytes4"
        }
      ],
      "name": "RoleAdminChanged",
      "type": "event"
    },
    {
      "anonymous": false,
      "inputs": [
        {
          "indexed": true,
          "internalType": "bytes4",
          "name": "role",
          "type": "bytes4"
        },
        {
          "indexed": true,
          "internalType": "address",
          "name": "account",
          "type": "address"
        },
        {
          "indexed": true,
          "internalType": "address",
          "name": "sender",
          "type": "address"
        }
      ],
      "name": "RoleGranted",
      "type": "event"
    },
    {
      "anonymous": false,
      "inputs": [
        {
          "indexed": true,
          "internalType": "bytes4",
          "name": "role",
          "type": "bytes4"
        },
        {
          "indexed": true,
          "internalType": "address",
          "name": "account",
          "type": "address"
        },
        {
          "indexed": true,
          "internalType": "address",
          "name": "sender",
          "type": "address"
        }
      ],
      "name": "RoleRevoked",
      "type": "event"
    },
    {
      "inputs": [],
      "name": "LOCK",
      "outputs": [
        {
          "internalType": "bytes4",
          "name": "",
          "type": "bytes4"
        }
      ],
      "stateMutability": "view",
      "type": "function"
    },
    {
      "inputs": [],
      "name": "LOCK8605463013",
      "outputs": [
        {
          "internalType": "bytes4",
          "name": "",
          "type": "bytes4"
        }
      ],
      "stateMutability": "view",
      "type": "function"
    },
    {
      "inputs": [],
      "name": "ROOT",
      "outputs": [
        {
          "internalType": "bytes4",
          "name": "",
          "type": "bytes4"
        }
      ],
      "stateMutability": "view",
      "type": "function"
    },
    {
      "inputs": [],
      "name": "ROOT4146650865",
      "outputs": [
        {
          "internalType": "bytes4",
          "name": "",
          "type": "bytes4"
        }
      ],
      "stateMutability": "view",
      "type": "function"
    },
    {
      "inputs": [
        {
          "internalType": "bytes6",
          "name": "baseId",
          "type": "bytes6"
        },
        {
          "internalType": "contract IOracle",
          "name": "oracle",
          "type": "address"
        },
        {
          "internalType": "contract IJoin",
          "name": "baseJoin",
          "type": "address"
        },
        {
          "internalType": "uint32",
          "name": "maturity",
          "type": "uint32"
        },
        {
          "internalType": "string",
          "name": "name",
          "type": "string"
        },
        {
          "internalType": "string",
          "name": "symbol",
          "type": "string"
        }
      ],
      "name": "createFYToken",
      "outputs": [
        {
          "internalType": "address",
          "name": "",
          "type": "address"
        }
      ],
      "stateMutability": "nonpayable",
      "type": "function"
    },
    {
      "inputs": [
        {
          "internalType": "bytes4",
          "name": "role",
          "type": "bytes4"
        }
      ],
      "name": "getRoleAdmin",
      "outputs": [
        {
          "internalType": "bytes4",
          "name": "",
          "type": "bytes4"
        }
      ],
      "stateMutability": "view",
      "type": "function"
    },
    {
      "inputs": [
        {
          "internalType": "bytes4",
          "name": "role",
          "type": "bytes4"
        },
        {
          "internalType": "address",
          "name": "account",
          "type": "address"
        }
      ],
      "name": "grantRole",
      "outputs": [],
      "stateMutability": "nonpayable",
      "type": "function"
    },
    {
      "inputs": [
        {
          "internalType": "bytes4[]",
          "name": "roles",
          "type": "bytes4[]"
        },
        {
          "internalType": "address",
          "name": "account",
          "type": "address"
        }
      ],
      "name": "grantRoles",
      "outputs": [],
      "stateMutability": "nonpayable",
      "type": "function"
    },
    {
      "inputs": [
        {
          "internalType": "bytes4",
          "name": "role",
          "type": "bytes4"
        },
        {
          "internalType": "address",
          "name": "account",
          "type": "address"
        }
      ],
      "name": "hasRole",
      "outputs": [
        {
          "internalType": "bool",
          "name": "",
          "type": "bool"
        }
      ],
      "stateMutability": "view",
      "type": "function"
    },
    {
      "inputs": [
        {
          "internalType": "bytes4",
          "name": "role",
          "type": "bytes4"
        }
      ],
      "name": "lockRole",
      "outputs": [],
      "stateMutability": "nonpayable",
      "type": "function"
    },
    {
      "inputs": [
        {
          "internalType": "bytes4",
          "name": "role",
          "type": "bytes4"
        },
        {
          "internalType": "address",
          "name": "account",
          "type": "address"
        }
      ],
      "name": "renounceRole",
      "outputs": [],
      "stateMutability": "nonpayable",
      "type": "function"
    },
    {
      "inputs": [
        {
          "internalType": "bytes4",
          "name": "role",
          "type": "bytes4"
        },
        {
          "internalType": "address",
          "name": "account",
          "type": "address"
        }
      ],
      "name": "revokeRole",
      "outputs": [],
      "stateMutability": "nonpayable",
      "type": "function"
    },
    {
      "inputs": [
        {
          "internalType": "bytes4[]",
          "name": "roles",
          "type": "bytes4[]"
        },
        {
          "internalType": "address",
          "name": "account",
          "type": "address"
        }
      ],
      "name": "revokeRoles",
      "outputs": [],
      "stateMutability": "nonpayable",
      "type": "function"
    },
    {
      "inputs": [
        {
          "internalType": "bytes4",
          "name": "role",
          "type": "bytes4"
        },
        {
          "internalType": "bytes4",
          "name": "adminRole",
          "type": "bytes4"
        }
      ],
      "name": "setRoleAdmin",
      "outputs": [],
      "stateMutability": "nonpayable",
      "type": "function"
    }
  ],
  "transactionHash": "0x08480ef70ef6261242de35b7317cbcf7bff9afaf742f76597d98fb5c7644e517",
  "args": [],
  "solcInputHash": "33ce1b88dd6eab84b0d7ae38c48ff578",
  "bytecode": "0x608060405234801561001057600080fd5b5061001c600033610033565b61002e6001600160e01b0319806100ca565b610166565b6001600160e01b031982166000908152602081815260408083206001600160a01b038516845290915290205460ff166100c6576001600160e01b031982166000818152602081815260408083206001600160a01b0386168085529252808320805460ff1916600117905551339391927fe6231789d19137da31d0550f4ba9ee379020a8cfb64cb79bf1790c996d2e616591a45b5050565b6001600160e01b031981166100fb836001600160e01b03191660009081526020819052604090206001015460e01b90565b6001600160e01b031916146100c6576001600160e01b0319828116600081815260208190526040808220600101805463ffffffff191660e087901c17905551928416927fd348e2220a50b4500ec353f6e802d2f14dd1b5d6786148fd1bbcc570bf92d4739190a35050565b613abe806101756000396000f3fe60806040523480156200001157600080fd5b5060043610620000c55760003560e01c8015620000ca57806310ab943214620000f157806344faded01462000119578063559742d914620001325780635909c12f14620000ca5780635ba5e9f01462000149578063687f0e4c1462000160578063839b132d1462000177578063a4f0d7d014620001a7578063ad82110f14620001b7578063ae93c1b514620001ce578063de02cde714620001e5578063effae35314620001fc578063ffffffff14620001a7575b600080fd5b620000d3600081565b6040516001600160e01b031990911681526020015b60405180910390f35b620001086200010236600462000a65565b62000213565b6040519015158152602001620000e8565b620001306200012a36600462000a65565b62000228565b005b620001306200014336600462000a47565b62000278565b620000d36200015a36600462000a47565b620002bf565b620001306200017136600462000a65565b620002d2565b6200018e6200018836600462000ad9565b62000331565b6040516001600160a01b039091168152602001620000e8565b620000d36001600160e01b031981565b62000130620001c83660046200095a565b62000567565b62000130620001df36600462000aa1565b620005fb565b62000130620001f636600462000a65565b62000636565b620001306200020d3660046200095a565b62000671565b6000620002218383620006f7565b9392505050565b816200023f62000238826200072c565b33620006f7565b620002675760405162461bcd60e51b81526004016200025e9062000c70565b60405180910390fd5b6200027383836200074e565b505050565b806200028862000238826200072c565b620002a75760405162461bcd60e51b81526004016200025e9062000c70565b620002bb826001600160e01b0319620007c0565b5050565b6000620002cc826200072c565b92915050565b6001600160a01b0381163314620003255760405162461bcd60e51b81526020600482015260166024820152752932b737bab731b29037b7363c903337b91039b2b63360511b60448201526064016200025e565b620002bb82826200074e565b60006200034b6000356001600160e01b03191633620006f7565b620003895760405162461bcd60e51b815260206004820152600d60248201526c1058d8d95cdcc819195b9a5959609a1b60448201526064016200025e565b60008989898989898989604051620003a190620008b6565b620003b498979695949392919062000c01565b604051809103906000f080158015620003d1573d6000803e3d6000fd5b5060405163de02cde760e01b81529091506001600160a01b0382169063de02cde7906200040690600090339060040162000bde565b600060405180830381600087803b1580156200042157600080fd5b505af115801562000436573d6000803e3d6000fd5b5050604051631a1fc39360e21b81526001600160a01b038416925063687f0e4c91506200046b90600090309060040162000bde565b600060405180830381600087803b1580156200048657600080fd5b505af11580156200049b573d6000803e3d6000fd5b505050508663ffffffff16886001600160a01b03166338d52e0f6040518163ffffffff1660e01b815260040160206040518083038186803b158015620004e057600080fd5b505afa158015620004f5573d6000803e3d6000fd5b505050506040513d601f19601f820116820180604052508101906200051b91906200093a565b6001600160a01b0316826001600160a01b03167f85e234b3f0665fe250a0e323838371f80e08c0d53c03fd87b6924a1c1ed22c6960405160405180910390a49998505050505050505050565b60005b825181101562000273576200059f6200023884838151811062000591576200059162000cbe565b60200260200101516200072c565b620005be5760405162461bcd60e51b81526004016200025e9062000c70565b620005e6838281518110620005d757620005d762000cbe565b6020026020010151836200074e565b80620005f28162000c94565b9150506200056a565b816200060b62000238826200072c565b6200062a5760405162461bcd60e51b81526004016200025e9062000c70565b620002738383620007c0565b816200064662000238826200072c565b620006655760405162461bcd60e51b81526004016200025e9062000c70565b62000273838362000842565b60005b825181101562000273576200069b6200023884838151811062000591576200059162000cbe565b620006ba5760405162461bcd60e51b81526004016200025e9062000c70565b620006e2838281518110620006d357620006d362000cbe565b60200260200101518362000842565b80620006ee8162000c94565b91505062000674565b6001600160e01b031982166000908152602081815260408083206001600160a01b038516845290915290205460ff1692915050565b6001600160e01b03191660009081526020819052604090206001015460e01b90565b6200075a8282620006f7565b15620002bb576001600160e01b031982166000818152602081815260408083206001600160a01b0386168085529252808320805460ff1916905551339391927f4ddc7b757e7bdd7254a9cd39452d307a52761bc824625c6a33104a075d8099e691a45050565b6001600160e01b03198116620007d6836200072c565b6001600160e01b03191614620002bb576001600160e01b0319828116600081815260208190526040808220600101805463ffffffff191660e087901c17905551928416927fd348e2220a50b4500ec353f6e802d2f14dd1b5d6786148fd1bbcc570bf92d4739190a35050565b6200084e8282620006f7565b620002bb576001600160e01b031982166000818152602081815260408083206001600160a01b0386168085529252808320805460ff1916600117905551339391927fe6231789d19137da31d0550f4ba9ee379020a8cfb64cb79bf1790c996d2e616591a45050565b612d858062000d0483390190565b8035620008d18162000cea565b919050565b80356001600160e01b031981168114620008d157600080fd5b60008083601f8401126200090257600080fd5b5081356001600160401b038111156200091a57600080fd5b6020830191508360208285010111156200093357600080fd5b9250929050565b6000602082840312156200094d57600080fd5b8151620002218162000cea565b600080604083850312156200096e57600080fd5b82356001600160401b03808211156200098657600080fd5b818501915085601f8301126200099b57600080fd5b8135602082821115620009b257620009b262000cd4565b8160051b604051601f19603f83011681018181108682111715620009da57620009da62000cd4565b604052838152828101945085830182870184018b1015620009fa57600080fd5b600096505b8487101562000a285762000a1381620008d6565b865260019690960195948301948301620009ff565b50965062000a3a9050878201620008c4565b9450505050509250929050565b60006020828403121562000a5a57600080fd5b6200022182620008d6565b6000806040838503121562000a7957600080fd5b62000a8483620008d6565b9150602083013562000a968162000cea565b809150509250929050565b6000806040838503121562000ab557600080fd5b62000ac083620008d6565b915062000ad060208401620008d6565b90509250929050565b60008060008060008060008060c0898b03121562000af657600080fd5b88356001600160d01b03198116811462000b0f57600080fd5b9750602089013562000b218162000cea565b9650604089013562000b338162000cea565b9550606089013563ffffffff8116811462000b4d57600080fd5b945060808901356001600160401b038082111562000b6a57600080fd5b62000b788c838d01620008ef565b909650945060a08b013591508082111562000b9257600080fd5b5062000ba18b828c01620008ef565b999c989b5096995094979396929594505050565b81835281816020850137506000828201602090810191909152601f909101601f19169091010190565b6001600160e01b03199290921682526001600160a01b0316602082015260400190565b6001600160d01b0319891681526001600160a01b0388811660208301528716604082015263ffffffff8616606082015260c06080820181905260009062000c4c908301868862000bb5565b82810360a084015262000c6181858762000bb5565b9b9a5050505050505050505050565b6020808252600a908201526927b7363c9030b236b4b760b11b604082015260600190565b600060001982141562000cb757634e487b7160e01b600052601160045260246000fd5b5060010190565b634e487b7160e01b600052603260045260246000fd5b634e487b7160e01b600052604160045260246000fd5b6001600160a01b038116811462000d0057600080fd5b5056fe6101806040526003610140819052623f3f3f60e81b610160908152620000299160049190620005c7565b50604080518082019091526003808252623f3f3f60e81b60209092019182526200005691600591620005c7565b506006805460ff191660121790557f6e71edae12b1b97f4d1f60370fef10105fa2faae0126114a169c64845d6126c96080526243484960e81b600855635241544560e01b600955600a80546530300000000065ffffffffffff19909116179055600019600c55348015620000c957600080fd5b5060405162002d8538038062002d85833981016040819052620000ec916200074b565b818173608746FD624216250BF7C41153B1113f6FdE5423638ee573ac876001600160a01b03166338d52e0f6040518163ffffffff1660e01b815260040160206040518083038186803b1580156200014257600080fd5b505afa15801562000157573d6000803e3d6000fd5b505050506040513d601f19601f820116820180604052508101906200017d919062000724565b6040516001600160e01b031960e084901b1681526001600160a01b03909116600482015260240160206040518083038186803b158015620001bd57600080fd5b505af4158015620001d2573d6000803e3d6000fd5b505050506040513d601f19601f82011682018060405250810190620001f891906200080a565b82828262000208600033620003db565b6200021c6001600160e01b03198062000473565b825162000231906004906020860190620005c7565b50815162000247906005906020850190620005c7565b506006805460ff191660ff9290921691909117905550504660c08190526200026f9062000511565b60a0525042915050808411801562000295575062000292630784ce0082620008d3565b84105b8015620002a5575063ffffffff84105b620002e95760405162461bcd60e51b815260206004820152601060248201526f496e76616c6964206d6174757269747960801b604482015260640160405180910390fd5b6001600160d01b0319871661010052600b80546001600160a01b0319166001600160a01b038716908117909155610120859052604080516338d52e0f60e01b815290516338d52e0f91600480820192602092909190829003018186803b1580156200035357600080fd5b505afa15801562000368573d6000803e3d6000fd5b505050506040513d601f19601f820116820180604052508101906200038e919062000724565b60601b6001600160601b03191660e0525050600a8054600160301b600160d01b03191666010000000000006001600160a01b03969096169590950294909417909355506200096692505050565b6001600160e01b031982166000908152602081815260408083206001600160a01b038516845290915290205460ff166200046f576001600160e01b031982166000818152602081815260408083206001600160a01b0386168085529252808320805460ff1916600117905551339391927fe6231789d19137da31d0550f4ba9ee379020a8cfb64cb79bf1790c996d2e616591a45b5050565b6001600160e01b03198116620004a5836001600160e01b03191660009081526020819052604090206001015460e01b90565b6001600160e01b031916146200046f576001600160e01b0319828116600081815260208190526040808220600101805463ffffffff191660e087901c17905551928416927fd348e2220a50b4500ec353f6e802d2f14dd1b5d6786148fd1bbcc570bf92d4739190a35050565b60007f8b73c3c69bb8fe3d512ecc4cf759cc79239f7b179b0ffacaa9a75d522b39400f60046040516200054591906200082f565b60408051918290038220828201825260018352603160f81b602093840152815180840194909452838201527fc89efdaa54c0f20c7adf612882df0950f5a951637e0307cdcb4c672f298b8bc6606084015260808301949094523060a0808401919091528451808403909101815260c09092019093528051920191909120919050565b828054620005d590620008fa565b90600052602060002090601f016020900481019282620005f9576000855562000644565b82601f106200061457805160ff191683800117855562000644565b8280016001018555821562000644579182015b828111156200064457825182559160200191906001019062000627565b506200065292915062000656565b5090565b5b8082111562000652576000815560010162000657565b600082601f8301126200067f57600080fd5b81516001600160401b03808211156200069c576200069c62000937565b604051601f8301601f19908116603f01168101908282118183101715620006c757620006c762000937565b81604052838152602092508683858801011115620006e457600080fd5b600091505b83821015620007085785820183015181830184015290820190620006e9565b838211156200071a5760008385830101525b9695505050505050565b6000602082840312156200073757600080fd5b815162000744816200094d565b9392505050565b60008060008060008060c087890312156200076557600080fd5b86516001600160d01b0319811681146200077e57600080fd5b602088015190965062000791816200094d565b6040880151909550620007a4816200094d565b6060880151608089015191955093506001600160401b0380821115620007c957600080fd5b620007d78a838b016200066d565b935060a0890151915080821115620007ee57600080fd5b50620007fd89828a016200066d565b9150509295509295509295565b6000602082840312156200081d57600080fd5b815160ff811681146200074457600080fd5b600080835481600182811c9150808316806200084c57607f831692505b60208084108214156200086d57634e487b7160e01b86526022600452602486fd5b8180156200088457600181146200089657620008c5565b60ff19861689528489019650620008c5565b60008a81526020902060005b86811015620008bd5781548b820152908501908301620008a2565b505084890196505b509498975050505050505050565b60008219821115620008f557634e487b7160e01b600052601160045260246000fd5b500190565b600181811c908216806200090f57607f821691505b602082108114156200093157634e487b7160e01b600052602260045260246000fd5b50919050565b634e487b7160e01b600052604160045260246000fd5b6001600160a01b03811681146200096357600080fd5b50565b60805160a05160c05160e05160601c6101005160d01c60d01b6101205161236462000a21600039600081816102b4015281816107be0152818161093f015281816109e901528181610b0f01528181610c8e01528181610d5901528181610efa0152611245015260008181610470015281816114a20152611974015260006103d10152600081816105420152818161099401526110c70152600081816109c501526110fc0152600081816102ee015261103e01526123646000f3fe608060405234801561001057600080fd5b50600436106101ff5760003560e01c801561020457806306fdde031461022a578063095ea7b31461023f57806310ab9432146102625780631295bd081461027557806318160ddd1461028a5780631e9a69501461029c578063204f83f9146102af57806323b872dd146102d657806330adf81f146102e9578063313ce56714610310578063341f141d1461032f5780633644e5151461033757806340c10f191461033f57806344faded01461035257806354fd4d5014610365578063559742d91461036d5780635909c12f146102045780635ba5e9f0146103805780635cffe9de14610393578063613255ab146103a6578063687f0e4c146103b95780636f307dc3146103cc57806370a08231146104005780637dc0d1d0146104295780637ecebe001461044357806387b652071461046357806391ff394c1461046b57806395d89b41146104ab5780639dc29fac146104b3578063a4f0d7d0146104c6578063a9059cbb146104d5578063ad82110f146104e8578063ae93c1b5146104fb578063b64b80841461050e578063b688a36314610521578063c077b49214610534578063cd0d00961461053d578063d505accf14610564578063d9d98ce414610577578063dd62ed3e1461058a578063de02cde7146105c3578063effae353146105d6578063ffffffff146104c6575b600080fd5b61020c600081565b6040516001600160e01b031990911681526020015b60405180910390f35b6102326105e9565b60405161022191906120a5565b61025261024d366004611c76565b610677565b6040519015158152602001610221565b610252610270366004611dc0565b61068d565b610288610283366004611d80565b610699565b005b6001545b604051908152602001610221565b61028e6102aa366004611c76565b6107ba565b61028e7f000000000000000000000000000000000000000000000000000000000000000081565b6102526102e4366004611bbe565b61091b565b61028e7f000000000000000000000000000000000000000000000000000000000000000081565b60065461031d9060ff1681565b60405160ff9091168152602001610221565b61028e61093b565b61028e610990565b61028861034d366004611c76565b6109e7565b610288610360366004611dc0565b610a6d565b610232610aa6565b61028861037b366004611da5565b610ac1565b61020c61038e366004611da5565b610b00565b6102526103a1366004611e0f565b610b0b565b61028e6103b4366004611b61565b610c8a565b6102886103c7366004611dc0565b610cfc565b6103f37f000000000000000000000000000000000000000000000000000000000000000081565b6040516102219190612008565b61028e61040e366004611b61565b6001600160a01b031660009081526002602052604090205490565b600a546103f390600160301b90046001600160a01b031681565b61028e610451366004611b61565b60076020526000908152604090205481565b610288610d57565b6104927f000000000000000000000000000000000000000000000000000000000000000081565b6040516001600160d01b03199091168152602001610221565b610232610ded565b6102886104c1366004611c76565b610dfa565b61020c6001600160e01b031981565b6102526104e3366004611c76565b610e36565b6102886104f6366004611ca2565b610e43565b610288610509366004611ddc565b610ec5565b61028861051c366004611c76565b610ef8565b600b546103f3906001600160a01b031681565b61028e600c5481565b61028e7f000000000000000000000000000000000000000000000000000000000000000081565b610288610572366004611bff565b610fd2565b61028e610585366004611c76565b611241565b61028e610598366004611b85565b6001600160a01b03918216600090815260036020908152604080832093909416825291909152205490565b6102886105d1366004611dc0565b6112b9565b6102886105e4366004611ca2565b6112ec565b600480546105f690612261565b80601f016020809104026020016040519081016040528092919081815260200182805461062290612261565b801561066f5780601f106106445761010080835404028352916020019161066f565b820191906000526020600020905b81548152906001019060200180831161065257829003601f168201915b505050505081565b6000610684338484611361565b90505b92915050565b600061068483836113ca565b6106af6000356001600160e01b031916336113ca565b6106d45760405162461bcd60e51b81526004016106cb9061219a565b60405180910390fd5b81656f7261636c6560d01b141561070e57600a8054600160301b600160d01b031916600160301b6001600160a01b0384160217905561077e565b81633537b4b760e11b141561073d57600b80546001600160a01b0319166001600160a01b03831617905561077e565b60405162461bcd60e51b81526020600482015260166024820152752ab73932b1b7b3b734bd32b2103830b930b6b2ba32b960511b60448201526064016106cb565b817fd61f2f59686784f82db8673820acfa642f9709c800724e09f7ac0e1aaedf4af7826040516107ae9190612008565b60405180910390a25050565b60007f00000000000000000000000000000000000000000000000000000000000000004263ffffffff1610156108025760405162461bcd60e51b81526004016106cb9061213f565b600082156108105782610821565b306000908152600260205260409020545b905061082d33826113ff565b50610840610839611453565b8290611559565b600b549092506001600160a01b03166312e5ff778561085e85611577565b6040518363ffffffff1660e01b815260040161087b929190612061565b602060405180830381600087803b15801561089557600080fd5b505af11580156108a9573d6000803e3d6000fd5b505050506040513d601f19601f820116820180604052508101906108cd9190611ed2565b5060408051828152602081018490526001600160a01b0386169133917f5cdf07ad0fc222442720b108e3ed4c4640f0fadc2ab2253e66f259a0fea83480910160405180910390a35092915050565b600061092784836115c4565b5061093384848461166c565b949350505050565b60007f00000000000000000000000000000000000000000000000000000000000000004263ffffffff1610156109835760405162461bcd60e51b81526004016106cb9061213f565b61098b611453565b905090565b60007f000000000000000000000000000000000000000000000000000000000000000046146109c25761098b46611719565b507f000000000000000000000000000000000000000000000000000000000000000090565b7f00000000000000000000000000000000000000000000000000000000000000004263ffffffff1610610a2c5760405162461bcd60e51b81526004016106cb906120dc565b610a426000356001600160e01b031916336113ca565b610a5e5760405162461bcd60e51b81526004016106cb9061219a565b610a6882826117aa565b505050565b81610a80610a7a82611831565b336113ca565b610a9c5760405162461bcd60e51b81526004016106cb906120b8565b610a688383611853565b6040805180820190915260018152603160f81b602082015290565b80610ace610a7a82611831565b610aea5760405162461bcd60e51b81526004016106cb906120b8565b610afc826001600160e01b03196118c2565b5050565b600061068782611831565b60007f00000000000000000000000000000000000000000000000000000000000000004263ffffffff1610610b525760405162461bcd60e51b81526004016106cb906120dc565b6001600160a01b0384163014610b7a5760405162461bcd60e51b81526004016106cb9061216c565b610b8485846117aa565b506040516323e30c8b60e01b81527f439148f0bbc682ca079e46d6e2c2f0c1e3b820f1a291b069d8882abf8cf18dd9906001600160a01b038716906323e30c8b90610bdc903390899089906000908a9060040161201c565b602060405180830381600087803b158015610bf657600080fd5b505af1158015610c0a573d6000803e3d6000fd5b505050506040513d601f19601f82011682018060405250810190610c2e9190611d67565b14610c745760405162461bcd60e51b81526020600482015260166024820152752737b716b1b7b6b83634b0b73a103137b93937bbb2b960511b60448201526064016106cb565b610c7e85846113ff565b50600195945050505050565b60007f00000000000000000000000000000000000000000000000000000000000000004263ffffffff1610610cd15760405162461bcd60e51b81526004016106cb906120dc565b6001600160a01b0382163014610ce8576000610687565b6001546106879060001961224a565b919050565b6001600160a01b0381163314610d4d5760405162461bcd60e51b81526020600482015260166024820152752932b737bab731b29037b7363c903337b91039b2b63360511b60448201526064016106cb565b610afc8282611853565b7f00000000000000000000000000000000000000000000000000000000000000004263ffffffff161015610d9d5760405162461bcd60e51b81526004016106cb9061213f565b600019600c5414610de25760405162461bcd60e51b815260206004820152600f60248201526e105b1c9958591e481b585d1d5c9959608a1b60448201526064016106cb565b610dea611941565b50565b600580546105f690612261565b610e106000356001600160e01b031916336113ca565b610e2c5760405162461bcd60e51b81526004016106cb9061219a565b610a6882826113ff565b600061068433848461166c565b60005b8251811015610a6857610e74610a7a848381518110610e6757610e676122cd565b6020026020010151611831565b610e905760405162461bcd60e51b81526004016106cb906120b8565b610eb3838281518110610ea557610ea56122cd565b602002602001015183611853565b80610ebd8161229c565b915050610e46565b81610ed2610a7a82611831565b610eee5760405162461bcd60e51b81526004016106cb906120b8565b610a6883836118c2565b7f00000000000000000000000000000000000000000000000000000000000000004263ffffffff1610610f3d5760405162461bcd60e51b81526004016106cb906120dc565b610f4782826117aa565b50600b546001600160a01b031663ceae3abd33610f6384611577565b6040518363ffffffff1660e01b8152600401610f80929190612061565b602060405180830381600087803b158015610f9a57600080fd5b505af1158015610fae573d6000803e3d6000fd5b505050506040513d601f19601f82011682018060405250810190610a689190611ed2565b428410156110225760405162461bcd60e51b815260206004820152601d60248201527f45524332305065726d69743a206578706972656420646561646c696e6500000060448201526064016106cb565b6001600160a01b038716600090815260076020526040812080547f0000000000000000000000000000000000000000000000000000000000000000918a918a918a91908661106f8361229c565b909155506040805160208101969096526001600160a01b0394851690860152929091166060840152608083015260a082015260c0810186905260e00160405160208183030381529060405280519060200120905060007f000000000000000000000000000000000000000000000000000000000000000046146110fa576110f546611719565b61111c565b7f00000000000000000000000000000000000000000000000000000000000000005b60405161190160f01b602082015260228101919091526042810183905260620160408051601f198184030181528282528051602091820120600080855291840180845281905260ff89169284019290925260608301879052608083018690529092509060019060a0016020604051602081039080840390855afa1580156111a7573d6000803e3d6000fd5b5050604051601f1901519150506001600160a01b038116158015906111dd5750896001600160a01b0316816001600160a01b0316145b6112295760405162461bcd60e51b815260206004820152601e60248201527f45524332305065726d69743a20696e76616c6964207369676e6174757265000060448201526064016106cb565b6112348a8a8a611361565b5050505050505050505050565b60007f00000000000000000000000000000000000000000000000000000000000000004263ffffffff16106112885760405162461bcd60e51b81526004016106cb906120dc565b6001600160a01b03831630146112b05760405162461bcd60e51b81526004016106cb9061216c565b50600092915050565b816112c6610a7a82611831565b6112e25760405162461bcd60e51b81526004016106cb906120b8565b610a688383611a2e565b60005b8251811015610a6857611310610a7a848381518110610e6757610e676122cd565b61132c5760405162461bcd60e51b81526004016106cb906120b8565b61134f838281518110611341576113416122cd565b602002602001015183611a2e565b806113598161229c565b9150506112ef565b6001600160a01b03838116600081815260036020908152604080832094871680845294825280832086905551858152919392917f8c5be1e5ebec7d5bd14f71427d1e84f3dd0314c0f7b2291e5b200ac8c7c3b92591015b60405180910390a35060019392505050565b6001600160e01b031982166000908152602081815260408083206001600160a01b038516845290915290205460ff1692915050565b30600090815260026020526040812054828110611428576114203084611a9f565b915050610687565b801561143a576114383082611a9f565b505b611446848285036115c4565b5061142084828503611a9f565b6000600019600c54141561146f57611469611941565b50611539565b600a546008546040516308c5f34560e31b8152600092600160301b90046001600160a01b03169163462f9a28916114cc917f0000000000000000000000000000000000000000000000000000000000000000918690600401612083565b6040805180830381600087803b1580156114e557600080fd5b505af11580156114f9573d6000803e3d6000fd5b505050506040513d601f19601f8201168201806040525081019061151d9190611efb565b509050611535600c5482611b1f90919063ffffffff16565b9150505b670de0b6b3a76400008110156115565750670de0b6b3a764000090565b90565b6000611565828461222b565b670de0b6b3a764000090049392505050565b60006001600160801b038211156115c05760405162461bcd60e51b815260206004820152600d60248201526c43617374206f766572666c6f7760981b60448201526064016106cb565b5090565b60006001600160a01b0383163314611663576001600160a01b0383166000908152600360209081526040808320338452909152902054600019811461166157828110156116525760405162461bcd60e51b815260206004820152601c60248201527b115490cc8c0e88125b9cdd59999a58da595b9d08185c1c1c9bdd985b60221b60448201526064016106cb565b61165f8433858403611361565b505b505b50600192915050565b6001600160a01b0383166000908152600260205260408120548211156116a45760405162461bcd60e51b81526004016106cb9061210a565b6001600160a01b0380851660009081526002602052604080822080548690039055918516815220546116d79083906121f1565b6001600160a01b03808516600081815260026020526040908190209390935591519086169060008051602061230f833981519152906113b89086815260200190565b60007f8b73c3c69bb8fe3d512ecc4cf759cc79239f7b179b0ffacaa9a75d522b39400f600460405161174b9190611f6c565b604051809103902061175b610aa6565b80516020918201206040805192830194909452928101919091526060810191909152608081018390523060a082015260c001604051602081830303815290604052805190602001209050919050565b6001600160a01b0382166000908152600260205260408120546117ce9083906121f1565b6001600160a01b0384166000908152600260205260409020556001546117f59083906121f1565b6001556040518281526001600160a01b0384169060009060008051602061230f833981519152906020015b60405180910390a350600192915050565b6001600160e01b03191660009081526020819052604090206001015460e01b90565b61185d82826113ca565b15610afc576001600160e01b031982166000818152602081815260408083206001600160a01b0386168085529252808320805460ff1916905551339391927f4ddc7b757e7bdd7254a9cd39452d307a52761bc824625c6a33104a075d8099e691a45050565b6001600160e01b031981166118d683611831565b6001600160e01b03191614610afc576001600160e01b0319828116600081815260208190526040808220600101805463ffffffff191660e087901c17905551928416927fd348e2220a50b4500ec353f6e802d2f14dd1b5d6786148fd1bbcc570bf92d4739190a35050565b600a546008546040516308c5f34560e31b8152600092600160301b90046001600160a01b03169163462f9a289161199e917f0000000000000000000000000000000000000000000000000000000000000000918690600401612083565b6040805180830381600087803b1580156119b757600080fd5b505af11580156119cb573d6000803e3d6000fd5b505050506040513d601f19601f820116820180604052508101906119ef9190611efb565b50600c8190556040518181529091507f8be75db1b82d3c69cbae9639f0c64031bc1ec21b06cf1fd56c9b24034497f9ff9060200160405180910390a190565b611a3882826113ca565b610afc576001600160e01b031982166000818152602081815260408083206001600160a01b0386168085529252808320805460ff1916600117905551339391927fe6231789d19137da31d0550f4ba9ee379020a8cfb64cb79bf1790c996d2e616591a45050565b6001600160a01b038216600090815260026020526040812054821115611ad75760405162461bcd60e51b81526004016106cb9061210a565b6001600160a01b0383166000818152600260209081526040808320805487900390556001805487900390555185815291929160008051602061230f8339815191529101611820565b600081611b3484670de0b6b3a764000061222b565b6106849190612209565b8035610cf7816122f9565b80356001600160e01b031981168114610cf757600080fd5b600060208284031215611b7357600080fd5b8135611b7e816122f9565b9392505050565b60008060408385031215611b9857600080fd5b8235611ba3816122f9565b91506020830135611bb3816122f9565b809150509250929050565b600080600060608486031215611bd357600080fd5b8335611bde816122f9565b92506020840135611bee816122f9565b929592945050506040919091013590565b600080600080600080600060e0888a031215611c1a57600080fd5b8735611c25816122f9565b96506020880135611c35816122f9565b95506040880135945060608801359350608088013560ff81168114611c5957600080fd5b9699959850939692959460a0840135945060c09093013592915050565b60008060408385031215611c8957600080fd5b8235611c94816122f9565b946020939093013593505050565b60008060408385031215611cb557600080fd5b82356001600160401b0380821115611ccc57600080fd5b818501915085601f830112611ce057600080fd5b8135602082821115611cf457611cf46122e3565b8160051b9250611d058184016121c1565b8281528181019085830185870184018b1015611d2057600080fd5b600096505b84871015611d4a57611d3681611b49565b835260019690960195918301918301611d25565b509650611d5a9050878201611b3e565b9450505050509250929050565b600060208284031215611d7957600080fd5b5051919050565b60008060408385031215611d9357600080fd5b823591506020830135611bb3816122f9565b600060208284031215611db757600080fd5b61068482611b49565b60008060408385031215611dd357600080fd5b611ba383611b49565b60008060408385031215611def57600080fd5b611df883611b49565b9150611e0660208401611b49565b90509250929050565b60008060008060808587031215611e2557600080fd5b8435611e30816122f9565b9350602085810135611e41816122f9565b93506040860135925060608601356001600160401b0380821115611e6457600080fd5b818801915088601f830112611e7857600080fd5b813581811115611e8a57611e8a6122e3565b611e9c601f8201601f191685016121c1565b91508082528984828501011115611eb257600080fd5b808484018584013760008482840101525080935050505092959194509250565b600060208284031215611ee457600080fd5b81516001600160801b0381168114611b7e57600080fd5b60008060408385031215611f0e57600080fd5b505080516020909101519092909150565b6000815180845260005b81811015611f4557602081850181015186830182015201611f29565b81811115611f57576000602083870101525b50601f01601f19169290920160200192915050565b600080835481600182811c915080831680611f8857607f831692505b6020808410821415611fa857634e487b7160e01b86526022600452602486fd5b818015611fbc5760018114611fcd57611ffa565b60ff19861689528489019650611ffa565b60008a81526020902060005b86811015611ff25781548b820152908501908301611fd9565b505084890196505b509498975050505050505050565b6001600160a01b0391909116815260200190565b6001600160a01b03868116825285166020820152604081018490526060810183905260a06080820181905260009061205690830184611f1f565b979650505050505050565b6001600160a01b039290921682526001600160801b0316602082015260400190565b6001600160d01b03199390931683526020830191909152604082015260600190565b6020815260006106846020830184611f1f565b6020808252600a908201526927b7363c9030b236b4b760b11b604082015260600190565b6020808252601490820152734f6e6c79206265666f7265206d6174757269747960601b604082015260600190565b6020808252601b908201527a45524332303a20496e73756666696369656e742062616c616e636560281b604082015260600190565b6020808252601390820152724f6e6c79206166746572206d6174757269747960681b604082015260600190565b602080825260149082015273556e737570706f727465642063757272656e637960601b604082015260600190565b6020808252600d908201526c1058d8d95cdcc819195b9a5959609a1b604082015260600190565b604051601f8201601f191681016001600160401b03811182821017156121e9576121e96122e3565b604052919050565b60008219821115612204576122046122b7565b500190565b60008261222657634e487b7160e01b600052601260045260246000fd5b500490565b6000816000190483118215151615612245576122456122b7565b500290565b60008282101561225c5761225c6122b7565b500390565b600181811c9082168061227557607f821691505b6020821081141561229657634e487b7160e01b600052602260045260246000fd5b50919050565b60006000198214156122b0576122b06122b7565b5060010190565b634e487b7160e01b600052601160045260246000fd5b634e487b7160e01b600052603260045260246000fd5b634e487b7160e01b600052604160045260246000fd5b6001600160a01b0381168114610dea57600080fdfeddf252ad1be2c89b69c2b068fc378daa952ba7f163c4a11628f55a4df523b3efa2646970667358221220d7454bf2f398f0dd37cbcfe4b26d3d09757f577c0e818e6dc7baf45ede97b55b64736f6c63430008060033a26469706673582212202b321e6efa1b86e28cc21188f15bffdf8854fba88f66ebfc28eb4c76f673a37f64736f6c63430008060033",
  "deployedBytecode": "0x60806040523480156200001157600080fd5b5060043610620000c55760003560e01c8015620000ca57806310ab943214620000f157806344faded01462000119578063559742d914620001325780635909c12f14620000ca5780635ba5e9f01462000149578063687f0e4c1462000160578063839b132d1462000177578063a4f0d7d014620001a7578063ad82110f14620001b7578063ae93c1b514620001ce578063de02cde714620001e5578063effae35314620001fc578063ffffffff14620001a7575b600080fd5b620000d3600081565b6040516001600160e01b031990911681526020015b60405180910390f35b620001086200010236600462000a65565b62000213565b6040519015158152602001620000e8565b620001306200012a36600462000a65565b62000228565b005b620001306200014336600462000a47565b62000278565b620000d36200015a36600462000a47565b620002bf565b620001306200017136600462000a65565b620002d2565b6200018e6200018836600462000ad9565b62000331565b6040516001600160a01b039091168152602001620000e8565b620000d36001600160e01b031981565b62000130620001c83660046200095a565b62000567565b62000130620001df36600462000aa1565b620005fb565b62000130620001f636600462000a65565b62000636565b620001306200020d3660046200095a565b62000671565b6000620002218383620006f7565b9392505050565b816200023f62000238826200072c565b33620006f7565b620002675760405162461bcd60e51b81526004016200025e9062000c70565b60405180910390fd5b6200027383836200074e565b505050565b806200028862000238826200072c565b620002a75760405162461bcd60e51b81526004016200025e9062000c70565b620002bb826001600160e01b0319620007c0565b5050565b6000620002cc826200072c565b92915050565b6001600160a01b0381163314620003255760405162461bcd60e51b81526020600482015260166024820152752932b737bab731b29037b7363c903337b91039b2b63360511b60448201526064016200025e565b620002bb82826200074e565b60006200034b6000356001600160e01b03191633620006f7565b620003895760405162461bcd60e51b815260206004820152600d60248201526c1058d8d95cdcc819195b9a5959609a1b60448201526064016200025e565b60008989898989898989604051620003a190620008b6565b620003b498979695949392919062000c01565b604051809103906000f080158015620003d1573d6000803e3d6000fd5b5060405163de02cde760e01b81529091506001600160a01b0382169063de02cde7906200040690600090339060040162000bde565b600060405180830381600087803b1580156200042157600080fd5b505af115801562000436573d6000803e3d6000fd5b5050604051631a1fc39360e21b81526001600160a01b038416925063687f0e4c91506200046b90600090309060040162000bde565b600060405180830381600087803b1580156200048657600080fd5b505af11580156200049b573d6000803e3d6000fd5b505050508663ffffffff16886001600160a01b03166338d52e0f6040518163ffffffff1660e01b815260040160206040518083038186803b158015620004e057600080fd5b505afa158015620004f5573d6000803e3d6000fd5b505050506040513d601f19601f820116820180604052508101906200051b91906200093a565b6001600160a01b0316826001600160a01b03167f85e234b3f0665fe250a0e323838371f80e08c0d53c03fd87b6924a1c1ed22c6960405160405180910390a49998505050505050505050565b60005b825181101562000273576200059f6200023884838151811062000591576200059162000cbe565b60200260200101516200072c565b620005be5760405162461bcd60e51b81526004016200025e9062000c70565b620005e6838281518110620005d757620005d762000cbe565b6020026020010151836200074e565b80620005f28162000c94565b9150506200056a565b816200060b62000238826200072c565b6200062a5760405162461bcd60e51b81526004016200025e9062000c70565b620002738383620007c0565b816200064662000238826200072c565b620006655760405162461bcd60e51b81526004016200025e9062000c70565b62000273838362000842565b60005b825181101562000273576200069b6200023884838151811062000591576200059162000cbe565b620006ba5760405162461bcd60e51b81526004016200025e9062000c70565b620006e2838281518110620006d357620006d362000cbe565b60200260200101518362000842565b80620006ee8162000c94565b91505062000674565b6001600160e01b031982166000908152602081815260408083206001600160a01b038516845290915290205460ff1692915050565b6001600160e01b03191660009081526020819052604090206001015460e01b90565b6200075a8282620006f7565b15620002bb576001600160e01b031982166000818152602081815260408083206001600160a01b0386168085529252808320805460ff1916905551339391927f4ddc7b757e7bdd7254a9cd39452d307a52761bc824625c6a33104a075d8099e691a45050565b6001600160e01b03198116620007d6836200072c565b6001600160e01b03191614620002bb576001600160e01b0319828116600081815260208190526040808220600101805463ffffffff191660e087901c17905551928416927fd348e2220a50b4500ec353f6e802d2f14dd1b5d6786148fd1bbcc570bf92d4739190a35050565b6200084e8282620006f7565b620002bb576001600160e01b031982166000818152602081815260408083206001600160a01b0386168085529252808320805460ff1916600117905551339391927fe6231789d19137da31d0550f4ba9ee379020a8cfb64cb79bf1790c996d2e616591a45050565b612d858062000d0483390190565b8035620008d18162000cea565b919050565b80356001600160e01b031981168114620008d157600080fd5b60008083601f8401126200090257600080fd5b5081356001600160401b038111156200091a57600080fd5b6020830191508360208285010111156200093357600080fd5b9250929050565b6000602082840312156200094d57600080fd5b8151620002218162000cea565b600080604083850312156200096e57600080fd5b82356001600160401b03808211156200098657600080fd5b818501915085601f8301126200099b57600080fd5b8135602082821115620009b257620009b262000cd4565b8160051b604051601f19603f83011681018181108682111715620009da57620009da62000cd4565b604052838152828101945085830182870184018b1015620009fa57600080fd5b600096505b8487101562000a285762000a1381620008d6565b865260019690960195948301948301620009ff565b50965062000a3a9050878201620008c4565b9450505050509250929050565b60006020828403121562000a5a57600080fd5b6200022182620008d6565b6000806040838503121562000a7957600080fd5b62000a8483620008d6565b9150602083013562000a968162000cea565b809150509250929050565b6000806040838503121562000ab557600080fd5b62000ac083620008d6565b915062000ad060208401620008d6565b90509250929050565b60008060008060008060008060c0898b03121562000af657600080fd5b88356001600160d01b03198116811462000b0f57600080fd5b9750602089013562000b218162000cea565b9650604089013562000b338162000cea565b9550606089013563ffffffff8116811462000b4d57600080fd5b945060808901356001600160401b038082111562000b6a57600080fd5b62000b788c838d01620008ef565b909650945060a08b013591508082111562000b9257600080fd5b5062000ba18b828c01620008ef565b999c989b5096995094979396929594505050565b81835281816020850137506000828201602090810191909152601f909101601f19169091010190565b6001600160e01b03199290921682526001600160a01b0316602082015260400190565b6001600160d01b0319891681526001600160a01b0388811660208301528716604082015263ffffffff8616606082015260c06080820181905260009062000c4c908301868862000bb5565b82810360a084015262000c6181858762000bb5565b9b9a5050505050505050505050565b6020808252600a908201526927b7363c9030b236b4b760b11b604082015260600190565b600060001982141562000cb757634e487b7160e01b600052601160045260246000fd5b5060010190565b634e487b7160e01b600052603260045260246000fd5b634e487b7160e01b600052604160045260246000fd5b6001600160a01b038116811462000d0057600080fd5b5056fe6101806040526003610140819052623f3f3f60e81b610160908152620000299160049190620005c7565b50604080518082019091526003808252623f3f3f60e81b60209092019182526200005691600591620005c7565b506006805460ff191660121790557f6e71edae12b1b97f4d1f60370fef10105fa2faae0126114a169c64845d6126c96080526243484960e81b600855635241544560e01b600955600a80546530300000000065ffffffffffff19909116179055600019600c55348015620000c957600080fd5b5060405162002d8538038062002d85833981016040819052620000ec916200074b565b818173__$2e3424cef6f63b39e0f8625c29becf4d47$__638ee573ac876001600160a01b03166338d52e0f6040518163ffffffff1660e01b815260040160206040518083038186803b1580156200014257600080fd5b505afa15801562000157573d6000803e3d6000fd5b505050506040513d601f19601f820116820180604052508101906200017d919062000724565b6040516001600160e01b031960e084901b1681526001600160a01b03909116600482015260240160206040518083038186803b158015620001bd57600080fd5b505af4158015620001d2573d6000803e3d6000fd5b505050506040513d601f19601f82011682018060405250810190620001f891906200080a565b82828262000208600033620003db565b6200021c6001600160e01b03198062000473565b825162000231906004906020860190620005c7565b50815162000247906005906020850190620005c7565b506006805460ff191660ff9290921691909117905550504660c08190526200026f9062000511565b60a0525042915050808411801562000295575062000292630784ce0082620008d3565b84105b8015620002a5575063ffffffff84105b620002e95760405162461bcd60e51b815260206004820152601060248201526f496e76616c6964206d6174757269747960801b604482015260640160405180910390fd5b6001600160d01b0319871661010052600b80546001600160a01b0319166001600160a01b038716908117909155610120859052604080516338d52e0f60e01b815290516338d52e0f91600480820192602092909190829003018186803b1580156200035357600080fd5b505afa15801562000368573d6000803e3d6000fd5b505050506040513d601f19601f820116820180604052508101906200038e919062000724565b60601b6001600160601b03191660e0525050600a8054600160301b600160d01b03191666010000000000006001600160a01b03969096169590950294909417909355506200096692505050565b6001600160e01b031982166000908152602081815260408083206001600160a01b038516845290915290205460ff166200046f576001600160e01b031982166000818152602081815260408083206001600160a01b0386168085529252808320805460ff1916600117905551339391927fe6231789d19137da31d0550f4ba9ee379020a8cfb64cb79bf1790c996d2e616591a45b5050565b6001600160e01b03198116620004a5836001600160e01b03191660009081526020819052604090206001015460e01b90565b6001600160e01b031916146200046f576001600160e01b0319828116600081815260208190526040808220600101805463ffffffff191660e087901c17905551928416927fd348e2220a50b4500ec353f6e802d2f14dd1b5d6786148fd1bbcc570bf92d4739190a35050565b60007f8b73c3c69bb8fe3d512ecc4cf759cc79239f7b179b0ffacaa9a75d522b39400f60046040516200054591906200082f565b60408051918290038220828201825260018352603160f81b602093840152815180840194909452838201527fc89efdaa54c0f20c7adf612882df0950f5a951637e0307cdcb4c672f298b8bc6606084015260808301949094523060a0808401919091528451808403909101815260c09092019093528051920191909120919050565b828054620005d590620008fa565b90600052602060002090601f016020900481019282620005f9576000855562000644565b82601f106200061457805160ff191683800117855562000644565b8280016001018555821562000644579182015b828111156200064457825182559160200191906001019062000627565b506200065292915062000656565b5090565b5b8082111562000652576000815560010162000657565b600082601f8301126200067f57600080fd5b81516001600160401b03808211156200069c576200069c62000937565b604051601f8301601f19908116603f01168101908282118183101715620006c757620006c762000937565b81604052838152602092508683858801011115620006e457600080fd5b600091505b83821015620007085785820183015181830184015290820190620006e9565b838211156200071a5760008385830101525b9695505050505050565b6000602082840312156200073757600080fd5b815162000744816200094d565b9392505050565b60008060008060008060c087890312156200076557600080fd5b86516001600160d01b0319811681146200077e57600080fd5b602088015190965062000791816200094d565b6040880151909550620007a4816200094d565b6060880151608089015191955093506001600160401b0380821115620007c957600080fd5b620007d78a838b016200066d565b935060a0890151915080821115620007ee57600080fd5b50620007fd89828a016200066d565b9150509295509295509295565b6000602082840312156200081d57600080fd5b815160ff811681146200074457600080fd5b600080835481600182811c9150808316806200084c57607f831692505b60208084108214156200086d57634e487b7160e01b86526022600452602486fd5b8180156200088457600181146200089657620008c5565b60ff19861689528489019650620008c5565b60008a81526020902060005b86811015620008bd5781548b820152908501908301620008a2565b505084890196505b509498975050505050505050565b60008219821115620008f557634e487b7160e01b600052601160045260246000fd5b500190565b600181811c908216806200090f57607f821691505b602082108114156200093157634e487b7160e01b600052602260045260246000fd5b50919050565b634e487b7160e01b600052604160045260246000fd5b6001600160a01b03811681146200096357600080fd5b50565b60805160a05160c05160e05160601c6101005160d01c60d01b6101205161236462000a21600039600081816102b4015281816107be0152818161093f015281816109e901528181610b0f01528181610c8e01528181610d5901528181610efa0152611245015260008181610470015281816114a20152611974015260006103d10152600081816105420152818161099401526110c70152600081816109c501526110fc0152600081816102ee015261103e01526123646000f3fe608060405234801561001057600080fd5b50600436106101ff5760003560e01c801561020457806306fdde031461022a578063095ea7b31461023f57806310ab9432146102625780631295bd081461027557806318160ddd1461028a5780631e9a69501461029c578063204f83f9146102af57806323b872dd146102d657806330adf81f146102e9578063313ce56714610310578063341f141d1461032f5780633644e5151461033757806340c10f191461033f57806344faded01461035257806354fd4d5014610365578063559742d91461036d5780635909c12f146102045780635ba5e9f0146103805780635cffe9de14610393578063613255ab146103a6578063687f0e4c146103b95780636f307dc3146103cc57806370a08231146104005780637dc0d1d0146104295780637ecebe001461044357806387b652071461046357806391ff394c1461046b57806395d89b41146104ab5780639dc29fac146104b3578063a4f0d7d0146104c6578063a9059cbb146104d5578063ad82110f146104e8578063ae93c1b5146104fb578063b64b80841461050e578063b688a36314610521578063c077b49214610534578063cd0d00961461053d578063d505accf14610564578063d9d98ce414610577578063dd62ed3e1461058a578063de02cde7146105c3578063effae353146105d6578063ffffffff146104c6575b600080fd5b61020c600081565b6040516001600160e01b031990911681526020015b60405180910390f35b6102326105e9565b60405161022191906120a5565b61025261024d366004611c76565b610677565b6040519015158152602001610221565b610252610270366004611dc0565b61068d565b610288610283366004611d80565b610699565b005b6001545b604051908152602001610221565b61028e6102aa366004611c76565b6107ba565b61028e7f000000000000000000000000000000000000000000000000000000000000000081565b6102526102e4366004611bbe565b61091b565b61028e7f000000000000000000000000000000000000000000000000000000000000000081565b60065461031d9060ff1681565b60405160ff9091168152602001610221565b61028e61093b565b61028e610990565b61028861034d366004611c76565b6109e7565b610288610360366004611dc0565b610a6d565b610232610aa6565b61028861037b366004611da5565b610ac1565b61020c61038e366004611da5565b610b00565b6102526103a1366004611e0f565b610b0b565b61028e6103b4366004611b61565b610c8a565b6102886103c7366004611dc0565b610cfc565b6103f37f000000000000000000000000000000000000000000000000000000000000000081565b6040516102219190612008565b61028e61040e366004611b61565b6001600160a01b031660009081526002602052604090205490565b600a546103f390600160301b90046001600160a01b031681565b61028e610451366004611b61565b60076020526000908152604090205481565b610288610d57565b6104927f000000000000000000000000000000000000000000000000000000000000000081565b6040516001600160d01b03199091168152602001610221565b610232610ded565b6102886104c1366004611c76565b610dfa565b61020c6001600160e01b031981565b6102526104e3366004611c76565b610e36565b6102886104f6366004611ca2565b610e43565b610288610509366004611ddc565b610ec5565b61028861051c366004611c76565b610ef8565b600b546103f3906001600160a01b031681565b61028e600c5481565b61028e7f000000000000000000000000000000000000000000000000000000000000000081565b610288610572366004611bff565b610fd2565b61028e610585366004611c76565b611241565b61028e610598366004611b85565b6001600160a01b03918216600090815260036020908152604080832093909416825291909152205490565b6102886105d1366004611dc0565b6112b9565b6102886105e4366004611ca2565b6112ec565b600480546105f690612261565b80601f016020809104026020016040519081016040528092919081815260200182805461062290612261565b801561066f5780601f106106445761010080835404028352916020019161066f565b820191906000526020600020905b81548152906001019060200180831161065257829003601f168201915b505050505081565b6000610684338484611361565b90505b92915050565b600061068483836113ca565b6106af6000356001600160e01b031916336113ca565b6106d45760405162461bcd60e51b81526004016106cb9061219a565b60405180910390fd5b81656f7261636c6560d01b141561070e57600a8054600160301b600160d01b031916600160301b6001600160a01b0384160217905561077e565b81633537b4b760e11b141561073d57600b80546001600160a01b0319166001600160a01b03831617905561077e565b60405162461bcd60e51b81526020600482015260166024820152752ab73932b1b7b3b734bd32b2103830b930b6b2ba32b960511b60448201526064016106cb565b817fd61f2f59686784f82db8673820acfa642f9709c800724e09f7ac0e1aaedf4af7826040516107ae9190612008565b60405180910390a25050565b60007f00000000000000000000000000000000000000000000000000000000000000004263ffffffff1610156108025760405162461bcd60e51b81526004016106cb9061213f565b600082156108105782610821565b306000908152600260205260409020545b905061082d33826113ff565b50610840610839611453565b8290611559565b600b549092506001600160a01b03166312e5ff778561085e85611577565b6040518363ffffffff1660e01b815260040161087b929190612061565b602060405180830381600087803b15801561089557600080fd5b505af11580156108a9573d6000803e3d6000fd5b505050506040513d601f19601f820116820180604052508101906108cd9190611ed2565b5060408051828152602081018490526001600160a01b0386169133917f5cdf07ad0fc222442720b108e3ed4c4640f0fadc2ab2253e66f259a0fea83480910160405180910390a35092915050565b600061092784836115c4565b5061093384848461166c565b949350505050565b60007f00000000000000000000000000000000000000000000000000000000000000004263ffffffff1610156109835760405162461bcd60e51b81526004016106cb9061213f565b61098b611453565b905090565b60007f000000000000000000000000000000000000000000000000000000000000000046146109c25761098b46611719565b507f000000000000000000000000000000000000000000000000000000000000000090565b7f00000000000000000000000000000000000000000000000000000000000000004263ffffffff1610610a2c5760405162461bcd60e51b81526004016106cb906120dc565b610a426000356001600160e01b031916336113ca565b610a5e5760405162461bcd60e51b81526004016106cb9061219a565b610a6882826117aa565b505050565b81610a80610a7a82611831565b336113ca565b610a9c5760405162461bcd60e51b81526004016106cb906120b8565b610a688383611853565b6040805180820190915260018152603160f81b602082015290565b80610ace610a7a82611831565b610aea5760405162461bcd60e51b81526004016106cb906120b8565b610afc826001600160e01b03196118c2565b5050565b600061068782611831565b60007f00000000000000000000000000000000000000000000000000000000000000004263ffffffff1610610b525760405162461bcd60e51b81526004016106cb906120dc565b6001600160a01b0384163014610b7a5760405162461bcd60e51b81526004016106cb9061216c565b610b8485846117aa565b506040516323e30c8b60e01b81527f439148f0bbc682ca079e46d6e2c2f0c1e3b820f1a291b069d8882abf8cf18dd9906001600160a01b038716906323e30c8b90610bdc903390899089906000908a9060040161201c565b602060405180830381600087803b158015610bf657600080fd5b505af1158015610c0a573d6000803e3d6000fd5b505050506040513d601f19601f82011682018060405250810190610c2e9190611d67565b14610c745760405162461bcd60e51b81526020600482015260166024820152752737b716b1b7b6b83634b0b73a103137b93937bbb2b960511b60448201526064016106cb565b610c7e85846113ff565b50600195945050505050565b60007f00000000000000000000000000000000000000000000000000000000000000004263ffffffff1610610cd15760405162461bcd60e51b81526004016106cb906120dc565b6001600160a01b0382163014610ce8576000610687565b6001546106879060001961224a565b919050565b6001600160a01b0381163314610d4d5760405162461bcd60e51b81526020600482015260166024820152752932b737bab731b29037b7363c903337b91039b2b63360511b60448201526064016106cb565b610afc8282611853565b7f00000000000000000000000000000000000000000000000000000000000000004263ffffffff161015610d9d5760405162461bcd60e51b81526004016106cb9061213f565b600019600c5414610de25760405162461bcd60e51b815260206004820152600f60248201526e105b1c9958591e481b585d1d5c9959608a1b60448201526064016106cb565b610dea611941565b50565b600580546105f690612261565b610e106000356001600160e01b031916336113ca565b610e2c5760405162461bcd60e51b81526004016106cb9061219a565b610a6882826113ff565b600061068433848461166c565b60005b8251811015610a6857610e74610a7a848381518110610e6757610e676122cd565b6020026020010151611831565b610e905760405162461bcd60e51b81526004016106cb906120b8565b610eb3838281518110610ea557610ea56122cd565b602002602001015183611853565b80610ebd8161229c565b915050610e46565b81610ed2610a7a82611831565b610eee5760405162461bcd60e51b81526004016106cb906120b8565b610a6883836118c2565b7f00000000000000000000000000000000000000000000000000000000000000004263ffffffff1610610f3d5760405162461bcd60e51b81526004016106cb906120dc565b610f4782826117aa565b50600b546001600160a01b031663ceae3abd33610f6384611577565b6040518363ffffffff1660e01b8152600401610f80929190612061565b602060405180830381600087803b158015610f9a57600080fd5b505af1158015610fae573d6000803e3d6000fd5b505050506040513d601f19601f82011682018060405250810190610a689190611ed2565b428410156110225760405162461bcd60e51b815260206004820152601d60248201527f45524332305065726d69743a206578706972656420646561646c696e6500000060448201526064016106cb565b6001600160a01b038716600090815260076020526040812080547f0000000000000000000000000000000000000000000000000000000000000000918a918a918a91908661106f8361229c565b909155506040805160208101969096526001600160a01b0394851690860152929091166060840152608083015260a082015260c0810186905260e00160405160208183030381529060405280519060200120905060007f000000000000000000000000000000000000000000000000000000000000000046146110fa576110f546611719565b61111c565b7f00000000000000000000000000000000000000000000000000000000000000005b60405161190160f01b602082015260228101919091526042810183905260620160408051601f198184030181528282528051602091820120600080855291840180845281905260ff89169284019290925260608301879052608083018690529092509060019060a0016020604051602081039080840390855afa1580156111a7573d6000803e3d6000fd5b5050604051601f1901519150506001600160a01b038116158015906111dd5750896001600160a01b0316816001600160a01b0316145b6112295760405162461bcd60e51b815260206004820152601e60248201527f45524332305065726d69743a20696e76616c6964207369676e6174757265000060448201526064016106cb565b6112348a8a8a611361565b5050505050505050505050565b60007f00000000000000000000000000000000000000000000000000000000000000004263ffffffff16106112885760405162461bcd60e51b81526004016106cb906120dc565b6001600160a01b03831630146112b05760405162461bcd60e51b81526004016106cb9061216c565b50600092915050565b816112c6610a7a82611831565b6112e25760405162461bcd60e51b81526004016106cb906120b8565b610a688383611a2e565b60005b8251811015610a6857611310610a7a848381518110610e6757610e676122cd565b61132c5760405162461bcd60e51b81526004016106cb906120b8565b61134f838281518110611341576113416122cd565b602002602001015183611a2e565b806113598161229c565b9150506112ef565b6001600160a01b03838116600081815260036020908152604080832094871680845294825280832086905551858152919392917f8c5be1e5ebec7d5bd14f71427d1e84f3dd0314c0f7b2291e5b200ac8c7c3b92591015b60405180910390a35060019392505050565b6001600160e01b031982166000908152602081815260408083206001600160a01b038516845290915290205460ff1692915050565b30600090815260026020526040812054828110611428576114203084611a9f565b915050610687565b801561143a576114383082611a9f565b505b611446848285036115c4565b5061142084828503611a9f565b6000600019600c54141561146f57611469611941565b50611539565b600a546008546040516308c5f34560e31b8152600092600160301b90046001600160a01b03169163462f9a28916114cc917f0000000000000000000000000000000000000000000000000000000000000000918690600401612083565b6040805180830381600087803b1580156114e557600080fd5b505af11580156114f9573d6000803e3d6000fd5b505050506040513d601f19601f8201168201806040525081019061151d9190611efb565b509050611535600c5482611b1f90919063ffffffff16565b9150505b670de0b6b3a76400008110156115565750670de0b6b3a764000090565b90565b6000611565828461222b565b670de0b6b3a764000090049392505050565b60006001600160801b038211156115c05760405162461bcd60e51b815260206004820152600d60248201526c43617374206f766572666c6f7760981b60448201526064016106cb565b5090565b60006001600160a01b0383163314611663576001600160a01b0383166000908152600360209081526040808320338452909152902054600019811461166157828110156116525760405162461bcd60e51b815260206004820152601c60248201527b115490cc8c0e88125b9cdd59999a58da595b9d08185c1c1c9bdd985b60221b60448201526064016106cb565b61165f8433858403611361565b505b505b50600192915050565b6001600160a01b0383166000908152600260205260408120548211156116a45760405162461bcd60e51b81526004016106cb9061210a565b6001600160a01b0380851660009081526002602052604080822080548690039055918516815220546116d79083906121f1565b6001600160a01b03808516600081815260026020526040908190209390935591519086169060008051602061230f833981519152906113b89086815260200190565b60007f8b73c3c69bb8fe3d512ecc4cf759cc79239f7b179b0ffacaa9a75d522b39400f600460405161174b9190611f6c565b604051809103902061175b610aa6565b80516020918201206040805192830194909452928101919091526060810191909152608081018390523060a082015260c001604051602081830303815290604052805190602001209050919050565b6001600160a01b0382166000908152600260205260408120546117ce9083906121f1565b6001600160a01b0384166000908152600260205260409020556001546117f59083906121f1565b6001556040518281526001600160a01b0384169060009060008051602061230f833981519152906020015b60405180910390a350600192915050565b6001600160e01b03191660009081526020819052604090206001015460e01b90565b61185d82826113ca565b15610afc576001600160e01b031982166000818152602081815260408083206001600160a01b0386168085529252808320805460ff1916905551339391927f4ddc7b757e7bdd7254a9cd39452d307a52761bc824625c6a33104a075d8099e691a45050565b6001600160e01b031981166118d683611831565b6001600160e01b03191614610afc576001600160e01b0319828116600081815260208190526040808220600101805463ffffffff191660e087901c17905551928416927fd348e2220a50b4500ec353f6e802d2f14dd1b5d6786148fd1bbcc570bf92d4739190a35050565b600a546008546040516308c5f34560e31b8152600092600160301b90046001600160a01b03169163462f9a289161199e917f0000000000000000000000000000000000000000000000000000000000000000918690600401612083565b6040805180830381600087803b1580156119b757600080fd5b505af11580156119cb573d6000803e3d6000fd5b505050506040513d601f19601f820116820180604052508101906119ef9190611efb565b50600c8190556040518181529091507f8be75db1b82d3c69cbae9639f0c64031bc1ec21b06cf1fd56c9b24034497f9ff9060200160405180910390a190565b611a3882826113ca565b610afc576001600160e01b031982166000818152602081815260408083206001600160a01b0386168085529252808320805460ff1916600117905551339391927fe6231789d19137da31d0550f4ba9ee379020a8cfb64cb79bf1790c996d2e616591a45050565b6001600160a01b038216600090815260026020526040812054821115611ad75760405162461bcd60e51b81526004016106cb9061210a565b6001600160a01b0383166000818152600260209081526040808320805487900390556001805487900390555185815291929160008051602061230f8339815191529101611820565b600081611b3484670de0b6b3a764000061222b565b6106849190612209565b8035610cf7816122f9565b80356001600160e01b031981168114610cf757600080fd5b600060208284031215611b7357600080fd5b8135611b7e816122f9565b9392505050565b60008060408385031215611b9857600080fd5b8235611ba3816122f9565b91506020830135611bb3816122f9565b809150509250929050565b600080600060608486031215611bd357600080fd5b8335611bde816122f9565b92506020840135611bee816122f9565b929592945050506040919091013590565b600080600080600080600060e0888a031215611c1a57600080fd5b8735611c25816122f9565b96506020880135611c35816122f9565b95506040880135945060608801359350608088013560ff81168114611c5957600080fd5b9699959850939692959460a0840135945060c09093013592915050565b60008060408385031215611c8957600080fd5b8235611c94816122f9565b946020939093013593505050565b60008060408385031215611cb557600080fd5b82356001600160401b0380821115611ccc57600080fd5b818501915085601f830112611ce057600080fd5b8135602082821115611cf457611cf46122e3565b8160051b9250611d058184016121c1565b8281528181019085830185870184018b1015611d2057600080fd5b600096505b84871015611d4a57611d3681611b49565b835260019690960195918301918301611d25565b509650611d5a9050878201611b3e565b9450505050509250929050565b600060208284031215611d7957600080fd5b5051919050565b60008060408385031215611d9357600080fd5b823591506020830135611bb3816122f9565b600060208284031215611db757600080fd5b61068482611b49565b60008060408385031215611dd357600080fd5b611ba383611b49565b60008060408385031215611def57600080fd5b611df883611b49565b9150611e0660208401611b49565b90509250929050565b60008060008060808587031215611e2557600080fd5b8435611e30816122f9565b9350602085810135611e41816122f9565b93506040860135925060608601356001600160401b0380821115611e6457600080fd5b818801915088601f830112611e7857600080fd5b813581811115611e8a57611e8a6122e3565b611e9c601f8201601f191685016121c1565b91508082528984828501011115611eb257600080fd5b808484018584013760008482840101525080935050505092959194509250565b600060208284031215611ee457600080fd5b81516001600160801b0381168114611b7e57600080fd5b60008060408385031215611f0e57600080fd5b505080516020909101519092909150565b6000815180845260005b81811015611f4557602081850181015186830182015201611f29565b81811115611f57576000602083870101525b50601f01601f19169290920160200192915050565b600080835481600182811c915080831680611f8857607f831692505b6020808410821415611fa857634e487b7160e01b86526022600452602486fd5b818015611fbc5760018114611fcd57611ffa565b60ff19861689528489019650611ffa565b60008a81526020902060005b86811015611ff25781548b820152908501908301611fd9565b505084890196505b509498975050505050505050565b6001600160a01b0391909116815260200190565b6001600160a01b03868116825285166020820152604081018490526060810183905260a06080820181905260009061205690830184611f1f565b979650505050505050565b6001600160a01b039290921682526001600160801b0316602082015260400190565b6001600160d01b03199390931683526020830191909152604082015260600190565b6020815260006106846020830184611f1f565b6020808252600a908201526927b7363c9030b236b4b760b11b604082015260600190565b6020808252601490820152734f6e6c79206265666f7265206d6174757269747960601b604082015260600190565b6020808252601b908201527a45524332303a20496e73756666696369656e742062616c616e636560281b604082015260600190565b6020808252601390820152724f6e6c79206166746572206d6174757269747960681b604082015260600190565b602080825260149082015273556e737570706f727465642063757272656e637960601b604082015260600190565b6020808252600d908201526c1058d8d95cdcc819195b9a5959609a1b604082015260600190565b604051601f8201601f191681016001600160401b03811182821017156121e9576121e96122e3565b604052919050565b60008219821115612204576122046122b7565b500190565b60008261222657634e487b7160e01b600052601260045260246000fd5b500490565b6000816000190483118215151615612245576122456122b7565b500290565b60008282101561225c5761225c6122b7565b500390565b600181811c9082168061227557607f821691505b6020821081141561229657634e487b7160e01b600052602260045260246000fd5b50919050565b60006000198214156122b0576122b06122b7565b5060010190565b634e487b7160e01b600052601160045260246000fd5b634e487b7160e01b600052603260045260246000fd5b634e487b7160e01b600052604160045260246000fd5b6001600160a01b0381168114610dea57600080fdfeddf252ad1be2c89b69c2b068fc378daa952ba7f163c4a11628f55a4df523b3efa2646970667358221220d7454bf2f398f0dd37cbcfe4b26d3d09757f577c0e818e6dc7baf45ede97b55b64736f6c63430008060033a26469706673582212202b321e6efa1b86e28cc21188f15bffdf8854fba88f66ebfc28eb4c76f673a37f64736f6c63430008060033",
  "libraries": {
    "SafeERC20Namer": "0x608746FD624216250BF7C41153B1113f6FdE5423"
  },
  "devdoc": {
    "details": "The FYTokenFactory creates new FYToken instances.",
    "kind": "dev",
    "methods": {
      "createFYToken(bytes6,address,address,uint32,string,string)": {
        "details": "Deploys a new fyToken.",
        "returns": {
          "_0": "fyToken The fyToken address."
        }
      },
      "getRoleAdmin(bytes4)": {
        "details": "Returns the admin role that controls `role`. See {grantRole} and {revokeRole}. To change a role's admin, use {_setRoleAdmin}."
      },
      "grantRole(bytes4,address)": {
        "details": "Grants `role` to `account`. If `account` had not been already granted `role`, emits a {RoleGranted} event. Requirements: - the caller must have ``role``'s admin role."
      },
      "grantRoles(bytes4[],address)": {
        "details": "Grants all of `role` in `roles` to `account`. If `account` had not been already granted `role`, emits a {RoleGranted} event. Requirements: - For each `role` in `roles`, the caller must have ``role``'s admin role."
      },
      "hasRole(bytes4,address)": {
        "details": "Returns `true` if `account` has been granted `role`."
      },
      "lockRole(bytes4)": {
        "details": "Sets LOCK as ``role``'s admin role. LOCK has no members, so this disables admin management of ``role``. Emits a {RoleAdminChanged} event. Requirements: - the caller must have ``role``'s admin role."
      },
      "renounceRole(bytes4,address)": {
        "details": "Revokes `role` from the calling account. Roles are often managed via {grantRole} and {revokeRole}: this function's purpose is to provide a mechanism for accounts to lose their privileges if they are compromised (such as when a trusted device is misplaced). If the calling account had been granted `role`, emits a {RoleRevoked} event. Requirements: - the caller must be `account`."
      },
      "revokeRole(bytes4,address)": {
        "details": "Revokes `role` from `account`. If `account` had been granted `role`, emits a {RoleRevoked} event. Requirements: - the caller must have ``role``'s admin role."
      },
      "revokeRoles(bytes4[],address)": {
        "details": "Revokes all of `role` in `roles` from `account`. If `account` had been granted `role`, emits a {RoleRevoked} event. Requirements: - For each `role` in `roles`, the caller must have ``role``'s admin role."
      },
      "setRoleAdmin(bytes4,bytes4)": {
        "details": "Sets `adminRole` as ``role``'s admin role. If ``role``'s admin role is not `adminRole` emits a {RoleAdminChanged} event. Requirements: - the caller must have ``role``'s admin role."
      }
    },
    "version": 1
  },
  "userdoc": {
    "kind": "user",
    "methods": {},
    "version": 1
  },
  "storageLayout": {
    "storage": [
      {
        "astId": 15,
        "contract": "contracts/vault/FYTokenFactory.sol:FYTokenFactory",
        "label": "_roles",
        "offset": 0,
        "slot": "0",
        "type": "t_mapping(t_bytes4,t_struct(RoleData)10_storage)"
      }
    ],
    "types": {
      "t_address": {
        "encoding": "inplace",
        "label": "address",
        "numberOfBytes": "20"
      },
      "t_bool": {
        "encoding": "inplace",
        "label": "bool",
        "numberOfBytes": "1"
      },
      "t_bytes4": {
        "encoding": "inplace",
        "label": "bytes4",
        "numberOfBytes": "4"
      },
      "t_mapping(t_address,t_bool)": {
        "encoding": "mapping",
        "key": "t_address",
        "label": "mapping(address => bool)",
        "numberOfBytes": "32",
        "value": "t_bool"
      },
      "t_mapping(t_bytes4,t_struct(RoleData)10_storage)": {
        "encoding": "mapping",
        "key": "t_bytes4",
        "label": "mapping(bytes4 => struct AccessControl.RoleData)",
        "numberOfBytes": "32",
        "value": "t_struct(RoleData)10_storage"
      },
      "t_struct(RoleData)10_storage": {
        "encoding": "inplace",
        "label": "struct AccessControl.RoleData",
        "members": [
          {
            "astId": 7,
            "contract": "contracts/vault/FYTokenFactory.sol:FYTokenFactory",
            "label": "members",
            "offset": 0,
            "slot": "0",
            "type": "t_mapping(t_address,t_bool)"
          },
          {
            "astId": 9,
            "contract": "contracts/vault/FYTokenFactory.sol:FYTokenFactory",
            "label": "adminRole",
            "offset": 0,
            "slot": "1",
            "type": "t_bytes4"
          }
        ],
        "numberOfBytes": "64"
      }
    }
  }
}