{
  "address": "0xF1B3d65Ba36b1f943Ba732a5786F374bC9D38B5b",
  "abi": [
    {
      "inputs": [
        {
          "internalType": "contract ICauldron",
          "name": "cauldron",
          "type": "address"
        },
        {
          "internalType": "contract IWETH9",
          "name": "weth",
          "type": "address"
        }
      ],
      "stateMutability": "nonpayable",
      "type": "constructor"
    },
    {
      "anonymous": false,
      "inputs": [
        {
          "indexed": false,
          "internalType": "uint256",
          "name": "fee",
          "type": "uint256"
        }
      ],
      "name": "FeeSet",
      "type": "event"
    },
    {
      "anonymous": false,
      "inputs": [
        {
          "indexed": true,
          "internalType": "address",
          "name": "integration",
          "type": "address"
        },
        {
          "indexed": true,
          "internalType": "bool",
          "name": "set",
          "type": "bool"
        }
      ],
      "name": "IntegrationAdded",
      "type": "event"
    },
    {
      "anonymous": false,
      "inputs": [
        {
          "indexed": true,
          "internalType": "bytes6",
          "name": "assetId",
          "type": "bytes6"
        },
        {
          "indexed": true,
          "internalType": "address",
          "name": "join",
          "type": "address"
        }
      ],
      "name": "JoinAdded",
      "type": "event"
    },
    {
      "anonymous": false,
      "inputs": [
        {
          "indexed": true,
          "internalType": "address",
          "name": "module",
          "type": "address"
        },
        {
          "indexed": true,
          "internalType": "bool",
          "name": "set",
          "type": "bool"
        }
      ],
      "name": "ModuleAdded",
      "type": "event"
    },
    {
      "anonymous": false,
      "inputs": [
        {
          "indexed": true,
          "internalType": "bytes6",
          "name": "seriesId",
          "type": "bytes6"
        },
        {
          "indexed": true,
          "internalType": "address",
          "name": "pool",
          "type": "address"
        }
      ],
      "name": "PoolAdded",
      "type": "event"
    },
    {
      "anonymous": false,
      "inputs": [
        {
          "indexed": true,
          "internalType": "bytes4",
          "name": "role",
          "type": "bytes4"
        },
        {
          "indexed": true,
          "internalType": "bytes4",
          "name": "newAdminRole",
          "type": "bytes4"
        }
      ],
      "name": "RoleAdminChanged",
      "type": "event"
    },
    {
      "anonymous": false,
      "inputs": [
        {
          "indexed": true,
          "internalType": "bytes4",
          "name": "role",
          "type": "bytes4"
        },
        {
          "indexed": true,
          "internalType": "address",
          "name": "account",
          "type": "address"
        },
        {
          "indexed": true,
          "internalType": "address",
          "name": "sender",
          "type": "address"
        }
      ],
      "name": "RoleGranted",
      "type": "event"
    },
    {
      "anonymous": false,
      "inputs": [
        {
          "indexed": true,
          "internalType": "bytes4",
          "name": "role",
          "type": "bytes4"
        },
        {
          "indexed": true,
          "internalType": "address",
          "name": "account",
          "type": "address"
        },
        {
          "indexed": true,
          "internalType": "address",
          "name": "sender",
          "type": "address"
        }
      ],
      "name": "RoleRevoked",
      "type": "event"
    },
    {
      "anonymous": false,
      "inputs": [
        {
          "indexed": true,
          "internalType": "address",
          "name": "token",
          "type": "address"
        },
        {
          "indexed": true,
          "internalType": "bool",
          "name": "set",
          "type": "bool"
        }
      ],
      "name": "TokenAdded",
      "type": "event"
    },
    {
      "inputs": [],
      "name": "LOCK",
      "outputs": [
        {
          "internalType": "bytes4",
          "name": "",
          "type": "bytes4"
        }
      ],
      "stateMutability": "view",
      "type": "function"
    },
    {
      "inputs": [],
      "name": "LOCK8605463013",
      "outputs": [
        {
          "internalType": "bytes4",
          "name": "",
          "type": "bytes4"
        }
      ],
      "stateMutability": "view",
      "type": "function"
    },
    {
      "inputs": [],
      "name": "ROOT",
      "outputs": [
        {
          "internalType": "bytes4",
          "name": "",
          "type": "bytes4"
        }
      ],
      "stateMutability": "view",
      "type": "function"
    },
    {
      "inputs": [],
      "name": "ROOT4146650865",
      "outputs": [
        {
          "internalType": "bytes4",
          "name": "",
          "type": "bytes4"
        }
      ],
      "stateMutability": "view",
      "type": "function"
    },
    {
      "inputs": [
        {
          "internalType": "address",
          "name": "integration",
          "type": "address"
        },
        {
          "internalType": "bool",
          "name": "set",
          "type": "bool"
        }
      ],
      "name": "addIntegration",
      "outputs": [],
      "stateMutability": "nonpayable",
      "type": "function"
    },
    {
      "inputs": [
        {
          "internalType": "bytes6",
          "name": "assetId",
          "type": "bytes6"
        },
        {
          "internalType": "contract IJoin",
          "name": "join",
          "type": "address"
        }
      ],
      "name": "addJoin",
      "outputs": [],
      "stateMutability": "nonpayable",
      "type": "function"
    },
    {
      "inputs": [
        {
          "internalType": "address",
          "name": "module",
          "type": "address"
        },
        {
          "internalType": "bool",
          "name": "set",
          "type": "bool"
        }
      ],
      "name": "addModule",
      "outputs": [],
      "stateMutability": "nonpayable",
      "type": "function"
    },
    {
      "inputs": [
        {
          "internalType": "bytes6",
          "name": "seriesId",
          "type": "bytes6"
        },
        {
          "internalType": "contract IPool",
          "name": "pool",
          "type": "address"
        }
      ],
      "name": "addPool",
      "outputs": [],
      "stateMutability": "nonpayable",
      "type": "function"
    },
    {
      "inputs": [
        {
          "internalType": "address",
          "name": "token",
          "type": "address"
        },
        {
          "internalType": "bool",
          "name": "set",
          "type": "bool"
        }
      ],
      "name": "addToken",
      "outputs": [],
      "stateMutability": "nonpayable",
      "type": "function"
    },
    {
      "inputs": [
        {
          "internalType": "bytes[]",
          "name": "calls",
          "type": "bytes[]"
        }
      ],
      "name": "batch",
      "outputs": [
        {
          "internalType": "bytes[]",
          "name": "results",
          "type": "bytes[]"
        }
      ],
      "stateMutability": "payable",
      "type": "function"
    },
    {
      "inputs": [],
      "name": "borrowingFee",
      "outputs": [
        {
          "internalType": "uint256",
          "name": "",
          "type": "uint256"
        }
      ],
      "stateMutability": "view",
      "type": "function"
    },
    {
      "inputs": [
        {
          "internalType": "bytes6",
          "name": "seriesId",
          "type": "bytes6"
        },
        {
          "internalType": "bytes6",
          "name": "ilkId",
          "type": "bytes6"
        },
        {
          "internalType": "uint8",
          "name": "salt",
          "type": "uint8"
        }
      ],
      "name": "build",
      "outputs": [
        {
          "internalType": "bytes12",
          "name": "",
          "type": "bytes12"
        },
        {
          "components": [
            {
              "internalType": "address",
              "name": "owner",
              "type": "address"
            },
            {
              "internalType": "bytes6",
              "name": "seriesId",
              "type": "bytes6"
            },
            {
              "internalType": "bytes6",
              "name": "ilkId",
              "type": "bytes6"
            }
          ],
          "internalType": "struct DataTypes.Vault",
          "name": "",
          "type": "tuple"
        }
      ],
      "stateMutability": "payable",
      "type": "function"
    },
    {
      "inputs": [],
      "name": "cauldron",
      "outputs": [
        {
          "internalType": "contract ICauldron",
          "name": "",
          "type": "address"
        }
      ],
      "stateMutability": "view",
      "type": "function"
    },
    {
      "inputs": [
        {
          "internalType": "bytes12",
          "name": "vaultId_",
          "type": "bytes12"
        },
        {
          "internalType": "address",
          "name": "to",
          "type": "address"
        },
        {
          "internalType": "int128",
          "name": "ink",
          "type": "int128"
        },
        {
          "internalType": "int128",
          "name": "art",
          "type": "int128"
        }
      ],
      "name": "close",
      "outputs": [
        {
          "internalType": "uint128",
          "name": "base",
          "type": "uint128"
        }
      ],
      "stateMutability": "payable",
      "type": "function"
    },
    {
      "inputs": [
        {
          "internalType": "bytes12",
          "name": "vaultId_",
          "type": "bytes12"
        },
        {
          "internalType": "address",
          "name": "to",
          "type": "address"
        }
      ],
      "name": "closeFromLadle",
      "outputs": [
        {
          "internalType": "uint256",
          "name": "repaid",
          "type": "uint256"
        }
      ],
      "stateMutability": "payable",
      "type": "function"
    },
    {
      "inputs": [
        {
          "internalType": "bytes12",
          "name": "vaultId_",
          "type": "bytes12"
        }
      ],
      "name": "destroy",
      "outputs": [],
      "stateMutability": "payable",
      "type": "function"
    },
    {
      "inputs": [
        {
          "internalType": "address payable",
          "name": "to",
          "type": "address"
        }
      ],
      "name": "exitEther",
      "outputs": [
        {
          "internalType": "uint256",
          "name": "ethTransferred",
          "type": "uint256"
        }
      ],
      "stateMutability": "payable",
      "type": "function"
    },
    {
      "inputs": [
        {
          "internalType": "contract DaiAbstract",
          "name": "token",
          "type": "address"
        },
        {
          "internalType": "address",
          "name": "spender",
          "type": "address"
        },
        {
          "internalType": "uint256",
          "name": "nonce",
          "type": "uint256"
        },
        {
          "internalType": "uint256",
          "name": "deadline",
          "type": "uint256"
        },
        {
          "internalType": "bool",
          "name": "allowed",
          "type": "bool"
        },
        {
          "internalType": "uint8",
          "name": "v",
          "type": "uint8"
        },
        {
          "internalType": "bytes32",
          "name": "r",
          "type": "bytes32"
        },
        {
          "internalType": "bytes32",
          "name": "s",
          "type": "bytes32"
        }
      ],
      "name": "forwardDaiPermit",
      "outputs": [],
      "stateMutability": "payable",
      "type": "function"
    },
    {
      "inputs": [
        {
          "internalType": "contract IERC2612",
          "name": "token",
          "type": "address"
        },
        {
          "internalType": "address",
          "name": "spender",
          "type": "address"
        },
        {
          "internalType": "uint256",
          "name": "amount",
          "type": "uint256"
        },
        {
          "internalType": "uint256",
          "name": "deadline",
          "type": "uint256"
        },
        {
          "internalType": "uint8",
          "name": "v",
          "type": "uint8"
        },
        {
          "internalType": "bytes32",
          "name": "r",
          "type": "bytes32"
        },
        {
          "internalType": "bytes32",
          "name": "s",
          "type": "bytes32"
        }
      ],
      "name": "forwardPermit",
      "outputs": [],
      "stateMutability": "payable",
      "type": "function"
    },
    {
      "inputs": [
        {
          "internalType": "bytes4",
          "name": "role",
          "type": "bytes4"
        }
      ],
      "name": "getRoleAdmin",
      "outputs": [
        {
          "internalType": "bytes4",
          "name": "",
          "type": "bytes4"
        }
      ],
      "stateMutability": "view",
      "type": "function"
    },
    {
      "inputs": [
        {
          "internalType": "bytes12",
          "name": "vaultId_",
          "type": "bytes12"
        },
        {
          "internalType": "address",
          "name": "receiver",
          "type": "address"
        }
      ],
      "name": "give",
      "outputs": [
        {
          "components": [
            {
              "internalType": "address",
              "name": "owner",
              "type": "address"
            },
            {
              "internalType": "bytes6",
              "name": "seriesId",
              "type": "bytes6"
            },
            {
              "internalType": "bytes6",
              "name": "ilkId",
              "type": "bytes6"
            }
          ],
          "internalType": "struct DataTypes.Vault",
          "name": "vault",
          "type": "tuple"
        }
      ],
      "stateMutability": "payable",
      "type": "function"
    },
    {
      "inputs": [
        {
          "internalType": "bytes4",
          "name": "role",
          "type": "bytes4"
        },
        {
          "internalType": "address",
          "name": "account",
          "type": "address"
        }
      ],
      "name": "grantRole",
      "outputs": [],
      "stateMutability": "nonpayable",
      "type": "function"
    },
    {
      "inputs": [
        {
          "internalType": "bytes4[]",
          "name": "roles",
          "type": "bytes4[]"
        },
        {
          "internalType": "address",
          "name": "account",
          "type": "address"
        }
      ],
      "name": "grantRoles",
      "outputs": [],
      "stateMutability": "nonpayable",
      "type": "function"
    },
    {
      "inputs": [
        {
          "internalType": "bytes4",
          "name": "role",
          "type": "bytes4"
        },
        {
          "internalType": "address",
          "name": "account",
          "type": "address"
        }
      ],
      "name": "hasRole",
      "outputs": [
        {
          "internalType": "bool",
          "name": "",
          "type": "bool"
        }
      ],
      "stateMutability": "view",
      "type": "function"
    },
    {
      "inputs": [
        {
          "internalType": "address",
          "name": "",
          "type": "address"
        }
      ],
      "name": "integrations",
      "outputs": [
        {
          "internalType": "bool",
          "name": "",
          "type": "bool"
        }
      ],
      "stateMutability": "view",
      "type": "function"
    },
    {
      "inputs": [
        {
          "internalType": "bytes6",
          "name": "etherId",
          "type": "bytes6"
        }
      ],
      "name": "joinEther",
      "outputs": [
        {
          "internalType": "uint256",
          "name": "ethTransferred",
          "type": "uint256"
        }
      ],
      "stateMutability": "payable",
      "type": "function"
    },
    {
      "inputs": [
        {
          "internalType": "bytes6",
          "name": "",
          "type": "bytes6"
        }
      ],
      "name": "joins",
      "outputs": [
        {
          "internalType": "contract IJoin",
          "name": "",
          "type": "address"
        }
      ],
      "stateMutability": "view",
      "type": "function"
    },
    {
      "inputs": [
        {
          "internalType": "bytes4",
          "name": "role",
          "type": "bytes4"
        }
      ],
      "name": "lockRole",
      "outputs": [],
      "stateMutability": "nonpayable",
      "type": "function"
    },
    {
      "inputs": [
        {
          "internalType": "address",
          "name": "module",
          "type": "address"
        },
        {
          "internalType": "bytes",
          "name": "data",
          "type": "bytes"
        }
      ],
      "name": "moduleCall",
      "outputs": [
        {
          "internalType": "bytes",
          "name": "result",
          "type": "bytes"
        }
      ],
      "stateMutability": "payable",
      "type": "function"
    },
    {
      "inputs": [
        {
          "internalType": "address",
          "name": "",
          "type": "address"
        }
      ],
      "name": "modules",
      "outputs": [
        {
          "internalType": "bool",
          "name": "",
          "type": "bool"
        }
      ],
      "stateMutability": "view",
      "type": "function"
    },
    {
      "inputs": [
        {
          "internalType": "bytes6",
          "name": "",
          "type": "bytes6"
        }
      ],
      "name": "pools",
      "outputs": [
        {
          "internalType": "contract IPool",
          "name": "",
          "type": "address"
        }
      ],
      "stateMutability": "view",
      "type": "function"
    },
    {
      "inputs": [
        {
          "internalType": "bytes12",
          "name": "vaultId_",
          "type": "bytes12"
        },
        {
          "internalType": "address",
          "name": "to",
          "type": "address"
        },
        {
          "internalType": "int128",
          "name": "ink",
          "type": "int128"
        },
        {
          "internalType": "int128",
          "name": "art",
          "type": "int128"
        }
      ],
      "name": "pour",
      "outputs": [],
      "stateMutability": "payable",
      "type": "function"
    },
    {
      "inputs": [
        {
          "internalType": "bytes6",
          "name": "seriesId",
          "type": "bytes6"
        },
        {
          "internalType": "address",
          "name": "to",
          "type": "address"
        },
        {
          "internalType": "uint256",
          "name": "wad",
          "type": "uint256"
        }
      ],
      "name": "redeem",
      "outputs": [
        {
          "internalType": "uint256",
          "name": "",
          "type": "uint256"
        }
      ],
      "stateMutability": "payable",
      "type": "function"
    },
    {
      "inputs": [
        {
          "internalType": "bytes4",
          "name": "role",
          "type": "bytes4"
        },
        {
          "internalType": "address",
          "name": "account",
          "type": "address"
        }
      ],
      "name": "renounceRole",
      "outputs": [],
      "stateMutability": "nonpayable",
      "type": "function"
    },
    {
      "inputs": [
        {
          "internalType": "bytes12",
          "name": "vaultId_",
          "type": "bytes12"
        },
        {
          "internalType": "address",
          "name": "to",
          "type": "address"
        },
        {
          "internalType": "int128",
          "name": "ink",
          "type": "int128"
        },
        {
          "internalType": "uint128",
          "name": "min",
          "type": "uint128"
        }
      ],
      "name": "repay",
      "outputs": [
        {
          "internalType": "uint128",
          "name": "art",
          "type": "uint128"
        }
      ],
      "stateMutability": "payable",
      "type": "function"
    },
    {
      "inputs": [
        {
          "internalType": "bytes12",
          "name": "vaultId_",
          "type": "bytes12"
        },
        {
          "internalType": "address",
          "name": "to",
          "type": "address"
        }
      ],
      "name": "repayFromLadle",
      "outputs": [
        {
          "internalType": "uint256",
          "name": "repaid",
          "type": "uint256"
        }
      ],
      "stateMutability": "payable",
      "type": "function"
    },
    {
      "inputs": [
        {
          "internalType": "bytes12",
          "name": "vaultId_",
          "type": "bytes12"
        },
        {
          "internalType": "address",
          "name": "to",
          "type": "address"
        },
        {
          "internalType": "int128",
          "name": "ink",
          "type": "int128"
        },
        {
          "internalType": "uint128",
          "name": "max",
          "type": "uint128"
        }
      ],
      "name": "repayVault",
      "outputs": [
        {
          "internalType": "uint128",
          "name": "base",
          "type": "uint128"
        }
      ],
      "stateMutability": "payable",
      "type": "function"
    },
    {
      "inputs": [
        {
          "internalType": "contract IERC20",
          "name": "token",
          "type": "address"
        },
        {
          "internalType": "address",
          "name": "to",
          "type": "address"
        }
      ],
      "name": "retrieve",
      "outputs": [
        {
          "internalType": "uint256",
          "name": "amount",
          "type": "uint256"
        }
      ],
      "stateMutability": "payable",
      "type": "function"
    },
    {
      "inputs": [
        {
          "internalType": "bytes4",
          "name": "role",
          "type": "bytes4"
        },
        {
          "internalType": "address",
          "name": "account",
          "type": "address"
        }
      ],
      "name": "revokeRole",
      "outputs": [],
      "stateMutability": "nonpayable",
      "type": "function"
    },
    {
      "inputs": [
        {
          "internalType": "bytes4[]",
          "name": "roles",
          "type": "bytes4[]"
        },
        {
          "internalType": "address",
          "name": "account",
          "type": "address"
        }
      ],
      "name": "revokeRoles",
      "outputs": [],
      "stateMutability": "nonpayable",
      "type": "function"
    },
    {
      "inputs": [
        {
          "internalType": "bytes12",
          "name": "vaultId_",
          "type": "bytes12"
        },
        {
          "internalType": "bytes6",
          "name": "newSeriesId",
          "type": "bytes6"
        },
        {
          "internalType": "uint8",
          "name": "loan",
          "type": "uint8"
        },
        {
          "internalType": "uint128",
          "name": "max",
          "type": "uint128"
        }
      ],
      "name": "roll",
      "outputs": [
        {
          "components": [
            {
              "internalType": "address",
              "name": "owner",
              "type": "address"
            },
            {
              "internalType": "bytes6",
              "name": "seriesId",
              "type": "bytes6"
            },
            {
              "internalType": "bytes6",
              "name": "ilkId",
              "type": "bytes6"
            }
          ],
          "internalType": "struct DataTypes.Vault",
          "name": "vault",
          "type": "tuple"
        },
        {
          "internalType": "uint128",
          "name": "newDebt",
          "type": "uint128"
        }
      ],
      "stateMutability": "payable",
      "type": "function"
    },
    {
      "inputs": [
        {
          "internalType": "address",
          "name": "integration",
          "type": "address"
        },
        {
          "internalType": "bytes",
          "name": "data",
          "type": "bytes"
        }
      ],
      "name": "route",
      "outputs": [
        {
          "internalType": "bytes",
          "name": "result",
          "type": "bytes"
        }
      ],
      "stateMutability": "payable",
      "type": "function"
    },
    {
      "inputs": [],
      "name": "router",
      "outputs": [
        {
          "internalType": "contract Router",
          "name": "",
          "type": "address"
        }
      ],
      "stateMutability": "view",
      "type": "function"
    },
    {
      "inputs": [
        {
          "internalType": "bytes12",
          "name": "vaultId_",
          "type": "bytes12"
        },
        {
          "internalType": "address",
          "name": "to",
          "type": "address"
        },
        {
          "internalType": "uint128",
          "name": "ink",
          "type": "uint128"
        },
        {
          "internalType": "uint128",
          "name": "base",
          "type": "uint128"
        },
        {
          "internalType": "uint128",
          "name": "max",
          "type": "uint128"
        }
      ],
      "name": "serve",
      "outputs": [
        {
          "internalType": "uint128",
          "name": "art",
          "type": "uint128"
        }
      ],
      "stateMutability": "payable",
      "type": "function"
    },
    {
      "inputs": [
        {
          "internalType": "uint256",
          "name": "fee",
          "type": "uint256"
        }
      ],
      "name": "setFee",
      "outputs": [],
      "stateMutability": "nonpayable",
      "type": "function"
    },
    {
      "inputs": [
        {
          "internalType": "bytes4",
          "name": "role",
          "type": "bytes4"
        },
        {
          "internalType": "bytes4",
          "name": "adminRole",
          "type": "bytes4"
        }
      ],
      "name": "setRoleAdmin",
      "outputs": [],
      "stateMutability": "nonpayable",
      "type": "function"
    },
    {
      "inputs": [
        {
          "internalType": "bytes12",
          "name": "from",
          "type": "bytes12"
        },
        {
          "internalType": "bytes12",
          "name": "to",
          "type": "bytes12"
        },
        {
          "internalType": "uint128",
          "name": "ink",
          "type": "uint128"
        },
        {
          "internalType": "uint128",
          "name": "art",
          "type": "uint128"
        }
      ],
      "name": "stir",
      "outputs": [],
      "stateMutability": "payable",
      "type": "function"
    },
    {
      "inputs": [
        {
          "internalType": "address",
          "name": "",
          "type": "address"
        }
      ],
      "name": "tokens",
      "outputs": [
        {
          "internalType": "bool",
          "name": "",
          "type": "bool"
        }
      ],
      "stateMutability": "view",
      "type": "function"
    },
    {
      "inputs": [
        {
          "internalType": "contract IERC20",
          "name": "token",
          "type": "address"
        },
        {
          "internalType": "address",
          "name": "receiver",
          "type": "address"
        },
        {
          "internalType": "uint128",
          "name": "wad",
          "type": "uint128"
        }
      ],
      "name": "transfer",
      "outputs": [],
      "stateMutability": "payable",
      "type": "function"
    },
    {
      "inputs": [
        {
          "internalType": "bytes12",
          "name": "vaultId_",
          "type": "bytes12"
        },
        {
          "internalType": "bytes6",
          "name": "seriesId",
          "type": "bytes6"
        },
        {
          "internalType": "bytes6",
          "name": "ilkId",
          "type": "bytes6"
        }
      ],
      "name": "tweak",
      "outputs": [
        {
          "components": [
            {
              "internalType": "address",
              "name": "owner",
              "type": "address"
            },
            {
              "internalType": "bytes6",
              "name": "seriesId",
              "type": "bytes6"
            },
            {
              "internalType": "bytes6",
              "name": "ilkId",
              "type": "bytes6"
            }
          ],
          "internalType": "struct DataTypes.Vault",
          "name": "vault",
          "type": "tuple"
        }
      ],
      "stateMutability": "payable",
      "type": "function"
    },
    {
      "inputs": [],
      "name": "weth",
      "outputs": [
        {
          "internalType": "contract IWETH9",
          "name": "",
          "type": "address"
        }
      ],
      "stateMutability": "view",
      "type": "function"
    },
    {
      "stateMutability": "payable",
      "type": "receive"
    }
  ],
  "transactionHash": "0xa601fbee66c29352f11bb4eb8d1f2b0d49425641624f9a98cd0659bb47e8a98d",
  "args": [
    "0xE20Bd49144E4289dc006E00FFA55AfB0686CAa97",
    "0x138485378833d308E6B1F7B882897f1cE182273a"
  ],
  "solcInputHash": "54e6a59815d5a2c08b6526a1783379e5",
  "bytecode": "0x60e06040523480156200001157600080fd5b5060405162005de438038062005de4833981016040819052620000349162000202565b6001600160601b0319606083901b16608052604051829082906200005890620001f4565b604051809103906000f08015801562000075573d6000803e3d6000fd5b506001600160601b0319606091821b811660a05291901b1660c052506200009e600033620000ba565b620000b26001600160e01b03198062000156565b50506200025a565b6001600160e01b0319821660009081526007602090815260408083206001600160a01b038516845290915290205460ff1662000152576001600160e01b0319821660008181526007602090815260408083206001600160a01b0386168085529252808320805460ff1916600117905551339391927fe6231789d19137da31d0550f4ba9ee379020a8cfb64cb79bf1790c996d2e616591a45b5050565b6001600160e01b0319811662000188836001600160e01b03191660009081526007602052604090206001015460e01b90565b6001600160e01b0319161462000152576001600160e01b0319828116600081815260076020526040808220600101805463ffffffff191660e087901c17905551928416927fd348e2220a50b4500ec353f6e802d2f14dd1b5d6786148fd1bbcc570bf92d4739190a35050565b610499806200594b83390190565b600080604083850312156200021657600080fd5b8251620002238162000241565b6020840151909250620002368162000241565b809150509250929050565b6001600160a01b03811681146200025757600080fd5b50565b60805160601c60a05160601c60c05160601c6155df6200036c600039600081816102530152818161041e01528181610faa0152818161104801528181611bb00152611c2e01526000818161089001526133c501526000818161063101528181610ad401528181610bd201528181610cf301528181610db701528181611437015281816114fc015281816117f301528181611f570152818161200001528181612301015281816123ac015281816124fa0152818161272c0152818161281601528181612b9401528181612d9001528181612e2f01528181612f7101528181613048015281816130ee0152818161383c0152818161393401528181613b4f01528181614285015261437501526155df6000f3fe6080604052600436106102435760003560e01c80156102c557806305e64794146102f85780630a28e95d1461033857806310ab9432146103585780631e897afb146103785780632458028a1461039857806324bd54b4146103ab5780632bcc69a0146103cb57806333e6035a146103ec5780633fc8cef31461040c578063441c70f71461044d57806344faded01461046057806349c29d2b14610480578063543645ae146104a0578063559742d9146104b357806356e596a8146104d35780635909c12f146102c55780635ba5e9f0146104e657806360e0b6361461050657806366c5b3121461053c578063687f0e4c1461054f57806369fe0e2d1461056f5780636c208f101461058f5780636d4756d7146105a257806371e70168146105c3578063782006b6146105d6578063798a828b146105e95780638377be501461060957806397ff6a041461061f57806399d4294014610653578063a4f0d7d014610666578063a8ee49fe14610682578063ad82110f146106b2578063adf8d478146106d2578063ae93c1b5146106e5578063b9af392014610705578063bf1025f314610718578063c03981981461074e578063c13b1bd314610761578063c4d61ff114610782578063c5dd197b14610795578063c6f33412146107a8578063de02cde7146107c8578063e4860339146107e8578063e817b38514610818578063effae3531461082b578063f06c2dfc1461084b578063f6252c711461085e578063f887ea401461087e578063f888f220146108b2578063ffffffff1461066657600080fd5b366102c057336001600160a01b037f000000000000000000000000000000000000000000000000000000000000000016146102be5760405162461bcd60e51b815260206004820152601660248201527509edcd8f240e4cac6cad2ecca40cce4deda40ae8aa8960531b60448201526064015b60405180910390fd5b005b600080fd5b3480156102d157600080fd5b506102da600081565b6040516001600160e01b031990911681526020015b60405180910390f35b34801561030457600080fd5b506103286103133660046146f8565b60056020526000908152604090205460ff1681565b60405190151581526020016102ef565b34801561034457600080fd5b506102be610353366004614732565b6108d2565b34801561036457600080fd5b50610328610373366004614b87565b610958565b61038b6103863660046148b4565b61096d565b6040516102ef91906150ca565b6102be6103a6366004614aa9565b610ab4565b6103be6103b93660046149e2565b610d7f565b6040516102ef919061529d565b6103de6103d93660046146f8565b610f90565b6040519081526020016102ef565b3480156103f857600080fd5b506102be610407366004614c7b565b6110c5565b34801561041857600080fd5b506104407f000000000000000000000000000000000000000000000000000000000000000081565b6040516102ef9190615011565b6103be61045b36600461498c565b6113ce565b34801561046c57600080fd5b506102be61047b366004614b87565b611769565b34801561048c57600080fd5b506102be61049b366004614c7b565b6117a7565b6103be6104ae3660046149e2565b611a24565b3480156104bf57600080fd5b506102be6104ce366004614b6c565b611b00565b6102be6104e1366004614d80565b611b3f565b3480156104f257600080fd5b506102da610501366004614b6c565b611b95565b34801561051257600080fd5b50610440610521366004614bd6565b6002602052600090815260409020546001600160a01b031681565b6103de61054a366004614bd6565b611ba0565b34801561055b57600080fd5b506102be61056a366004614b87565b611c5f565b34801561057b57600080fd5b506102be61058a366004614f55565b611cba565b6103de61059d366004614bf3565b611d27565b6105b56105b0366004614c34565b611e48565b6040516102ef929190615167565b6102be6105d1366004614dc0565b611e69565b6102be6105e4366004614945565b611f31565b6105fc6105f7366004614960565b611fba565b6040516102ef9190615269565b34801561061557600080fd5b506103de60005481565b34801561062b57600080fd5b506104407f000000000000000000000000000000000000000000000000000000000000000081565b6102be61066136600461498c565b612086565b34801561067257600080fd5b506102da6001600160e01b031981565b34801561068e57600080fd5b5061032861069d3660046146f8565b60046020526000908152604090205460ff1681565b3480156106be57600080fd5b506102be6106cd3660046147ef565b6120a3565b6103be6106e0366004614a3a565b612125565b3480156106f157600080fd5b506102be610700366004614ba3565b612280565b6105fc610713366004614ae6565b6122b3565b34801561072457600080fd5b50610440610733366004614bd6565b6003602052600090815260409020546001600160a01b031681565b6103de61075c366004614960565b612385565b61077461076f366004614b2f565b6126f8565b6040516102ef929190615277565b6102be610790366004614ce1565b612c98565b6103de6107a3366004614960565b612d69565b6107bb6107b636600461476b565b61334d565b6040516102ef91906151bd565b3480156107d457600080fd5b506102be6107e3366004614b87565b613454565b3480156107f457600080fd5b506103286108033660046146f8565b60066020526000908152604090205460ff1681565b6107bb61082636600461476b565b613487565b34801561083757600080fd5b506102be6108463660046147ef565b61355f565b6103de610859366004614d62565b6135d4565b34801561086a57600080fd5b506102be610879366004614732565b61369e565b34801561088a57600080fd5b506104407f000000000000000000000000000000000000000000000000000000000000000081565b3480156108be57600080fd5b506102be6108cd366004614732565b6136da565b6108e86000356001600160e01b03191633613716565b6109045760405162461bcd60e51b81526004016102b590615242565b6001600160a01b038216600081815260046020526040808220805460ff191685151590811790915590519092917fb33b04e7f0b1c74e2a082ded974e43bb8434997412d2f8fc32e4224144dbd9fe91a35050565b60006109648383613716565b90505b92915050565b6060816001600160401b0381111561098757610987615542565b6040519080825280602002602001820160405280156109ba57816020015b60608152602001906001900390816109a55790505b50905060005b82811015610a9d57600080308686858181106109de576109de61552c565b90506020028101906109f091906152b1565b6040516109fe929190614fe5565b600060405180830381855af49150503d8060008114610a39576040519150601f19603f3d011682016040523d82523d6000602084013e610a3e565b606091505b509150915081610a6a57610a518161374d565b60405162461bcd60e51b81526004016102b591906151bd565b80848481518110610a7d57610a7d61552c565b602002602001018190525050508080610a95906154b3565b9150506109c0565b50600180546001600160601b031916905592915050565b6001600160801b03821615610bb257604051631e81f82960e01b815233907f00000000000000000000000000000000000000000000000000000000000000006001600160a01b031690631e81f82990610b1190889060040161512c565b60606040518083038186803b158015610b2957600080fd5b505afa158015610b3d573d6000803e3d6000fd5b505050506040513d601f19601f82011682018060405250810190610b619190614ef0565b516001600160a01b031614610bb25760405162461bcd60e51b815260206004820152601760248201527627b7363c9037b934b3b4b7103b30bab63a1037bbb732b960491b60448201526064016102b5565b6001600160801b03811615610cb557604051631e81f82960e01b815233907f00000000000000000000000000000000000000000000000000000000000000006001600160a01b031690631e81f82990610c0f90879060040161512c565b60606040518083038186803b158015610c2757600080fd5b505afa158015610c3b573d6000803e3d6000fd5b505050506040513d601f19601f82011682018060405250810190610c5f9190614ef0565b516001600160a01b031614610cb55760405162461bcd60e51b815260206004820152601c60248201527b27b7363c903232b9ba34b730ba34b7b7103b30bab63a1037bbb732b960211b60448201526064016102b5565b60405163122c014560e11b81526001600160a01b03198086166004830152841660248201526001600160801b038084166044830152821660648201527f00000000000000000000000000000000000000000000000000000000000000006001600160a01b031690632458028a90608401608060405180830381600087803b158015610d3f57600080fd5b505af1158015610d53573d6000803e3d6000fd5b505050506040513d601f19601f82011682018060405250810190610d779190614e4a565b505050505050565b6000806000610d8d876137ac565b915091506000610da08260200151613915565b90506000610db18360200151613a06565b905060007f00000000000000000000000000000000000000000000000000000000000000006001600160a01b0316637229280c866040518263ffffffff1660e01b8152600401610e01919061512c565b604080518083038186803b158015610e1857600080fd5b505afa158015610e2c573d6000803e3d6000fd5b505050506040513d601f19601f82011682018060405250810190610e509190614e2e565b8351815160405163fe2846b160e01b81529293506001600160a01b0385169263fe2846b192610e859290918c90600401615087565b602060405180830381600087803b158015610e9f57600080fd5b505af1158015610eb3573d6000803e3d6000fd5b505050506040513d601f19601f82011682018060405250810190610ed79190614f38565b9550610f0485858b8b610ef686600001516001600160801b0316613a67565b610eff906154ee565b613a9d565b60405163fa29687960e01b81526001600160a01b0383169063fa29687990610f30903390600401615011565b602060405180830381600087803b158015610f4a57600080fd5b505af1158015610f5e573d6000803e3d6000fd5b505050506040513d601f19601f82011682018060405250810190610f829190614f38565b505050505050949350505050565b6040516370a0823160e01b81526000906001600160a01b037f000000000000000000000000000000000000000000000000000000000000000016906370a0823190610fdf903090600401615011565b60206040518083038186803b158015610ff757600080fd5b505afa15801561100b573d6000803e3d6000fd5b505050506040513d601f19601f8201168201806040525081019061102f9190614f6e565b604051632e1a7d4d60e01b8152600481018290529091507f00000000000000000000000000000000000000000000000000000000000000006001600160a01b031690632e1a7d4d90602401600060405180830381600087803b15801561109457600080fd5b505af11580156110a8573d6000803e3d6000fd5b506110c0925050506001600160a01b03831682613df2565b919050565b6110db6000356001600160e01b03191633613716565b6110f75760405162461bcd60e51b81526004016102b590615242565b600061110283613915565b600001519050816001600160a01b031663dc3bfba96040518163ffffffff1660e01b815260040160206040518083038186803b15801561114157600080fd5b505afa158015611155573d6000803e3d6000fd5b505050506040513d601f19601f820116820180604052508101906111799190614715565b6001600160a01b0316816001600160a01b0316146111e45760405162461bcd60e51b815260206004820152602260248201527f4d69736d61746368656420706f6f6c206679546f6b656e20616e642073657269604482015261657360f01b60648201526084016102b5565b816001600160a01b0316635001f3b56040518163ffffffff1660e01b815260040160206040518083038186803b15801561121d57600080fd5b505afa158015611231573d6000803e3d6000fd5b505050506040513d601f19601f820116820180604052508101906112559190614715565b6001600160a01b0316816001600160a01b0316636f307dc36040518163ffffffff1660e01b815260040160206040518083038186803b15801561129757600080fd5b505afa1580156112ab573d6000803e3d6000fd5b505050506040513d601f19601f820116820180604052508101906112cf9190614715565b6001600160a01b0316146113255760405162461bcd60e51b815260206004820152601f60248201527f4d69736d61746368656420706f6f6c206261736520616e64207365726965730060448201526064016102b5565b6001600160d01b03198316600090815260036020526040812080546001600160a01b0319166001600160a01b038516908117909155611365576000611368565b60015b90506113748282613e77565b61137e8382613e77565b6113888382613ecb565b6040516001600160a01b038416906001600160d01b03198616907f9b2f85ba13740543525ad2d1fc97e976093cce223fd72bdd789866b884470b3890600090a350505050565b60008082600f0b126114145760405162461bcd60e51b815260206004820152600f60248201526e13db9b1e481c995c185e481919589d608a1b60448201526064016102b5565b600080611420876137ac565b9150915060006114338260200151613915565b90507f00000000000000000000000000000000000000000000000000000000000000006001600160a01b031663550b0253836020015187611473906154ee565b6040518363ffffffff1660e01b815260040161149092919061519a565b602060405180830381600087803b1580156114aa57600080fd5b505af11580156114be573d6000803e3d6000fd5b505050506040513d601f19601f820116820180604052508101906114e29190614f38565b6040516357456a4960e11b81529094506001600160a01b037f0000000000000000000000000000000000000000000000000000000000000000169063ae8ad492906115359086908a908a90600401615141565b6040805180830381600087803b15801561154e57600080fd5b505af1158015611562573d6000803e3d6000fd5b505050506040513d601f19601f820116820180604052508101906115869190614e2e565b5085600f0b6000146116ca5760006115a18360400151613f1f565b9050600087600f0b131561163257825160405163ceae3abd60e01b81526001600160a01b0383169163ceae3abd916115de91908b90600401615065565b602060405180830381600087803b1580156115f857600080fd5b505af115801561160c573d6000803e3d6000fd5b505050506040513d601f19601f820116820180604052508101906116309190614f38565b505b600087600f0b12156116c8576001600160a01b0381166312e5ff77896116578a6154ee565b6040518363ffffffff1660e01b8152600401611674929190615065565b602060405180830381600087803b15801561168e57600080fd5b505af11580156116a2573d6000803e3d6000fd5b505050506040513d601f19601f820116820180604052508101906116c69190614f38565b505b505b60006116d98260200151613f1f565b60405163ceae3abd60e01b81529091506001600160a01b0382169063ceae3abd9061170a9033908990600401615065565b602060405180830381600087803b15801561172457600080fd5b505af1158015611738573d6000803e3d6000fd5b505050506040513d601f19601f8201168201806040525081019061175c9190614f38565b5050505050949350505050565b8161177c61177682613f80565b33613716565b6117985760405162461bcd60e51b81526004016102b59061521e565b6117a28383613fa2565b505050565b6117bd6000356001600160e01b03191633613716565b6117d95760405162461bcd60e51b81526004016102b590615242565b604051630cdf468960e11b81526000906001600160a01b037f000000000000000000000000000000000000000000000000000000000000000016906319be8d1290611828908690600401615185565b60206040518083038186803b15801561184057600080fd5b505afa158015611854573d6000803e3d6000fd5b505050506040513d601f19601f820116820180604052508101906118789190614715565b90506001600160a01b0381166118c25760405162461bcd60e51b815260206004820152600f60248201526e105cdcd95d081b9bdd08199bdd5b99608a1b60448201526064016102b5565b806001600160a01b0316826001600160a01b03166338d52e0f6040518163ffffffff1660e01b815260040160206040518083038186803b15801561190557600080fd5b505afa158015611919573d6000803e3d6000fd5b505050506040513d601f19601f8201168201806040525081019061193d9190614715565b6001600160a01b03161461198f5760405162461bcd60e51b815260206004820152601960248201527826b4b9b6b0ba31b432b21030b9b9b2ba1030b732103537b4b760391b60448201526064016102b5565b6001600160d01b03198316600090815260026020526040812080546001600160a01b0319166001600160a01b0385169081179091556119cf5760006119d2565b60015b90506119de8282613e77565b6040516001600160a01b038416906001600160d01b03198616907fa165be0a6237b515a1722eaa2ac0d02a97a7a04e0b31261556003a46c08cbf9f90600090a350505050565b6000806000611a32876137ac565b915091506000611a458260200151613915565b90506000611a568360200151613a06565b825160405163bcc1694f60e01b81529192506001600160a01b0383169163bcc1694f91611a87918a90600401615065565b602060405180830381600087803b158015611aa157600080fd5b505af1158015611ab5573d6000803e3d6000fd5b505050506040513d601f19601f82011682018060405250810190611ad99190614f38565b9450611af484848a8a610ef68a6001600160801b0316613a67565b50505050949350505050565b80611b0d61177682613f80565b611b295760405162461bcd60e51b81526004016102b59061521e565b611b3b826001600160e01b0319614013565b5050565b6001600160a01b03831660009081526006602052604090205460ff16611b775760405162461bcd60e51b81526004016102b5906151f7565b6117a26001600160a01b03841633846001600160801b038516614092565b600061096782613f80565b476000611bac83613f1f565b90507f00000000000000000000000000000000000000000000000000000000000000006001600160a01b031663d0e30db0836040518263ffffffff1660e01b81526004016000604051808303818588803b158015611c0957600080fd5b505af1158015611c1d573d6000803e3d6000fd5b50611c599350506001600160a01b037f00000000000000000000000000000000000000000000000000000000000000001691508390508461416f565b50919050565b6001600160a01b0381163314611cb05760405162461bcd60e51b81526020600482015260166024820152752932b737bab731b29037b7363c903337b91039b2b63360511b60448201526064016102b5565b611b3b8282613fa2565b611cd06000356001600160e01b03191633613716565b611cec5760405162461bcd60e51b81526004016102b590615242565b60008190556040518181527f20461e09b8e557b77e107939f9ce6544698123aad0fc964ac5cc59b7df2e608f9060200160405180910390a150565b600080611d3385613915565b5190506001600160a01b038116631e9a69508585611dcc576040516370a0823160e01b81526001600160a01b038516906370a0823190611d77903090600401615011565b60206040518083038186803b158015611d8f57600080fd5b505afa158015611da3573d6000803e3d6000fd5b505050506040513d601f19601f82011682018060405250810190611dc79190614f6e565b611dce565b855b6040518363ffffffff1660e01b8152600401611deb9291906150b1565b602060405180830381600087803b158015611e0557600080fd5b505af1158015611e19573d6000803e3d6000fd5b505050506040513d601f19601f82011682018060405250810190611e3d9190614f6e565b9150505b9392505050565b6000611e52614551565b611e5d858585614255565b91509150935093915050565b6001600160a01b03871660009081526006602052604090205460ff16611ea15760405162461bcd60e51b81526004016102b5906151f7565b60405163d505accf60e01b81523360048201526001600160a01b038781166024830152604482018790526064820186905260ff8516608483015260a4820184905260c4820183905288169063d505accf9060e4015b600060405180830381600087803b158015611f1057600080fd5b505af1158015611f24573d6000803e3d6000fd5b5050505050505050505050565b6000611f3c826137ac565b50604051633c10035b60e11b81529091506001600160a01b037f0000000000000000000000000000000000000000000000000000000000000000169063782006b690611f8c90849060040161512c565b600060405180830381600087803b158015611fa657600080fd5b505af1158015610d77573d6000803e3d6000fd5b611fc2614551565b6000611fcd846137ac565b5060405163798a828b60e01b81526001600160a01b0319821660048201526001600160a01b0385811660248301529192507f00000000000000000000000000000000000000000000000000000000000000009091169063798a828b90604401606060405180830381600087803b15801561204657600080fd5b505af115801561205a573d6000803e3d6000fd5b505050506040513d601f19601f8201168201806040525081019061207e9190614ef0565b949350505050565b600080612092866137ac565b91509150610d778282878787613a9d565b60005b82518110156117a2576120d46117768483815181106120c7576120c761552c565b6020026020010151613f80565b6120f05760405162461bcd60e51b81526004016102b59061521e565b6121138382815181106121055761210561552c565b602002602001015183613fa2565b8061211d816154b3565b9150506120a6565b6000806000612133886137ac565b9150915060006121468260200151613a06565b60405163b0f2892160e01b81529091506001600160a01b0382169063b0f289219061217590899060040161529d565b60206040518083038186803b15801561218d57600080fd5b505afa1580156121a1573d6000803e3d6000fd5b505050506040513d601f19601f820116820180604052508101906121c59190614f38565b93506121f18383836121df8b6001600160801b0316613a67565b610eff896001600160801b0316613a67565b6040516327af726d60e21b81526001600160a01b03821690639ebdc9b490612221908b908a908a90600401615087565b602060405180830381600087803b15801561223b57600080fd5b505af115801561224f573d6000803e3d6000fd5b505050506040513d601f19601f820116820180604052508101906122739190614f38565b5050505095945050505050565b8161228d61177682613f80565b6122a95760405162461bcd60e51b81526004016102b59061521e565b6117a28383614013565b6122bb614551565b60006122c6856137ac565b506040516305cd79c960e51b81526001600160a01b0319821660048201526001600160d01b03198087166024830152851660448201529091507f00000000000000000000000000000000000000000000000000000000000000006001600160a01b03169063b9af392090606401606060405180830381600087803b15801561234d57600080fd5b505af1158015612361573d6000803e3d6000fd5b505050506040513d601f19601f82011682018060405250810190611e3d9190614ef0565b6000806000612393856137ac565b9150915060006123a68260200151613915565b905060007f00000000000000000000000000000000000000000000000000000000000000006001600160a01b0316637229280c856040518263ffffffff1660e01b81526004016123f6919061512c565b604080518083038186803b15801561240d57600080fd5b505afa158015612421573d6000803e3d6000fd5b505050506040513d601f19601f820116820180604052508101906124459190614e2e565b9050600082600001516001600160a01b03166370a08231306040518263ffffffff1660e01b81526004016124799190615011565b60206040518083038186803b15801561249157600080fd5b505afa1580156124a5573d6000803e3d6000fd5b505050506040513d601f19601f820116820180604052508101906124c99190614f6e565b82519091506001600160801b03168111156124ee5781516001600160801b03166124f0565b805b955085156126bb577f00000000000000000000000000000000000000000000000000000000000000006001600160a01b031663ae8ad492866125318961441b565b61253a906154ee565b6125438a61441b565b61254c906154ee565b6040518463ffffffff1660e01b815260040161256a93929190615141565b6040805180830381600087803b15801561258357600080fd5b505af1158015612597573d6000803e3d6000fd5b505050506040513d601f19601f820116820180604052508101906125bb9190614e2e565b508251604051632770a7eb60e21b81526001600160a01b0390911690639dc29fac906125ed9030908a906004016150b1565b600060405180830381600087803b15801561260757600080fd5b505af115801561261b573d6000803e3d6000fd5b50505050600061262e8560400151613f1f565b9050806001600160a01b03166312e5ff77896126498a614444565b6040518363ffffffff1660e01b8152600401612666929190615065565b602060405180830381600087803b15801561268057600080fd5b505af1158015612694573d6000803e3d6000fd5b505050506040513d601f19601f820116820180604052508101906126b89190614f38565b50505b60006126c78783615470565b11156126ed576126ed876126db8884615470565b85516001600160a01b0316919061416f565b505050505092915050565b612700614551565b60008061270c876137ac565b604051631c8a4a0360e21b81529094509091506000906001600160a01b037f00000000000000000000000000000000000000000000000000000000000000001690637229280c9061276190859060040161512c565b604080518083038186803b15801561277857600080fd5b505afa15801561278c573d6000803e3d6000fd5b505050506040513d601f19601f820116820180604052508101906127b09190614e2e565b905060006127c18560200151613915565b905060006127ce89613915565b905060006127db8a613a06565b82516020850151919250906000906127f290613f1f565b60208a0151875160405163550b025360e01b81529293506000926001600160a01b037f0000000000000000000000000000000000000000000000000000000000000000169263550b0253926128499260040161519a565b602060405180830381600087803b15801561286357600080fd5b505af1158015612877573d6000803e3d6000fd5b505050506040513d601f19601f8201168201806040525081019061289b9190614f38565b9050826001600160a01b03166340c10f19858e60ff16846128bc91906153aa565b6040518363ffffffff1660e01b81526004016128d9929190615065565b600060405180830381600087803b1580156128f357600080fd5b505af1158015612907573d6000803e3d6000fd5b50505050836001600160a01b0316639ebdc9b483838e6040518463ffffffff1660e01b815260040161293b93929190615087565b602060405180830381600087803b15801561295557600080fd5b505af1158015612969573d6000803e3d6000fd5b505050506040513d601f19601f8201168201806040525081019061298d9190614f38565b60405163ceae3abd60e01b81529099506001600160a01b0383169063ceae3abd906129be9085908590600401615065565b602060405180830381600087803b1580156129d857600080fd5b505af11580156129ec573d6000803e3d6000fd5b505050506040513d601f19601f82011682018060405250810190612a109190614f38565b506040516334f403c960e21b81526001600160a01b0385169063d3d00f2490612a3d908690600401615011565b602060405180830381600087803b158015612a5757600080fd5b505af1158015612a6b573d6000803e3d6000fd5b505050506040513d601f19601f82011682018060405250810190612a8f9190614f38565b50826001600160a01b0316639dc29fac848b8f60ff1685612ab091906153aa565b612aba9190615448565b6040518363ffffffff1660e01b8152600401612ad7929190615065565b600060405180830381600087803b158015612af157600080fd5b505af1158015612b05573d6000803e3d6000fd5b505050505050505080602001516001600160d01b03191686604001516001600160d01b03191614158015612b3a575060005415155b15612b9257612b85612b60600054876001600160801b031661446d90919063ffffffff16565b42836040015163ffffffff16612b769190615470565b612b8091906153d9565b614444565b612b8f908661537f565b94505b7f00000000000000000000000000000000000000000000000000000000000000006001600160a01b0316636295afac858b612bd987600001516001600160801b0316613a67565b612beb8a6001600160801b0316613a67565b612bf591906153f8565b6040516001600160e01b031960e086901b1681526001600160a01b031990931660048401526001600160d01b03199091166024830152600f0b604482015260640160a060405180830381600087803b158015612c5057600080fd5b505af1158015612c64573d6000803e3d6000fd5b505050506040513d601f19601f82011682018060405250810190612c889190614f0c565b5095505050505094509492505050565b6001600160a01b03881660009081526006602052604090205460ff16612cd05760405162461bcd60e51b81526004016102b5906151f7565b6040516323f2ebc360e21b81523360048201526001600160a01b0388811660248301526044820188905260648201879052851515608483015260ff851660a483015260c4820184905260e48201839052891690638fcbaf0c9061010401600060405180830381600087803b158015612d4757600080fd5b505af1158015612d5b573d6000803e3d6000fd5b505050505050505050505050565b6000806000612d77856137ac565b915091506000612d8a8260200151613915565b905060007f00000000000000000000000000000000000000000000000000000000000000006001600160a01b0316637229280c856040518263ffffffff1660e01b8152600401612dda919061512c565b604080518083038186803b158015612df157600080fd5b505afa158015612e05573d6000803e3d6000fd5b505050506040513d601f19601f82011682018060405250810190612e299190614e2e565b905060007f00000000000000000000000000000000000000000000000000000000000000006001600160a01b03166319be8d1284602001516040518263ffffffff1660e01b8152600401612e7d9190615185565b60206040518083038186803b158015612e9557600080fd5b505afa158015612ea9573d6000803e3d6000fd5b505050506040513d601f19601f82011682018060405250810190612ecd9190614715565b90506000816001600160a01b03166370a08231306040518263ffffffff1660e01b8152600401612efd9190615011565b60206040518083038186803b158015612f1557600080fd5b505afa158015612f29573d6000803e3d6000fd5b505050506040513d601f19601f82011682018060405250810190612f4d9190614f6e565b6020860151845160405163550b025360e01b81529293506000926001600160a01b037f0000000000000000000000000000000000000000000000000000000000000000169263550b025392612fa49260040161519a565b602060405180830381600087803b158015612fbe57600080fd5b505af1158015612fd2573d6000803e3d6000fd5b505050506040513d601f19601f82011682018060405250810190612ff69190614f38565b6001600160801b03169050600061301a828411156130145782614444565b83614444565b905081816001600160801b0316146130d5576020870151604051634eeb600760e11b81526001600160a01b037f00000000000000000000000000000000000000000000000000000000000000001691639dd6c00e9161307e9190859060040161519a565b602060405180830381600087803b15801561309857600080fd5b505af11580156130ac573d6000803e3d6000fd5b505050506040513d601f19601f820116820180604052508101906130d09190614f38565b6130d8565b84515b6001600160801b0390811699508116156132fc577f00000000000000000000000000000000000000000000000000000000000000006001600160a01b031663ae8ad492896131258c61441b565b61312e906154ee565b6131378d61441b565b613140906154ee565b6040518463ffffffff1660e01b815260040161315e93929190615141565b6040805180830381600087803b15801561317757600080fd5b505af115801561318b573d6000803e3d6000fd5b505050506040513d601f19601f820116820180604052508101906131af9190614e2e565b5060006131bf8760200151613f1f565b90506131de6001600160a01b038616826001600160801b03851661416f565b60405163ceae3abd60e01b81526001600160a01b0382169063ceae3abd9061320c9030908690600401615065565b602060405180830381600087803b15801561322657600080fd5b505af115801561323a573d6000803e3d6000fd5b505050506040513d601f19601f8201168201806040525081019061325e9190614f38565b50600061326e8960400151613f1f565b9050806001600160a01b03166312e5ff778d6132898e614444565b6040518363ffffffff1660e01b81526004016132a6929190615065565b602060405180830381600087803b1580156132c057600080fd5b505af11580156132d4573d6000803e3d6000fd5b505050506040513d601f19601f820116820180604052508101906132f89190614f38565b5050505b60006133116001600160801b03831685615470565b111561333f5761333f8a61332e6001600160801b03841686615470565b6001600160a01b038716919061416f565b505050505050505092915050565b6001600160a01b03831660009081526005602052604090205460609060ff166133ae5760405162461bcd60e51b81526020600482015260136024820152722ab735b737bbb71034b73a32b3b930ba34b7b760691b60448201526064016102b5565b6040516363799a0960e11b81526001600160a01b037f0000000000000000000000000000000000000000000000000000000000000000169063c6f33412906133fe90879087908790600401615025565b600060405180830381600087803b15801561341857600080fd5b505af115801561342c573d6000803e3d6000fd5b505050506040513d6000823e601f3d908101601f1916820160405261207e9190810190614c99565b8161346161177682613f80565b61347d5760405162461bcd60e51b81526004016102b59061521e565b6117a2838361448b565b6001600160a01b03831660009081526004602052604090205460609060ff166134e85760405162461bcd60e51b8152602060048201526013602482015272556e72656769737465726564206d6f64756c6560681b60448201526064016102b5565b6000846001600160a01b03168484604051613504929190614fe5565b600060405180830381855af49150503d806000811461353f576040519150601f19603f3d011682016040523d82523d6000602084013e613544565b606091505b50925090508061355757610a518261374d565b509392505050565b60005b82518110156117a2576135836117768483815181106120c7576120c761552c565b61359f5760405162461bcd60e51b81526004016102b59061521e565b6135c28382815181106135b4576135b461552c565b60200260200101518361448b565b806135cc816154b3565b915050613562565b6001600160a01b03821660009081526006602052604081205460ff1661360c5760405162461bcd60e51b81526004016102b5906151f7565b6040516370a0823160e01b81526001600160a01b038416906370a0823190613638903090600401615011565b60206040518083038186803b15801561365057600080fd5b505afa158015613664573d6000803e3d6000fd5b505050506040513d601f19601f820116820180604052508101906136889190614f6e565b90506109676001600160a01b038416838361416f565b6136b46000356001600160e01b03191633613716565b6136d05760405162461bcd60e51b81526004016102b590615242565b611b3b8282613e77565b6136f06000356001600160e01b03191633613716565b61370c5760405162461bcd60e51b81526004016102b590615242565b611b3b8282613ecb565b6001600160e01b0319821660009081526007602090815260408083206001600160a01b038516845290915290205460ff1692915050565b606060448251101561379257505060408051808201909152601d81527f5472616e73616374696f6e2072657665727465642073696c656e746c79000000602082015290565b600482019150818060200190518101906109679190614c99565b60006137b6614551565b6001600160a01b031983166138215760015460a01b6001600160a01b0319166138145760405162461bcd60e51b815260206004820152601060248201526f15985d5b1d081b9bdd0818d858da195960821b60448201526064016102b5565b60015460a01b9150613825565b8291505b604051631e81f82960e01b81526001600160a01b037f00000000000000000000000000000000000000000000000000000000000000001690631e81f8299061387190859060040161512c565b60606040518083038186803b15801561388957600080fd5b505afa15801561389d573d6000803e3d6000fd5b505050506040513d601f19601f820116820180604052508101906138c19190614ef0565b80519091506001600160a01b031633146139105760405162461bcd60e51b815260206004820152601060248201526f27b7363c903b30bab63a1037bbb732b960811b60448201526064016102b5565b915091565b61391d614551565b6040516315740f8d60e21b81526001600160a01b037f000000000000000000000000000000000000000000000000000000000000000016906355d03e3490613969908590600401615185565b60606040518083038186803b15801561398157600080fd5b505afa158015613995573d6000803e3d6000fd5b505050506040513d601f19601f820116820180604052508101906139b99190614e76565b80519091506001600160a01b03166110c05760405162461bcd60e51b815260206004820152601060248201526f14d95c9a595cc81b9bdd08199bdd5b9960821b60448201526064016102b5565b6001600160d01b031981166000908152600360205260409020546001600160a01b0316806110c05760405162461bcd60e51b815260206004820152600e60248201526d141bdbdb081b9bdd08199bdd5b9960921b60448201526064016102b5565b600060016001607f1b036001600160801b0383161115613a995760405162461bcd60e51b81526004016102b5906151d0565b5090565b613aa5614551565b81600f0b600014613ac057613abd8560200151613915565b90505b60008083600f0b138015613af0575081602001516001600160d01b03191686604001516001600160d01b03191614155b8015613afd575060005415155b15613b4557613b42613b1d60005485600f0b61446d90919063ffffffff16565b42846040015163ffffffff16613b339190615470565b613b3d91906153d9565b61441b565b90505b6001600160a01b037f00000000000000000000000000000000000000000000000000000000000000001663ae8ad4928886613b80858861532e565b6040518463ffffffff1660e01b8152600401613b9e93929190615141565b6040805180830381600087803b158015613bb757600080fd5b505af1158015613bcb573d6000803e3d6000fd5b505050506040513d601f19601f82011682018060405250810190613bef9190614e2e565b5083600f0b600014613d33576000613c0a8760400151613f1f565b9050600085600f0b1315613c9b57865160405163ceae3abd60e01b81526001600160a01b0383169163ceae3abd91613c4791908990600401615065565b602060405180830381600087803b158015613c6157600080fd5b505af1158015613c75573d6000803e3d6000fd5b505050506040513d601f19601f82011682018060405250810190613c999190614f38565b505b600085600f0b1215613d31576001600160a01b0381166312e5ff7787613cc0886154ee565b6040518363ffffffff1660e01b8152600401613cdd929190615065565b602060405180830381600087803b158015613cf757600080fd5b505af1158015613d0b573d6000803e3d6000fd5b505050506040513d601f19601f82011682018060405250810190613d2f9190614f38565b505b505b82600f0b600014613de957600083600f0b1315613db25781516040516340c10f1960e01b81526001600160a01b03909116906340c10f1990613d7b9088908790600401615065565b600060405180830381600087803b158015613d9557600080fd5b505af1158015613da9573d6000803e3d6000fd5b50505050613de9565b81516001600160a01b0316639dc29fac33613dcc866154ee565b6040518363ffffffff1660e01b8152600401611ef6929190615065565b50505050505050565b60408051600080825260208201928390529182916001600160a01b038616918591613e1c91614ff5565b60006040518083038185875af1925050503d8060008114613e59576040519150601f19603f3d011682016040523d82523d6000602084013e613e5e565b606091505b509150915081613e7157610a518161374d565b50505050565b6001600160a01b038216600081815260066020526040808220805460ff191685151590811790915590519092917f654ff2be0f58b1b437adcc6ff9868ab309fc9979c02811bca8f9a7bd95a217b691a35050565b6001600160a01b038216600081815260056020526040808220805460ff191685151590811790915590519092917f3f708a815f33c6ad64cc991b28ca6b465b31c3d0b7459b295fb3f095cd76c54291a35050565b6001600160d01b031981166000908152600260205260409020546001600160a01b0316806110c05760405162461bcd60e51b815260206004820152600e60248201526d129bda5b881b9bdd08199bdd5b9960921b60448201526064016102b5565b6001600160e01b03191660009081526007602052604090206001015460e01b90565b613fac8282613716565b15611b3b576001600160e01b0319821660008181526007602090815260408083206001600160a01b0386168085529252808320805460ff1916905551339391927f4ddc7b757e7bdd7254a9cd39452d307a52761bc824625c6a33104a075d8099e691a45050565b6001600160e01b0319811661402783613f80565b6001600160e01b03191614611b3b576001600160e01b0319828116600081815260076020526040808220600101805463ffffffff191660e087901c17905551928416927fd348e2220a50b4500ec353f6e802d2f14dd1b5d6786148fd1bbcc570bf92d4739190a35050565b604080516001600160a01b0385811660248301528481166044830152606480830185905283518084039091018152608490920183526020820180516001600160e01b03166323b872dd60e01b17905291516000928392908816916140f69190614ff5565b6000604051808303816000865af19150503d8060008114614133576040519150601f19603f3d011682016040523d82523d6000602084013e614138565b606091505b50915091508180156141625750805115806141625750808060200190518101906141629190614928565b610d7757610a518161374d565b600080846001600160a01b031663a9059cbb60e01b85856040516024016141979291906150b1565b60408051601f198184030181529181526020820180516001600160e01b03166001600160e01b03199094169390931790925290516141d59190614ff5565b6000604051808303816000865af19150503d8060008114614212576040519150601f19603f3d011682016040523d82523d6000602084013e614217565b606091505b50915091508180156142415750805115806142415750808060200190518101906142419190614928565b61424e57610a518161374d565b5050505050565b600061425f614551565b614268836144fe565b91505b604051631e81f82960e01b81526000906001600160a01b037f00000000000000000000000000000000000000000000000000000000000000001690631e81f829906142ba90869060040161512c565b60606040518083038186803b1580156142d257600080fd5b505afa1580156142e6573d6000803e3d6000fd5b505050506040513d601f19601f8201168201806040525081019061430a9190614ef0565b602001516001600160d01b0319161461433857614331614329846154ce565b9350836144fe565b915061426b565b604051631396053760e11b81523360048201526001600160a01b0319831660248201526001600160d01b03198087166044830152851660648201527f00000000000000000000000000000000000000000000000000000000000000006001600160a01b03169063272c0a6e90608401606060405180830381600087803b1580156143c157600080fd5b505af11580156143d5573d6000803e3d6000fd5b505050506040513d601f19601f820116820180604052508101906143f99190614ef0565b600180546001600160601b03191660a085901c17905591959194509092505050565b600060016001607f1b03821115613a995760405162461bcd60e51b81526004016102b5906151d0565b60006001600160801b03821115613a995760405162461bcd60e51b81526004016102b5906151d0565b600061447982846153d9565b670de0b6b3a764000090049392505050565b6144958282613716565b611b3b576001600160e01b0319821660008181526007602090815260408083206001600160a01b0386168085529252808320805460ff1916600117905551339391927fe6231789d19137da31d0550f4ba9ee379020a8cfb64cb79bf1790c996d2e616591a45050565b6040516001600160601b03193360601b1660208201524260348201526001600160f81b031960f883901b166054820152600090605501604051602081830303815290604052805190602001209050919050565b604080516060810182526000808252602082018190529181019190915290565b60006001600160401b0383111561458a5761458a615542565b61459d601f8401601f19166020016152fe565b90508281528383830111156145b157600080fd5b611e41836020830184615487565b80356110c081615558565b80356001600160a01b0319811681146110c057600080fd5b80356001600160e01b0319811681146110c057600080fd5b8035600f81900b81146110c057600080fd5b60006040828403121561461e57600080fd5b604080519081016001600160401b038111828210171561464057614640615542565b8060405250809150825161465381615594565b8152602083015161466381615594565b6020919091015292915050565b60006060828403121561468257600080fd5b604051606081016001600160401b03811182821017156146a4576146a4615542565b806040525080915082516146b781615558565b815260208301516146c78161557e565b602082015260408301516146da8161557e565b6040919091015292915050565b803560ff811681146110c057600080fd5b60006020828403121561470a57600080fd5b8135611e4181615558565b60006020828403121561472757600080fd5b8151611e4181615558565b6000806040838503121561474557600080fd5b823561475081615558565b9150602083013561476081615570565b809150509250929050565b60008060006040848603121561478057600080fd5b833561478b81615558565b925060208401356001600160401b03808211156147a757600080fd5b818601915086601f8301126147bb57600080fd5b8135818111156147ca57600080fd5b8760208285010111156147dc57600080fd5b6020830194508093505050509250925092565b6000806040838503121561480257600080fd5b82356001600160401b038082111561481957600080fd5b818501915085601f83011261482d57600080fd5b813560208282111561484157614841615542565b8160051b92506148528184016152fe565b8281528181019085830185870184018b101561486d57600080fd5b600096505b8487101561489757614883816145e2565b835260019690960195918301918301614872565b5096506148a790508782016145bf565b9450505050509250929050565b600080602083850312156148c757600080fd5b82356001600160401b03808211156148de57600080fd5b818501915085601f8301126148f257600080fd5b81358181111561490157600080fd5b8660208260051b850101111561491657600080fd5b60209290920196919550909350505050565b60006020828403121561493a57600080fd5b8151611e4181615570565b60006020828403121561495757600080fd5b610964826145ca565b6000806040838503121561497357600080fd5b61497c836145ca565b9150602083013561476081615558565b600080600080608085870312156149a257600080fd5b6149ab856145ca565b935060208501356149bb81615558565b92506149c9604086016145fa565b91506149d7606086016145fa565b905092959194509250565b600080600080608085870312156149f857600080fd5b614a01856145ca565b93506020850135614a1181615558565b9250614a1f604086016145fa565b91506060850135614a2f81615594565b939692955090935050565b600080600080600060a08688031215614a5257600080fd5b614a5b866145ca565b94506020860135614a6b81615558565b93506040860135614a7b81615594565b92506060860135614a8b81615594565b91506080860135614a9b81615594565b809150509295509295909350565b60008060008060808587031215614abf57600080fd5b614ac8856145ca565b9350614ad6602086016145ca565b92506040850135614a1f81615594565b600080600060608486031215614afb57600080fd5b614b04846145ca565b92506020840135614b148161557e565b91506040840135614b248161557e565b809150509250925092565b60008060008060808587031215614b4557600080fd5b614b4e856145ca565b93506020850135614b5e8161557e565b9250614a1f604086016146e7565b600060208284031215614b7e57600080fd5b610964826145e2565b60008060408385031215614b9a57600080fd5b61497c836145e2565b60008060408385031215614bb657600080fd5b614bbf836145e2565b9150614bcd602084016145e2565b90509250929050565b600060208284031215614be857600080fd5b8135611e418161557e565b600080600060608486031215614c0857600080fd5b8335614c138161557e565b92506020840135614c2381615558565b929592945050506040919091013590565b600080600060608486031215614c4957600080fd5b8335614c548161557e565b92506020840135614c648161557e565b9150614c72604085016146e7565b90509250925092565b60008060408385031215614c8e57600080fd5b823561497c8161557e565b600060208284031215614cab57600080fd5b81516001600160401b03811115614cc157600080fd5b8201601f81018413614cd257600080fd5b61207e84825160208401614571565b600080600080600080600080610100898b031215614cfe57600080fd5b8835614d0981615558565b97506020890135614d1981615558565b965060408901359550606089013594506080890135614d3781615570565b9350614d4560a08a016146e7565b925060c0890135915060e089013590509295985092959890939650565b60008060408385031215614d7557600080fd5b823561497c81615558565b600080600060608486031215614d9557600080fd5b8335614da081615558565b92506020840135614db081615558565b91506040840135614b2481615594565b600080600080600080600060e0888a031215614ddb57600080fd5b8735614de681615558565b96506020880135614df681615558565b95506040880135945060608801359350614e12608089016146e7565b925060a0880135915060c0880135905092959891949750929550565b600060408284031215614e4057600080fd5b610964838361460c565b60008060808385031215614e5d57600080fd5b614e67848461460c565b9150614bcd846040850161460c565b600060608284031215614e8857600080fd5b604051606081016001600160401b0381118282101715614eaa57614eaa615542565b6040528251614eb881615558565b81526020830151614ec88161557e565b6020820152604083015163ffffffff81168114614ee457600080fd5b60408201529392505050565b600060608284031215614f0257600080fd5b6109648383614670565b60008060a08385031215614f1f57600080fd5b614f298484614670565b9150614bcd846060850161460c565b600060208284031215614f4a57600080fd5b8151611e4181615594565b600060208284031215614f6757600080fd5b5035919050565b600060208284031215614f8057600080fd5b5051919050565b60008151808452614f9f816020860160208601615487565b601f01601f19169290920160200192915050565b80516001600160a01b031682526020808201516001600160d01b03199081169184019190915260409182015116910152565b8183823760009101908152919050565b60008251615007818460208701615487565b9190910192915050565b6001600160a01b0391909116815260200190565b6001600160a01b03841681526040602082018190528101829052818360608301376000818301606090810191909152601f909201601f1916010192915050565b6001600160a01b039290921682526001600160801b0316602082015260400190565b6001600160a01b039390931683526001600160801b03918216602084015216604082015260600190565b6001600160a01b03929092168252602082015260400190565b6000602080830181845280855180835260408601915060408160051b870101925083870160005b8281101561511f57603f1988860301845261510d858351614f87565b945092850192908501906001016150f1565b5092979650505050505050565b6001600160a01b031991909116815260200190565b6001600160a01b0319939093168352600f91820b6020840152900b604082015260600190565b6001600160a01b03198316815260808101611e416020830184614fb3565b6001600160d01b031991909116815260200190565b6001600160d01b03199290921682526001600160801b0316602082015260400190565b6020815260006109646020830184614f87565b6020808252600d908201526c43617374206f766572666c6f7760981b604082015260600190565b6020808252600d908201526c2ab735b737bbb7103a37b5b2b760991b604082015260600190565b6020808252600a908201526927b7363c9030b236b4b760b11b604082015260600190565b6020808252600d908201526c1058d8d95cdcc819195b9a5959609a1b604082015260600190565b606081016109678284614fb3565b608081016152858285614fb3565b6001600160801b039290921660609190910152919050565b6001600160801b0391909116815260200190565b6000808335601e198436030181126152c857600080fd5b8301803591506001600160401b038211156152e257600080fd5b6020019150368190038213156152f757600080fd5b9250929050565b604051601f8201601f191681016001600160401b038111828210171561532657615326615542565b604052919050565b6000600f82810b9084900b828212801560016001607f1b038490038313161561535957615359615516565b60016001607f1b0319839003821281161561537657615376615516565b50019392505050565b60006001600160801b038281168482168083038211156153a1576153a1615516565b01949350505050565b60006001600160801b03828116848216811515828404821116156153d0576153d0615516565b02949350505050565b60008160001904831182151516156153f3576153f3615516565b500290565b6000600f82810b9084900b828112801560016001607f1b031983018412161561542357615423615516565b60016001607f1b038201831381161561543e5761543e615516565b5090039392505050565b60006001600160801b038381169083168181101561546857615468615516565b039392505050565b60008282101561548257615482615516565b500390565b60005b838110156154a257818101518382015260200161548a565b83811115613e715750506000910152565b60006000198214156154c7576154c7615516565b5060010190565b600060ff821660ff8114156154e5576154e5615516565b60010192915050565b6000600f82900b60016001607f1b031981141561550d5761550d615516565b60000392915050565b634e487b7160e01b600052601160045260246000fd5b634e487b7160e01b600052603260045260246000fd5b634e487b7160e01b600052604160045260246000fd5b6001600160a01b038116811461556d57600080fd5b50565b801515811461556d57600080fd5b6001600160d01b03198116811461556d57600080fd5b6001600160801b038116811461556d57600080fdfea2646970667358221220688ab0c57743cbba89c6202c1e344b32349d9db088765139ecf3d687a0d38b9864736f6c6343000806003360a060405234801561001057600080fd5b5033606081901b608052610462610037600039600081816040015260ac01526104626000f3fe6080604052600436106100295760003560e01c80638da5cb5b1461002e578063c6f334121461007f575b600080fd5b34801561003a57600080fd5b506100627f000000000000000000000000000000000000000000000000000000000000000081565b6040516001600160a01b0390911681526020015b60405180910390f35b61009261008d366004610254565b61009f565b60405161007691906103cc565b6060336001600160a01b037f0000000000000000000000000000000000000000000000000000000000000000161461010b5760405162461bcd60e51b815260206004820152600a60248201526927b7363c9037bbb732b960b11b60448201526064015b60405180910390fd5b6001600160a01b0384163b61015d5760405162461bcd60e51b815260206004820152601860248201527715185c99d95d081a5cc81b9bdd08184818dbdb9d1c9858dd60421b6044820152606401610102565b6000846001600160a01b031684846040516101799291906103bc565b6000604051808303816000865af19150503d80600081146101b6576040519150601f19603f3d011682016040523d82523d6000602084013e6101bb565b606091505b5092509050806101e7576101ce826101ef565b60405162461bcd60e51b815260040161010291906103cc565b509392505050565b606060448251101561023457505060408051808201909152601d81527f5472616e73616374696f6e2072657665727465642073696c656e746c79000000602082015290565b6004820191508180602001905181019061024e91906102e4565b92915050565b60008060006040848603121561026957600080fd5b83356001600160a01b038116811461028057600080fd5b925060208401356001600160401b038082111561029c57600080fd5b818601915086601f8301126102b057600080fd5b8135818111156102bf57600080fd5b8760208285010111156102d157600080fd5b6020830194508093505050509250925092565b6000602082840312156102f657600080fd5b81516001600160401b038082111561030d57600080fd5b818401915084601f83011261032157600080fd5b81518181111561033357610333610416565b604051601f8201601f19908116603f0116810190838211818310171561035b5761035b610416565b8160405282815287602084870101111561037457600080fd5b6103858360208301602088016103e6565b979650505050505050565b600081518084526103a88160208601602086016103e6565b601f01601f19169290920160200192915050565b8183823760009101908152919050565b6020815260006103df6020830184610390565b9392505050565b60005b838110156104015781810151838201526020016103e9565b83811115610410576000848401525b50505050565b634e487b7160e01b600052604160045260246000fdfea264697066735822122030697dbc78ab9fd900aad0f7eb3f0b83a2ef67a19cd9feaa295c6cb2f998f4ae64736f6c63430008060033",
  "devdoc": {
    "details": "Ladle orchestrates contract calls throughout the Yield Protocol v2 into useful and efficient user oriented features.",
    "kind": "dev",
    "methods": {
      "addIntegration(address,bool)": {
        "details": "Add or remove an integration."
      },
      "addJoin(bytes6,address)": {
        "details": "Add a new Join for an Asset, or replace an existing one for a new one. There can be only one Join per Asset. Until a Join is added, no tokens of that Asset can be posted or withdrawn."
      },
      "addModule(address,bool)": {
        "details": "Add or remove a module."
      },
      "addPool(bytes6,address)": {
        "details": "Add a new Pool for a Series, or replace an existing one for a new one. There can be only one Pool per Series. Until a Pool is added, it is not possible to borrow Base."
      },
      "addToken(address,bool)": {
        "details": "Add or remove a token that the Ladle can call `transfer` or `permit` on."
      },
      "batch(bytes[])": {
        "details": "Allows batched call to self (this contract).",
        "params": {
          "calls": "An array of inputs for each call."
        }
      },
      "build(bytes6,bytes6,uint8)": {
        "details": "Create a new vault, linked to a series (and therefore underlying) and a collateral"
      },
      "close(bytes12,address,int128,int128)": {
        "details": "Repay vault debt using underlying token at a 1:1 exchange rate, without trading in a pool. It can add or remove collateral at the same time. The debt to repay is denominated in fyToken, even if the tokens pulled from the user are underlying. The debt to repay must be entered as a negative number, as with `pour`. Debt cannot be acquired with this function."
      },
      "closeFromLadle(bytes12,address)": {
        "details": "Use base in the Ladle to repay debt. Return unused base to `to`. Return as much collateral as debt was repaid, as well. This function is only used when removing liquidity added with \"Borrow and Pool\", so it's safe to assume the exchange rate is 1:1. If used in other contexts, it might revert, which is fine."
      },
      "destroy(bytes12)": {
        "details": "Destroy an empty vault. Used to recover gas costs."
      },
      "exitEther(address)": {
        "details": "Unwrap Wrapped Ether held by this Ladle, and send the Ether This function should be called last in a batch, and the Ladle should have no reason to keep an WETH balance"
      },
      "forwardDaiPermit(address,address,uint256,uint256,bool,uint8,bytes32,bytes32)": {
        "details": "Execute a Dai-style permit for the selected token"
      },
      "forwardPermit(address,address,uint256,uint256,uint8,bytes32,bytes32)": {
        "details": "Execute an ERC2612 permit for the selected token"
      },
      "getRoleAdmin(bytes4)": {
        "details": "Returns the admin role that controls `role`. See {grantRole} and {revokeRole}. To change a role's admin, use {_setRoleAdmin}."
      },
      "give(bytes12,address)": {
        "details": "Give a vault to another user."
      },
      "grantRole(bytes4,address)": {
        "details": "Grants `role` to `account`. If `account` had not been already granted `role`, emits a {RoleGranted} event. Requirements: - the caller must have ``role``'s admin role."
      },
      "grantRoles(bytes4[],address)": {
        "details": "Grants all of `role` in `roles` to `account`. If `account` had not been already granted `role`, emits a {RoleGranted} event. Requirements: - For each `role` in `roles`, the caller must have ``role``'s admin role."
      },
      "hasRole(bytes4,address)": {
        "details": "Returns `true` if `account` has been granted `role`."
      },
      "joinEther(bytes6)": {
        "details": "Accept Ether, wrap it and forward it to the WethJoin This function should be called first in a batch, and the Join should keep track of stored reserves Passing the id for a join that doesn't link to a contract implemnting IWETH9 will fail"
      },
      "lockRole(bytes4)": {
        "details": "Sets LOCK as ``role``'s admin role. LOCK has no members, so this disables admin management of ``role``. Emits a {RoleAdminChanged} event. Requirements: - the caller must have ``role``'s admin role."
      },
      "moduleCall(address,bytes)": {
        "details": "Allow users to use functionality coded in a module, to be used with batch"
      },
      "pour(bytes12,address,int128,int128)": {
        "details": "Add collateral and borrow from vault, pull assets from and push borrowed asset to user Or, repay to vault and remove collateral, pull borrowed asset from and push assets to user Borrow only before maturity."
      },
      "redeem(bytes6,address,uint256)": {
        "details": "Allow users to redeem fyToken, to be used with batch. If 0 is passed as the amount to redeem, it redeems the fyToken balance of the Ladle instead."
      },
      "renounceRole(bytes4,address)": {
        "details": "Revokes `role` from the calling account. Roles are often managed via {grantRole} and {revokeRole}: this function's purpose is to provide a mechanism for accounts to lose their privileges if they are compromised (such as when a trusted device is misplaced). If the calling account had been granted `role`, emits a {RoleRevoked} event. Requirements: - the caller must be `account`."
      },
      "repay(bytes12,address,int128,uint128)": {
        "details": "Repay debt by selling base in a pool and using the resulting fyToken The base tokens need to be already in the pool, unaccounted for. Only before maturity. After maturity use close."
      },
      "repayFromLadle(bytes12,address)": {
        "details": "Use fyToken in the Ladle to repay debt. Return unused fyToken to `to`. Return as much collateral as debt was repaid, as well. This function is only used when removing liquidity added with \"Borrow and Pool\", so it's safe to assume the exchange rate is 1:1. If used in other contexts, it might revert, which is fine."
      },
      "repayVault(bytes12,address,int128,uint128)": {
        "details": "Repay all debt in a vault by buying fyToken from a pool with base. The base tokens need to be already in the pool, unaccounted for. The surplus base will be returned to msg.sender. Only before maturity. After maturity use close."
      },
      "retrieve(address,address)": {
        "details": "Retrieve any token in the Ladle"
      },
      "revokeRole(bytes4,address)": {
        "details": "Revokes `role` from `account`. If `account` had been granted `role`, emits a {RoleRevoked} event. Requirements: - the caller must have ``role``'s admin role."
      },
      "revokeRoles(bytes4[],address)": {
        "details": "Revokes all of `role` in `roles` from `account`. If `account` had been granted `role`, emits a {RoleRevoked} event. Requirements: - For each `role` in `roles`, the caller must have ``role``'s admin role."
      },
      "roll(bytes12,bytes6,uint8,uint128)": {
        "details": "Change series and debt of a vault."
      },
      "route(address,bytes)": {
        "details": "Allow users to route calls to a contract, to be used with batch"
      },
      "serve(bytes12,address,uint128,uint128,uint128)": {
        "details": "Add collateral and borrow from vault, so that a precise amount of base is obtained by the user. The base is obtained by borrowing fyToken and buying base with it in a pool. Only before maturity."
      },
      "setFee(uint256)": {
        "details": "Set the fee parameter"
      },
      "setRoleAdmin(bytes4,bytes4)": {
        "details": "Sets `adminRole` as ``role``'s admin role. If ``role``'s admin role is not `adminRole` emits a {RoleAdminChanged} event. Requirements: - the caller must have ``role``'s admin role."
      },
      "stir(bytes12,bytes12,uint128,uint128)": {
        "details": "Move collateral and debt between vaults."
      },
      "transfer(address,address,uint128)": {
        "details": "Allow users to trigger a token transfer from themselves to a receiver through the ladle, to be used with batch"
      },
      "tweak(bytes12,bytes6,bytes6)": {
        "details": "Change a vault series or collateral."
      }
    },
    "version": 1
  },
  "userdoc": {
    "kind": "user",
    "methods": {
      "addModule(address,bool)": {
        "notice": "Treat modules as you would Ladle upgrades. Modules have unrestricted access to the Ladle storage, and can wreak havoc easily. Modules must not do any changes to any vault (owner, seriesId, ilkId) because of vault caching. Modules must not be contracts that can self-destruct because of `moduleCall`. Modules can't use `msg.value` because of `batch`."
      }
    },
    "version": 1
  },
  "storageLayout": {
    "storage": [
      {
        "astId": 16725,
        "contract": "contracts/vault/Ladle.sol:Ladle",
        "label": "borrowingFee",
        "offset": 0,
        "slot": "0",
        "type": "t_uint256"
      },
      {
        "astId": 16727,
        "contract": "contracts/vault/Ladle.sol:Ladle",
        "label": "cachedVaultId",
        "offset": 0,
        "slot": "1",
        "type": "t_bytes12"
      },
      {
        "astId": 16732,
        "contract": "contracts/vault/Ladle.sol:Ladle",
        "label": "joins",
        "offset": 0,
        "slot": "2",
        "type": "t_mapping(t_bytes6,t_contract(IJoin)2767)"
      },
      {
        "astId": 16737,
        "contract": "contracts/vault/Ladle.sol:Ladle",
        "label": "pools",
        "offset": 0,
        "slot": "3",
        "type": "t_mapping(t_bytes6,t_contract(IPool)3126)"
      },
      {
        "astId": 16741,
        "contract": "contracts/vault/Ladle.sol:Ladle",
        "label": "modules",
        "offset": 0,
        "slot": "4",
        "type": "t_mapping(t_address,t_bool)"
      },
      {
        "astId": 16745,
        "contract": "contracts/vault/Ladle.sol:Ladle",
        "label": "integrations",
        "offset": 0,
        "slot": "5",
        "type": "t_mapping(t_address,t_bool)"
      },
      {
        "astId": 16749,
        "contract": "contracts/vault/Ladle.sol:Ladle",
        "label": "tokens",
        "offset": 0,
        "slot": "6",
        "type": "t_mapping(t_address,t_bool)"
      },
      {
        "astId": 15,
        "contract": "contracts/vault/Ladle.sol:Ladle",
        "label": "_roles",
        "offset": 0,
        "slot": "7",
        "type": "t_mapping(t_bytes4,t_struct(RoleData)10_storage)"
      }
    ],
    "types": {
      "t_address": {
        "encoding": "inplace",
        "label": "address",
        "numberOfBytes": "20"
      },
      "t_bool": {
        "encoding": "inplace",
        "label": "bool",
        "numberOfBytes": "1"
      },
      "t_bytes12": {
        "encoding": "inplace",
        "label": "bytes12",
        "numberOfBytes": "12"
      },
      "t_bytes4": {
        "encoding": "inplace",
        "label": "bytes4",
        "numberOfBytes": "4"
      },
      "t_bytes6": {
        "encoding": "inplace",
        "label": "bytes6",
        "numberOfBytes": "6"
      },
      "t_contract(IJoin)2767": {
        "encoding": "inplace",
        "label": "contract IJoin",
        "numberOfBytes": "20"
      },
      "t_contract(IPool)3126": {
        "encoding": "inplace",
        "label": "contract IPool",
        "numberOfBytes": "20"
      },
      "t_mapping(t_address,t_bool)": {
        "encoding": "mapping",
        "key": "t_address",
        "label": "mapping(address => bool)",
        "numberOfBytes": "32",
        "value": "t_bool"
      },
      "t_mapping(t_bytes4,t_struct(RoleData)10_storage)": {
        "encoding": "mapping",
        "key": "t_bytes4",
        "label": "mapping(bytes4 => struct AccessControl.RoleData)",
        "numberOfBytes": "32",
        "value": "t_struct(RoleData)10_storage"
      },
      "t_mapping(t_bytes6,t_contract(IJoin)2767)": {
        "encoding": "mapping",
        "key": "t_bytes6",
        "label": "mapping(bytes6 => contract IJoin)",
        "numberOfBytes": "32",
        "value": "t_contract(IJoin)2767"
      },
      "t_mapping(t_bytes6,t_contract(IPool)3126)": {
        "encoding": "mapping",
        "key": "t_bytes6",
        "label": "mapping(bytes6 => contract IPool)",
        "numberOfBytes": "32",
        "value": "t_contract(IPool)3126"
      },
      "t_struct(RoleData)10_storage": {
        "encoding": "inplace",
        "label": "struct AccessControl.RoleData",
        "members": [
          {
            "astId": 7,
            "contract": "contracts/vault/Ladle.sol:Ladle",
            "label": "members",
            "offset": 0,
            "slot": "0",
            "type": "t_mapping(t_address,t_bool)"
          },
          {
            "astId": 9,
            "contract": "contracts/vault/Ladle.sol:Ladle",
            "label": "adminRole",
            "offset": 0,
            "slot": "1",
            "type": "t_bytes4"
          }
        ],
        "numberOfBytes": "64"
      },
      "t_uint256": {
        "encoding": "inplace",
        "label": "uint256",
        "numberOfBytes": "32"
      }
    }
  }
}