{
  "address": "0x2e711Ffa441C07B9a9E44f1287D273Cd97a87325",
  "abi": [
    {
      "anonymous": false,
      "inputs": [
        {
          "indexed": false,
          "internalType": "bytes32",
          "name": "parameter",
          "type": "bytes32"
        },
        {
          "indexed": false,
          "internalType": "int128",
          "name": "value",
          "type": "int128"
        }
      ],
      "name": "ParameterSet",
      "type": "event"
    },
    {
      "anonymous": false,
      "inputs": [
        {
          "indexed": true,
          "internalType": "address",
          "name": "base",
          "type": "address"
        },
        {
          "indexed": true,
          "internalType": "address",
          "name": "fyToken",
          "type": "address"
        },
        {
          "indexed": false,
          "internalType": "address",
          "name": "pool",
          "type": "address"
        }
      ],
      "name": "PoolCreated",
      "type": "event"
    },
    {
      "anonymous": false,
      "inputs": [
        {
          "indexed": true,
          "internalType": "bytes4",
          "name": "role",
          "type": "bytes4"
        },
        {
          "indexed": true,
          "internalType": "bytes4",
          "name": "newAdminRole",
          "type": "bytes4"
        }
      ],
      "name": "RoleAdminChanged",
      "type": "event"
    },
    {
      "anonymous": false,
      "inputs": [
        {
          "indexed": true,
          "internalType": "bytes4",
          "name": "role",
          "type": "bytes4"
        },
        {
          "indexed": true,
          "internalType": "address",
          "name": "account",
          "type": "address"
        },
        {
          "indexed": true,
          "internalType": "address",
          "name": "sender",
          "type": "address"
        }
      ],
      "name": "RoleGranted",
      "type": "event"
    },
    {
      "anonymous": false,
      "inputs": [
        {
          "indexed": true,
          "internalType": "bytes4",
          "name": "role",
          "type": "bytes4"
        },
        {
          "indexed": true,
          "internalType": "address",
          "name": "account",
          "type": "address"
        },
        {
          "indexed": true,
          "internalType": "address",
          "name": "sender",
          "type": "address"
        }
      ],
      "name": "RoleRevoked",
      "type": "event"
    },
    {
      "inputs": [],
      "name": "LOCK",
      "outputs": [
        {
          "internalType": "bytes4",
          "name": "",
          "type": "bytes4"
        }
      ],
      "stateMutability": "view",
      "type": "function"
    },
    {
      "inputs": [],
      "name": "LOCK8605463013",
      "outputs": [
        {
          "internalType": "bytes4",
          "name": "",
          "type": "bytes4"
        }
      ],
      "stateMutability": "view",
      "type": "function"
    },
    {
      "inputs": [],
      "name": "POOL_BYTECODE_HASH",
      "outputs": [
        {
          "internalType": "bytes32",
          "name": "",
          "type": "bytes32"
        }
      ],
      "stateMutability": "view",
      "type": "function"
    },
    {
      "inputs": [],
      "name": "ROOT",
      "outputs": [
        {
          "internalType": "bytes4",
          "name": "",
          "type": "bytes4"
        }
      ],
      "stateMutability": "view",
      "type": "function"
    },
    {
      "inputs": [],
      "name": "ROOT4146650865",
      "outputs": [
        {
          "internalType": "bytes4",
          "name": "",
          "type": "bytes4"
        }
      ],
      "stateMutability": "view",
      "type": "function"
    },
    {
      "inputs": [
        {
          "internalType": "address",
          "name": "base",
          "type": "address"
        },
        {
          "internalType": "address",
          "name": "fyToken",
          "type": "address"
        }
      ],
      "name": "calculatePoolAddress",
      "outputs": [
        {
          "internalType": "address",
          "name": "",
          "type": "address"
        }
      ],
      "stateMutability": "view",
      "type": "function"
    },
    {
      "inputs": [
        {
          "internalType": "address",
          "name": "base",
          "type": "address"
        },
        {
          "internalType": "address",
          "name": "fyToken",
          "type": "address"
        }
      ],
      "name": "createPool",
      "outputs": [
        {
          "internalType": "address",
          "name": "",
          "type": "address"
        }
      ],
      "stateMutability": "nonpayable",
      "type": "function"
    },
    {
      "inputs": [],
      "name": "g1",
      "outputs": [
        {
          "internalType": "int128",
          "name": "",
          "type": "int128"
        }
      ],
      "stateMutability": "view",
      "type": "function"
    },
    {
      "inputs": [],
      "name": "g2",
      "outputs": [
        {
          "internalType": "int128",
          "name": "",
          "type": "int128"
        }
      ],
      "stateMutability": "view",
      "type": "function"
    },
    {
      "inputs": [
        {
          "internalType": "address",
          "name": "base",
          "type": "address"
        },
        {
          "internalType": "address",
          "name": "fyToken",
          "type": "address"
        }
      ],
      "name": "getPool",
      "outputs": [
        {
          "internalType": "address",
          "name": "pool",
          "type": "address"
        }
      ],
      "stateMutability": "view",
      "type": "function"
    },
    {
      "inputs": [
        {
          "internalType": "bytes4",
          "name": "role",
          "type": "bytes4"
        }
      ],
      "name": "getRoleAdmin",
      "outputs": [
        {
          "internalType": "bytes4",
          "name": "",
          "type": "bytes4"
        }
      ],
      "stateMutability": "view",
      "type": "function"
    },
    {
      "inputs": [
        {
          "internalType": "bytes4",
          "name": "role",
          "type": "bytes4"
        },
        {
          "internalType": "address",
          "name": "account",
          "type": "address"
        }
      ],
      "name": "grantRole",
      "outputs": [],
      "stateMutability": "nonpayable",
      "type": "function"
    },
    {
      "inputs": [
        {
          "internalType": "bytes4[]",
          "name": "roles",
          "type": "bytes4[]"
        },
        {
          "internalType": "address",
          "name": "account",
          "type": "address"
        }
      ],
      "name": "grantRoles",
      "outputs": [],
      "stateMutability": "nonpayable",
      "type": "function"
    },
    {
      "inputs": [
        {
          "internalType": "bytes4",
          "name": "role",
          "type": "bytes4"
        },
        {
          "internalType": "address",
          "name": "account",
          "type": "address"
        }
      ],
      "name": "hasRole",
      "outputs": [
        {
          "internalType": "bool",
          "name": "",
          "type": "bool"
        }
      ],
      "stateMutability": "view",
      "type": "function"
    },
    {
      "inputs": [
        {
          "internalType": "bytes4",
          "name": "role",
          "type": "bytes4"
        }
      ],
      "name": "lockRole",
      "outputs": [],
      "stateMutability": "nonpayable",
      "type": "function"
    },
    {
      "inputs": [],
      "name": "nextBase",
      "outputs": [
        {
          "internalType": "address",
          "name": "",
          "type": "address"
        }
      ],
      "stateMutability": "view",
      "type": "function"
    },
    {
      "inputs": [],
      "name": "nextFYToken",
      "outputs": [
        {
          "internalType": "address",
          "name": "",
          "type": "address"
        }
      ],
      "stateMutability": "view",
      "type": "function"
    },
    {
      "inputs": [
        {
          "internalType": "bytes4",
          "name": "role",
          "type": "bytes4"
        },
        {
          "internalType": "address",
          "name": "account",
          "type": "address"
        }
      ],
      "name": "renounceRole",
      "outputs": [],
      "stateMutability": "nonpayable",
      "type": "function"
    },
    {
      "inputs": [
        {
          "internalType": "bytes4",
          "name": "role",
          "type": "bytes4"
        },
        {
          "internalType": "address",
          "name": "account",
          "type": "address"
        }
      ],
      "name": "revokeRole",
      "outputs": [],
      "stateMutability": "nonpayable",
      "type": "function"
    },
    {
      "inputs": [
        {
          "internalType": "bytes4[]",
          "name": "roles",
          "type": "bytes4[]"
        },
        {
          "internalType": "address",
          "name": "account",
          "type": "address"
        }
      ],
      "name": "revokeRoles",
      "outputs": [],
      "stateMutability": "nonpayable",
      "type": "function"
    },
    {
      "inputs": [
        {
          "internalType": "bytes32",
          "name": "parameter",
          "type": "bytes32"
        },
        {
          "internalType": "int128",
          "name": "value",
          "type": "int128"
        }
      ],
      "name": "setParameter",
      "outputs": [],
      "stateMutability": "nonpayable",
      "type": "function"
    },
    {
      "inputs": [
        {
          "internalType": "bytes4",
          "name": "role",
          "type": "bytes4"
        },
        {
          "internalType": "bytes4",
          "name": "adminRole",
          "type": "bytes4"
        }
      ],
      "name": "setRoleAdmin",
      "outputs": [],
      "stateMutability": "nonpayable",
      "type": "function"
    },
    {
      "inputs": [],
      "name": "ts",
      "outputs": [
        {
          "internalType": "int128",
          "name": "",
          "type": "int128"
        }
      ],
      "stateMutability": "view",
      "type": "function"
    }
  ],
  "transactionHash": "0x09259534e4f43c3aeb7f9d6a366d230a191b7c13e2198a57013993bdef2356b8",
  "args": [],
  "solcInputHash": "33ce1b88dd6eab84b0d7ae38c48ff578",
  "bytecode": "0x608060405261001b6312cf4ec068010000000000000000610216565b60038054600f9290920b6001600160801b03166001600160801b03199092169190911790556100566103e86903b60000000000000000610216565b60038054600f9290920b6001600160801b03908116600160801b02921691909117905561008f6103b66903e80000000000000000610216565b60048054600f9290920b6001600160801b03166001600160801b03199092169190911790553480156100c057600080fd5b506100cc6000336100e3565b6100de6001600160e01b03198061017a565b61024a565b6001600160e01b031982166000908152602081815260408083206001600160a01b038516845290915290205460ff16610176576001600160e01b031982166000818152602081815260408083206001600160a01b0386168085529252808320805460ff1916600117905551339391927fe6231789d19137da31d0550f4ba9ee379020a8cfb64cb79bf1790c996d2e616591a45b5050565b6001600160e01b031981166101ab836001600160e01b03191660009081526020819052604090206001015460e01b90565b6001600160e01b03191614610176576001600160e01b0319828116600081815260208190526040808220600101805463ffffffff191660e087901c17905551928416927fd348e2220a50b4500ec353f6e802d2f14dd1b5d6786148fd1bbcc570bf92d4739190a35050565b60006001600160801b038381168061023e57634e487b7160e01b600052601260045260246000fd5b92169190910492915050565b615374806200025a6000396000f3fe60806040523480156200001157600080fd5b5060043610620001315760003560e01c80156200013657806310ab9432146200015d578063209b6738146200018557806344faded014620001ab578063531aa03e14620001c4578063559742d914620001db5780635909c12f14620001365780635ba5e9f014620001f2578063687f0e4c14620002095780636970a9241462000220578063a4f0d7d01462000242578063ad82110f1462000252578063ae93c1b51462000269578063b51616aa1462000280578063bdd8a3661462000294578063c2df15d714620002a9578063d0d3fb8014620002c0578063d8406cb414620002d9578063de02cde714620002ed578063e34336151462000304578063e86d60bf146200031b578063effae3531462000329578063ffffffff1462000242575b600080fd5b6200013f600081565b6040516001600160e01b031990911681526020015b60405180910390f35b620001746200016e36600462000d1f565b62000340565b604051901515815260200162000154565b6200019c6200019636600462000ba4565b62000357565b60405162000154919062000d8f565b620001c2620001bc36600462000d1f565b62000365565b005b6200019c620001d536600462000ba4565b620003b5565b620001c2620001ec36600462000d01565b620003de565b6200013f6200020336600462000d01565b62000425565b620001c26200021a36600462000d1f565b62000432565b6004546200022e90600f0b81565b604051600f9190910b815260200162000154565b6200013f6001600160e01b031981565b620001c26200026336600462000bdc565b62000491565b620001c26200027a36600462000d3e565b62000525565b6002546200019c906001600160a01b031681565b6003546200022e90600160801b9004600f0b81565b620001c2620002ba36600462000cc9565b62000560565b620002ca620006b8565b60405190815260200162000154565b6001546200019c906001600160a01b031681565b620001c2620002fe36600462000d1f565b620006e7565b6200019c6200031536600462000ba4565b62000722565b6003546200022e90600f0b81565b620001c26200033a36600462000bdc565b62000859565b60006200034e8383620008df565b90505b92915050565b60006200034e838362000914565b816200037c6200037582620009d6565b33620008df565b620003a45760405162461bcd60e51b81526004016200039b9062000da3565b60405180910390fd5b620003b08383620009f8565b505050565b6000620003c3838362000914565b90506001600160a01b0381163b620003515750600092915050565b80620003ee6200037582620009d6565b6200040d5760405162461bcd60e51b81526004016200039b9062000da3565b62000421826001600160e01b031962000a6a565b5050565b60006200035182620009d6565b6001600160a01b0381163314620004855760405162461bcd60e51b81526020600482015260166024820152752932b737bab731b29037b7363c903337b91039b2b63360511b60448201526064016200039b565b620004218282620009f8565b60005b8251811015620003b057620004c962000375848381518110620004bb57620004bb62000e18565b6020026020010151620009d6565b620004e85760405162461bcd60e51b81526004016200039b9062000da3565b6200051083828151811062000501576200050162000e18565b602002602001015183620009f8565b806200051c8162000dee565b91505062000494565b81620005356200037582620009d6565b620005545760405162461bcd60e51b81526004016200039b9062000da3565b620003b0838362000a6a565b620005786000356001600160e01b03191633620008df565b620005975760405162461bcd60e51b81526004016200039b9062000dc7565b8161747360f01b1415620005ca57600380546001600160801b0319166001600160801b03600f84900b1617905562000678565b8161673160f01b1415620005fd5760038054600f83900b6001600160801b03908116600160801b02911617905562000678565b8161339960f11b14156200063057600480546001600160801b0319166001600160801b03600f84900b1617905562000678565b60405162461bcd60e51b815260206004820152601c60248201527b2837b7b61d102ab73932b1b7b3b734bd32b2103830b930b6b2ba32b960211b60448201526064016200039b565b60408051838152600f83900b60208201527f59ee970f5b28ebafebe6b5c0b6e43a9c66ae921f7d273677552b0eec5fad4ea4910160405180910390a15050565b604051620006c96020820162000b60565b6020820181038252601f19601f820116604052508051906020012081565b81620006f76200037582620009d6565b620007165760405162461bcd60e51b81526004016200039b9062000da3565b620003b0838362000aec565b60006200073c6000356001600160e01b03191633620008df565b6200075b5760405162461bcd60e51b81526004016200039b9062000dc7565b600180546001600160a01b038086166001600160a01b0319928316179092556002805492851692909116919091179055604051600090620007a3908590859060200162000d6d565b60405160208183030381529060405280519060200120604051620007c79062000b60565b8190604051809103906000f5905080158015620007e8573d6000803e3d6000fd5b50600180546001600160a01b03199081169091556002805490911690556040519091506001600160a01b0384811691908616907f9c5d829b9b23efc461f9aeef91979ec04bb903feb3bee4f26d22114abfc7335b906200084a90859062000d8f565b60405180910390a39392505050565b60005b8251811015620003b0576200088362000375848381518110620004bb57620004bb62000e18565b620008a25760405162461bcd60e51b81526004016200039b9062000da3565b620008ca838281518110620008bb57620008bb62000e18565b60200260200101518362000aec565b80620008d68162000dee565b9150506200085c565b6001600160e01b031982166000908152602081815260408083206001600160a01b038516845290915290205460ff1692915050565b600060ff60f81b3084846040516020016200093192919062000d6d565b6040516020818303038152906040528051906020012060405180602001620009599062000b60565b6020820181038252601f19601f8201166040525080519060200120604051602001620009b794939291906001600160f81b031994909416845260609290921b6001600160601b03191660018401526015830152603582015260550190565b60408051601f1981840301815291905280516020909101209392505050565b6001600160e01b03191660009081526020819052604090206001015460e01b90565b62000a048282620008df565b1562000421576001600160e01b031982166000818152602081815260408083206001600160a01b0386168085529252808320805460ff1916905551339391927f4ddc7b757e7bdd7254a9cd39452d307a52761bc824625c6a33104a075d8099e691a45050565b6001600160e01b0319811662000a8083620009d6565b6001600160e01b0319161462000421576001600160e01b0319828116600081815260208190526040808220600101805463ffffffff191660e087901c17905551928416927fd348e2220a50b4500ec353f6e802d2f14dd1b5d6786148fd1bbcc570bf92d4739190a35050565b62000af88282620008df565b62000421576001600160e01b031982166000818152602081815260408083206001600160a01b0386168085529252808320805460ff1916600117905551339391927fe6231789d19137da31d0550f4ba9ee379020a8cfb64cb79bf1790c996d2e616591a45050565b6144fa8062000e4583390190565b80356001600160a01b038116811462000b8657600080fd5b919050565b80356001600160e01b03198116811462000b8657600080fd5b6000806040838503121562000bb857600080fd5b62000bc38362000b6e565b915062000bd36020840162000b6e565b90509250929050565b6000806040838503121562000bf057600080fd5b82356001600160401b038082111562000c0857600080fd5b818501915085601f83011262000c1d57600080fd5b813560208282111562000c345762000c3462000e2e565b8160051b604051601f19603f8301168101818110868211171562000c5c5762000c5c62000e2e565b604052838152828101945085830182870184018b101562000c7c57600080fd5b600096505b8487101562000caa5762000c958162000b8b565b86526001969096019594830194830162000c81565b50965062000cbc905087820162000b6e565b9450505050509250929050565b6000806040838503121562000cdd57600080fd5b82359150602083013580600f0b811462000cf657600080fd5b809150509250929050565b60006020828403121562000d1457600080fd5b6200034e8262000b8b565b6000806040838503121562000d3357600080fd5b62000bc38362000b8b565b6000806040838503121562000d5257600080fd5b62000d5d8362000b8b565b915062000bd36020840162000b8b565b6001600160601b0319606093841b811682529190921b16601482015260280190565b6001600160a01b0391909116815260200190565b6020808252600a908201526927b7363c9030b236b4b760b11b604082015260600190565b6020808252600d908201526c1058d8d95cdcc819195b9a5959609a1b604082015260600190565b600060001982141562000e1157634e487b7160e01b600052601160045260246000fd5b5060010190565b634e487b7160e01b600052603260045260246000fd5b634e487b7160e01b600052604160045260246000fdfe61020060405260036101c0819052623f3f3f60e81b6101e0908152620000279190816200095d565b50604080518082019091526003808252623f3f3f60e81b602090920191825262000054916004916200095d565b506005805460ff191660121790557f6e71edae12b1b97f4d1f60370fef10105fa2faae0126114a169c64845d6126c96080523480156200009357600080fd5b5073608746FD624216250BF7C41153B1113f6FdE542363e54f7522336001600160a01b031663b51616aa6040518163ffffffff1660e01b815260040160206040518083038186803b158015620000e857600080fd5b505afa158015620000fd573d6000803e3d6000fd5b505050506040513d601f19601f8201168201806040525081019062000123919062000a03565b6040518263ffffffff1660e01b815260040162000141919062000c60565b60006040518083038186803b1580156200015a57600080fd5b505af41580156200016f573d6000803e3d6000fd5b505050506040513d6000823e601f3d908101601f1916820160405262000199919081019062000a5a565b604051602001620001ab919062000c1d565b60405160208183030381529060405273608746FD624216250BF7C41153B1113f6FdE542363033b9b4f336001600160a01b031663b51616aa6040518163ffffffff1660e01b815260040160206040518083038186803b1580156200020e57600080fd5b505afa15801562000223573d6000803e3d6000fd5b505050506040513d601f19601f8201168201806040525081019062000249919062000a03565b6040518263ffffffff1660e01b815260040162000267919062000c60565b60006040518083038186803b1580156200028057600080fd5b505af415801562000295573d6000803e3d6000fd5b505050506040513d6000823e601f3d908101601f19168201604052620002bf919081019062000a5a565b604051602001620002d1919062000bf5565b60405160208183030381529060405273608746FD624216250BF7C41153B1113f6FdE5423638ee573ac336001600160a01b031663d8406cb46040518163ffffffff1660e01b815260040160206040518083038186803b1580156200033457600080fd5b505afa15801562000349573d6000803e3d6000fd5b505050506040513d601f19601f820116820180604052508101906200036f919062000a03565b6040518263ffffffff1660e01b81526004016200038d919062000c60565b60206040518083038186803b158015620003a657600080fd5b505af4158015620003bb573d6000803e3d6000fd5b505050506040513d601f19601f82011682018060405250810190620003e1919062000b2c565b8282828260039080519060200190620003fc9291906200095d565b508151620004129060049060208501906200095d565b506005805460ff191660ff9290921691909117905550504660c08190526200043a90620008a7565b60a0818152505050505060003390506000816001600160a01b031663b51616aa6040518163ffffffff1660e01b815260040160206040518083038186803b1580156200048557600080fd5b505afa1580156200049a573d6000803e3d6000fd5b505050506040513d601f19601f82011682018060405250810190620004c0919062000a03565b90506000826001600160a01b031663d8406cb46040518163ffffffff1660e01b815260040160206040518083038186803b158015620004fe57600080fd5b505afa15801562000513573d6000803e3d6000fd5b505050506040513d601f19601f8201168201806040525081019062000539919062000a03565b6001600160601b0319606084811b82166101a05282901b16610180526040805163204f83f960e01b815290519192506000916001600160a01b0385169163204f83f9916004808301926020929190829003018186803b1580156200059c57600080fd5b505afa158015620005b1573d6000803e3d6000fd5b505050506040513d601f19601f82011682018060405250810190620005d7919062000b12565b905063ffffffff8111156200063e5760405162461bcd60e51b8152602060048201526024808201527f506f6f6c3a204d6174757269747920746f6f2066617220696e207468652066756044820152637475726560e01b606482015260840160405180910390fd5b8063ffffffff166101408163ffffffff1660e01b81525050836001600160a01b031663e86d60bf6040518163ffffffff1660e01b815260040160206040518083038186803b1580156200069057600080fd5b505afa158015620006a5573d6000803e3d6000fd5b505050506040513d601f19601f82011682018060405250810190620006cb919062000a35565b600f0b60e081600f0b60801b81525050836001600160a01b031663bdd8a3666040518163ffffffff1660e01b815260040160206040518083038186803b1580156200071557600080fd5b505afa1580156200072a573d6000803e3d6000fd5b505050506040513d601f19601f8201168201806040525081019062000750919062000a35565b600f0b61010081600f0b60801b81525050836001600160a01b0316636970a9246040518163ffffffff1660e01b815260040160206040518083038186803b1580156200079b57600080fd5b505afa158015620007b0573d6000803e3d6000fd5b505050506040513d601f19601f82011682018060405250810190620007d6919062000a35565b600f90810b900b60801b610120526040516323b95ceb60e21b815273608746FD624216250BF7C41153B1113f6FdE542390638ee573ac906200081d90859060040162000c60565b60206040518083038186803b1580156200083657600080fd5b505af41580156200084b573d6000803e3d6000fd5b505050506040513d601f19601f8201168201806040525081019062000871919062000b2c565b6200087e90601262000d7e565b6200088b90600a62000cbd565b60a01b6001600160a01b031916610160525062000e4092505050565b60007f8b73c3c69bb8fe3d512ecc4cf759cc79239f7b179b0ffacaa9a75d522b39400f6003604051620008db919062000b51565b60408051918290038220828201825260018352603160f81b602093840152815180840194909452838201527fc89efdaa54c0f20c7adf612882df0950f5a951637e0307cdcb4c672f298b8bc6606084015260808301949094523060a0808401919091528451808403909101815260c09092019093528051920191909120919050565b8280546200096b9062000dd7565b90600052602060002090601f0160209004810192826200098f5760008555620009da565b82601f10620009aa57805160ff1916838001178555620009da565b82800160010185558215620009da579182015b82811115620009da578251825591602001919060010190620009bd565b50620009e8929150620009ec565b5090565b5b80821115620009e85760008155600101620009ed565b60006020828403121562000a1657600080fd5b81516001600160a01b038116811462000a2e57600080fd5b9392505050565b60006020828403121562000a4857600080fd5b815180600f0b811462000a2e57600080fd5b60006020828403121562000a6d57600080fd5b81516001600160401b038082111562000a8557600080fd5b818401915084601f83011262000a9a57600080fd5b81518181111562000aaf5762000aaf62000e2a565b604051601f8201601f19908116603f0116810190838211818310171562000ada5762000ada62000e2a565b8160405282815287602084870101111562000af457600080fd5b62000b0783602083016020880162000da4565b979650505050505050565b60006020828403121562000b2557600080fd5b5051919050565b60006020828403121562000b3f57600080fd5b815160ff8116811462000a2e57600080fd5b600080835481600182811c91508083168062000b6e57607f831692505b602080841082141562000b8f57634e487b7160e01b86526022600452602486fd5b81801562000ba6576001811462000bb85762000be7565b60ff1986168952848901965062000be7565b60008a81526020902060005b8681101562000bdf5781548b82015290850190830162000bc4565b505084890196505b509498975050505050505050565b6000825162000c0981846020870162000da4565b6104c560f41b920191825250600201919050565b6502cb4b2b632160d51b81526000825162000c4081600685016020870162000da4565b68102628102a37b5b2b760b91b6006939091019283015250600f01919050565b6001600160a01b0391909116815260200190565b600181815b8085111562000cb557816000190482111562000c995762000c9962000e14565b8085161562000ca757918102915b93841c939080029062000c79565b509250929050565b600062000a2e60ff84168360008262000cd95750600162000d78565b8162000ce85750600062000d78565b816001811462000d01576002811462000d0c5762000d2c565b600191505062000d78565b60ff84111562000d205762000d2062000e14565b50506001821b62000d78565b5060208310610133831016604e8410600b841016171562000d51575081810a62000d78565b62000d5d838362000c74565b806000190482111562000d745762000d7462000e14565b0290505b92915050565b600060ff821660ff84168082101562000d9b5762000d9b62000e14565b90039392505050565b60005b8381101562000dc157818101518382015260200162000da7565b8381111562000dd1576000848401525b50505050565b600181811c9082168062000dec57607f821691505b6020821081141562000e0e57634e487b7160e01b600052602260045260246000fd5b50919050565b634e487b7160e01b600052601160045260246000fd5b634e487b7160e01b600052604160045260246000fd5b60805160a05160c05160e05160801c6101005160801c6101205160801c6101405160e01c6101605160a01c6101805160601c6101a05160601c6134bd6200103d600039600081816105d601528181610d6c01528181610e4e0152818161129d0152818161171801528181611e0b015261228e0152600081816103ac015281816109bc01528181610bb80152818161113f01528181611678015281816119c201528181611dd1015261267e0152600081816103e80152818161142f01528181611480015281816114b301528181611b9001528181611bf301528181611c4301528181612062015281816120b3015281816120e6015281816123880152818161276b015281816127bc01526127ef0152600081816102d401528181610a0801528181610c0401528181610db8015281816112e9015281816113e0015281816114df01528181611a1901528181611c8401528181611e5201528181612015015281816121120152818161233b0152818161271c015261281b01526000818161042701528181611ccb015261215901526000818161052d01528181611526015261286201526000818161063e0152818161150501528181611caa015281816121380152612841015260008181610574015281816107f30152610f6f0152600081816108290152610fa401526000818161035e0152610ee601526134bd6000f3fe608060405234801561001057600080fd5b50600436106101e35760003560e01c806306fdde03146101e8578063095ea7b3146102065780630a0d86861461022957806313e7bc8c1461026457806318160ddd1461028f5780631eb728fc146102a1578063204f83f9146102cf578063210a49911461030b57806323b872dd1461033357806327bab0631461034657806330adf81f14610359578063313ce567146103805780633644e5151461039f5780635001f3b5146103a757806354fd4d50146103db578063683dd191146103e35780636970a9241461042257806370a082311461045c5780637ecebe001461048557806395d89b41146104a55780639ebdc9b4146104ad578063a9059cbb146104c0578063aea0f201146104d3578063b0f28921146104dc578063b3f1c93d146104ef578063bc3d1c4e14610502578063bcc1694f14610515578063bdd8a36614610528578063c03edd221461054f578063cd0d00961461056f578063d3d00f2414610596578063d505accf146105a9578063d7020d0a146105be578063dc3bfba9146105d1578063dd363371146105f8578063dd62ed3e14610600578063e86d60bf14610639578063fa29687914610660578063fdb0732d14610673578063fe2846b114610686578063fff6cae914610699575b600080fd5b6101f06106a1565b6040516101fd9190612fa0565b60405180910390f35b610219610214366004612d56565b61072f565b60405190151581526020016101fd565b600754604080516001600160701b038084168252600160701b8404166020820152600160e01b90920463ffffffff16908201526060016101fd565b610277610272366004612e81565b610743565b6040516001600160801b0390911681526020016101fd565b6000545b6040519081526020016101fd565b6102b46102af366004612c16565b610770565b604080519384526020840192909252908201526060016101fd565b6102f67f000000000000000000000000000000000000000000000000000000000000000081565b60405163ffffffff90911681526020016101fd565b61031e610319366004612d80565b610793565b604080519283526020830191909152016101fd565b610219610341366004612b98565b6107b2565b610277610354366004612e81565b6107ca565b6102937f000000000000000000000000000000000000000000000000000000000000000081565b60055461038d9060ff1681565b60405160ff90911681526020016101fd565b6102936107ef565b6103ce7f000000000000000000000000000000000000000000000000000000000000000081565b6040516101fd9190612f8c565b6101f061084b565b61040a7f000000000000000000000000000000000000000000000000000000000000000081565b6040516001600160601b0390911681526020016101fd565b6104497f000000000000000000000000000000000000000000000000000000000000000081565b604051600f9190910b81526020016101fd565b61029361046a366004612b4a565b6001600160a01b031660009081526001602052604090205490565b610293610493366004612b4a565b60066020526000908152604090205481565b6101f0610866565b6102776104bb366004612d0d565b610873565b6102196104ce366004612d56565b610a76565b61029360085481565b6102776104ea366004612e81565b610a83565b6102b46104fd366004612bd4565b610aa8565b610277610510366004612cd6565b610acb565b610277610523366004612cd6565b610c73565b6104497f000000000000000000000000000000000000000000000000000000000000000081565b610557610e04565b6040516001600160701b0390911681526020016101fd565b6102937f000000000000000000000000000000000000000000000000000000000000000081565b6102776105a4366004612b4a565b610e0e565b6105bc6105b7366004612c63565b610e7a565b005b6102b46105cc366004612bd4565b6110e9565b6103ce7f000000000000000000000000000000000000000000000000000000000000000081565b6105576110fc565b61029361060e366004612b65565b6001600160a01b03918216600090815260026020908152604080832093909416825291909152205490565b6104497f000000000000000000000000000000000000000000000000000000000000000081565b61027761066e366004612b4a565b611106565b610277610681366004612e81565b611166565b610277610694366004612d0d565b61118b565b6105bc611335565b600380546106ae90613332565b80601f01602080910402602001604051908101604052809291908181526020018280546106da90613332565b80156107275780601f106106fc57610100808354040283529160200191610727565b820191906000526020600020905b81548152906001019060200180831161070a57829003601f168201915b505050505081565b600061073c338484611373565b9392505050565b6007546000906001600160701b0380821691600160701b9004166107688483836113dc565b949350505050565b60008060006107828888888888611648565b925092509250955095509592505050565b6000806107a585600060018787611a8f565b5090969095509350505050565b60006107be8483611ebc565b50610768848484611f64565b6007546000906001600160701b0380821691600160701b900416610768848383612011565b60007f0000000000000000000000000000000000000000000000000000000000000000461461082657610821466121f3565b905090565b507f000000000000000000000000000000000000000000000000000000000000000090565b6040805180820190915260018152603160f81b602082015290565b600480546106ae90613332565b60008061087e612284565b6007546001600160701b03918216925080821691600160701b9091041660006108a8878484612337565b90506001600160801b0381166108c76001600160701b038416866132ae565b6001600160801b031610156109215760405162461bcd60e51b815260206004820152601b60248201527a2837b7b61d102737ba1032b737bab3b410333caa37b5b2b71034b760291b60448201526064015b60405180910390fd5b856001600160801b0316816001600160801b0316111561097f5760405162461bcd60e51b81526020600482015260196024820152782837b7b61d102a37b79036bab1b410333caa37b5b2b71034b760391b6044820152606401610918565b6109af610995886001600160701b0386166132ae565b6109a8836001600160701b038616613195565b85856123cc565b6109ec6001600160a01b037f000000000000000000000000000000000000000000000000000000000000000016896001600160801b038a1661254c565b6001600160a01b038816336000805160206134488339815191527f0000000000000000000000000000000000000000000000000000000000000000610a396001600160801b038c16612641565b610a4b866001600160801b0316612641565b610a5490613388565b604051610a6393929190613150565b60405180910390a3979650505050505050565b600061073c338484611f64565b6007546000906001600160701b0380821691600160701b900416610768848383612337565b6000806000610abb878760008888611648565b9250925092509450945094915050565b6007546000906001600160701b0380821691600160701b90041682610aee612284565b90506000610afa612677565b90506000610b088484613286565b6001600160701b031690506000610b20828787612011565b9050876001600160801b0316816001600160801b03161015610b845760405162461bcd60e51b815260206004820152601e60248201527f506f6f6c3a204e6f7420656e6f7567682062617365206f627461696e656400006044820152606401610918565b610bab610b9a826001600160701b0386166132ae565b856001600160701b031688886123cc565b610be86001600160a01b037f0000000000000000000000000000000000000000000000000000000000000000168a6001600160801b03841661254c565b6001600160a01b038916336000805160206134488339815191527f0000000000000000000000000000000000000000000000000000000000000000610c356001600160801b038616612641565b610c47876001600160801b0316612641565b610c5090613388565b604051610c5f93929190613150565b60405180910390a398975050505050505050565b6007546000906001600160701b0380821691600160701b90041682610c96612677565b90506000610ca2612284565b90506000610cb08584613286565b6001600160701b031690506000610cc88287856113dc565b9050876001600160801b0316816001600160801b03161015610d365760405162461bcd60e51b815260206004820152602160248201527f506f6f6c3a204e6f7420656e6f756768206679546f6b656e206f627461696e656044820152601960fa1b6064820152608401610918565b610d5f846001600160701b031682856001600160701b0316610d5891906132ae565b88886123cc565b610d9c6001600160a01b037f0000000000000000000000000000000000000000000000000000000000000000168a6001600160801b03841661254c565b6001600160a01b038916336000805160206134488339815191527f0000000000000000000000000000000000000000000000000000000000000000610de96001600160801b038716612641565b610df290613388565b610c50866001600160801b0316612641565b6000610821612284565b600754600090600160701b90046001600160701b0316610e2c612284565b610e369190613286565b6001600160701b03169050610e756001600160a01b037f000000000000000000000000000000000000000000000000000000000000000016838361254c565b919050565b42841015610eca5760405162461bcd60e51b815260206004820152601d60248201527f45524332305065726d69743a206578706972656420646561646c696e650000006044820152606401610918565b6001600160a01b038716600090815260066020526040812080547f0000000000000000000000000000000000000000000000000000000000000000918a918a918a919086610f178361336d565b909155506040805160208101969096526001600160a01b0394851690860152929091166060840152608083015260a082015260c0810186905260e00160405160208183030381529060405280519060200120905060007f00000000000000000000000000000000000000000000000000000000000000004614610fa257610f9d466121f3565b610fc4565b7f00000000000000000000000000000000000000000000000000000000000000005b60405161190160f01b602082015260228101919091526042810183905260620160408051601f198184030181528282528051602091820120600080855291840180845281905260ff89169284019290925260608301879052608083018690529092509060019060a0016020604051602081039080840390855afa15801561104f573d6000803e3d6000fd5b5050604051601f1901519150506001600160a01b038116158015906110855750896001600160a01b0316816001600160a01b0316145b6110d15760405162461bcd60e51b815260206004820152601e60248201527f45524332305065726d69743a20696e76616c6964207369676e617475726500006044820152606401610918565b6110dc8a8a8a611373565b5050505050505050505050565b6000806000610abb878760008888611a8f565b6000610821612677565b6007546000906001600160701b031661111d612677565b6111279190613286565b6001600160701b03169050610e756001600160a01b037f000000000000000000000000000000000000000000000000000000000000000016838361254c565b6007546000906001600160701b0380821691600160701b900416610768848383612718565b600080611196612677565b6007546001600160701b03918216925080821691600160701b9091041660006111c0878484612718565b90506001600160801b0381166111df6001600160701b038516866132ae565b6001600160801b031610156112065760405162461bcd60e51b815260040161091890613057565b856001600160801b0316816001600160801b031611156112675760405162461bcd60e51b815260206004820152601c60248201527b2837b7b61d102a37b79036bab1b4103130b9b2903a37b5b2b71034b760211b6044820152606401610918565b61129061127d826001600160701b038616613195565b6109a8896001600160701b0386166132ae565b6112cd6001600160a01b037f000000000000000000000000000000000000000000000000000000000000000016896001600160801b038a1661254c565b6001600160a01b038816336000805160206134488339815191527f000000000000000000000000000000000000000000000000000000000000000061131a6001600160801b038616612641565b61132390613388565b610a548c6001600160801b0316612641565b611371611340612677565b6001600160701b0316611351612284565b6007546001600160701b039182169181811691600160701b9004166123cc565b565b6001600160a01b03838116600081815260026020908152604080832094871680845294825280832086905551858152919392917f8c5be1e5ebec7d5bd14f71427d1e84f3dd0314c0f7b2291e5b200ac8c7c3b92591015b60405180910390a35060019392505050565b60007f000000000000000000000000000000000000000000000000000000000000000063ffffffff1642106114235760405162461bcd60e51b815260040161091890612fd3565b60006001600160601b037f00000000000000000000000000000000000000000000000000000000000000001673aAce8Db985F05794634b39739ccD7a049Cd8CB8d63405289326114738388613212565b6114a66001600160601b037f00000000000000000000000000000000000000000000000000000000000000001688613212565b6114d96001600160601b037f0000000000000000000000000000000000000000000000000000000000000000168b613241565b611503427f00000000000000000000000000000000000000000000000000000000000000006132e5565b7f00000000000000000000000000000000000000000000000000000000000000007f00000000000000000000000000000000000000000000000000000000000000006040518763ffffffff1660e01b8152600401611566969594939291906130c4565b60206040518083038186803b15801561157e57600080fd5b505af4158015611592573d6000803e3d6000fd5b505050506040513d601f19601f820116820180604052508101906115b69190612e9e565b6115c091906131d8565b90506115d5856001600160701b038616613195565b6001600160801b03166115f1826001600160701b0386166132ae565b6001600160801b031610156107685760405162461bcd60e51b815260206004820152601d60248201527f506f6f6c3a206679546f6b656e2062616c616e636520746f6f206c6f770000006044820152606401610918565b60008054600754829182916001600160701b0380821691600160701b9004168361167284836132ce565b905060007f00000000000000000000000000000000000000000000000000000000000000006001600160a01b03166370a08231306040518263ffffffff1660e01b81526004016116c29190612f8c565b60206040518083038186803b1580156116da57600080fd5b505afa1580156116ee573d6000803e3d6000fd5b505050506040513d601f19601f820116820180604052508101906117129190612ebb565b905060007f00000000000000000000000000000000000000000000000000000000000000006001600160a01b03166370a08231306040518263ffffffff1660e01b81526004016117629190612f8c565b60206040518083038186803b15801561177a57600080fd5b505afa15801561178e573d6000803e3d6000fd5b505050506040513d601f19601f820116820180604052508101906117b29190612ebb565b905060006117c96001600160701b038716846132ce565b905083158061182d57508b846117f06001600160701b038916670de0b6b3a7640000613267565b6117fa91906131fe565b1015801561182d57508a846118206001600160701b038916670de0b6b3a7640000613267565b61182a91906131fe565b11155b6118495760405162461bcd60e51b81526004016109189061308e565b866118595780995089975061194e565b83611886579850886001600160701b0386166118758289613267565b61187f91906131fe565b975061194e565b60008d156118bf576118b361189a8f61291b565b886001600160701b0316886001600160701b0316612718565b6001600160801b031690505b6118c985846132ce565b99506118d58e866132ce565b8a8f6118e191906131c0565b6118eb908a613267565b6118f591906131fe565b9850878961190c836001600160701b038b166131c0565b6119169190613267565b61192091906131fe565b61192a90826131c0565b9a508a82101561194c5760405162461bcd60e51b815260040161091890613057565b505b61198d61196c6119678c6001600160701b038a166131c0565b61291b565b610d588a6119838d6001600160701b038b166131c0565b61196791906131c0565b6119978f89612944565b5060006119a48b836132ce565b11156119e9576119e98e6119b88c846132ce565b6001600160a01b037f000000000000000000000000000000000000000000000000000000000000000016919061254c565b60006001600160a01b03168f6001600160a01b0316336001600160a01b03166000805160206134288339815191527f0000000000000000000000000000000000000000000000000000000000000000611a418f6129cc565b611a4a906133b0565b611a538f6129cc565b611a5c906133b0565b611a658f6129cc565b604051611a759493929190613172565b60405180910390a450505050505050955095509592505050565b3060009081526001602052604081205481546007549192918291906001600160701b0380821691600160701b90041683611ac984836132ce565b9050801580611b2d57508881611af06001600160701b038616670de0b6b3a7640000613267565b611afa91906131fe565b10158015611b2d57508781611b206001600160701b038616670de0b6b3a7640000613267565b611b2a91906131fe565b11155b611b495760405162461bcd60e51b81526004016109189061308e565b83611b5d6001600160701b03851689613267565b611b6791906131fe565b955083611b748289613267565b611b7e91906131fe565b94508915611d7f576001600160601b037f00000000000000000000000000000000000000000000000000000000000000001673aAce8Db985F05794634b39739ccD7a049Cd8CB8d63e03824d682611bd48a61291b565b611be7906001600160701b0389166132ae565b611bf19190613241565b7f00000000000000000000000000000000000000000000000000000000000000006001600160601b0316611c248a61291b565b611c37906001600160701b0389166132ae565b611c419190613241565b7f00000000000000000000000000000000000000000000000000000000000000006001600160601b0316611c748b61291b565b611c7e9190613241565b611ca8427f00000000000000000000000000000000000000000000000000000000000000006132e5565b7f00000000000000000000000000000000000000000000000000000000000000007f00000000000000000000000000000000000000000000000000000000000000006040518763ffffffff1660e01b8152600401611d0b9695949392919061310f565b60206040518083038186803b158015611d2357600080fd5b505af4158015611d37573d6000803e3d6000fd5b505050506040513d601f19601f82011682018060405250810190611d5b9190612e9e565b611d6591906131d8565b611d78906001600160801b0316876131c0565b9550600094505b611db9611d98611967886001600160701b0387166132ce565b6109a889611daf896001600160701b0388166132ce565b61196791906132ce565b611dc330886129f5565b50611df86001600160a01b037f0000000000000000000000000000000000000000000000000000000000000000168d8861254c565b8415611e3257611e326001600160a01b037f0000000000000000000000000000000000000000000000000000000000000000168c8761254c565b6001600160a01b03808c16908d16336000805160206134288339815191527f0000000000000000000000000000000000000000000000000000000000000000611e7a8b6129cc565b611e838b6129cc565b611e8c8e6129cc565b611e95906133b0565b604051611ea59493929190613172565b60405180910390a450505050955095509592505050565b60006001600160a01b0383163314611f5b576001600160a01b03831660009081526002602090815260408083203384529091529020546000198114611f595782811015611f4a5760405162461bcd60e51b815260206004820152601c60248201527b115490cc8c0e88125b9cdd59999a58da595b9d08185c1c1c9bdd985b60221b6044820152606401610918565b611f578433858403611373565b505b505b50600192915050565b6001600160a01b038316600090815260016020526040812054821115611f9c5760405162461bcd60e51b815260040161091890613022565b6001600160a01b038085166000908152600160205260408082208054869003905591851681522054611fcf9083906131c0565b6001600160a01b038085166000818152600160205260409081902093909355915190861690600080516020613468833981519152906113ca9086815260200190565b60007f000000000000000000000000000000000000000000000000000000000000000063ffffffff1642106120585760405162461bcd60e51b815260040161091890612fd3565b6001600160601b037f00000000000000000000000000000000000000000000000000000000000000001673aAce8Db985F05794634b39739ccD7a049Cd8CB8d63e03824d66120a68387613212565b6120d96001600160601b037f00000000000000000000000000000000000000000000000000000000000000001687613212565b61210c6001600160601b037f0000000000000000000000000000000000000000000000000000000000000000168a613241565b612136427f00000000000000000000000000000000000000000000000000000000000000006132e5565b7f00000000000000000000000000000000000000000000000000000000000000007f00000000000000000000000000000000000000000000000000000000000000006040518763ffffffff1660e01b8152600401612199969594939291906130c4565b60206040518083038186803b1580156121b157600080fd5b505af41580156121c5573d6000803e3d6000fd5b505050506040513d601f19601f820116820180604052508101906121e99190612e9e565b61076891906131d8565b60007f8b73c3c69bb8fe3d512ecc4cf759cc79239f7b179b0ffacaa9a75d522b39400f60036040516122259190612ef0565b604051809103902061223561084b565b80516020918201206040805192830194909452928101919091526060810191909152608081018390523060a082015260c001604051602081830303815290604052805190602001209050919050565b60006108216000547f00000000000000000000000000000000000000000000000000000000000000006001600160a01b03166370a08231306040518263ffffffff1660e01b81526004016122d89190612f8c565b60206040518083038186803b1580156122f057600080fd5b505afa158015612304573d6000803e3d6000fd5b505050506040513d601f19601f820116820180604052508101906123289190612ebb565b61233291906131c0565b612a73565b60007f000000000000000000000000000000000000000000000000000000000000000063ffffffff16421061237e5760405162461bcd60e51b815260040161091890612fd3565b6001600160601b037f00000000000000000000000000000000000000000000000000000000000000001673aAce8Db985F05794634b39739ccD7a049Cd8CB8d639a7d15706120a68387613212565b60075442906000906123eb90600160e01b900463ffffffff16836132e5565b905060008163ffffffff1611801561240b57506001600160701b03841615155b801561241f57506001600160701b03831615155b156124825760006124446001600160701b038516676765c793fa10079d601b1b613267565b90506001600160701b03851661246063ffffffff841683613267565b61246a91906131fe565b6008600082825461247b91906131c0565b9091555050505b612494866001600160801b0316612a9c565b600780546001600160701b0319166001600160701b03929092169190911790556124c66001600160801b038616612a9c565b600780546001600160701b03908116600160701b93821684026001600160e01b031617600160e01b63ffffffff8716021791829055600854604080518484168152949093049091166020840152908201527f17be3acebd510daa18778e1ee1fbaf88237b124dc0803c3be2fd4f99f3e69d339060600160405180910390a1505050505050565b604080516001600160a01b038481166024830152604480830185905283518084039091018152606490920183526020820180516001600160e01b031663a9059cbb60e01b17905291516000928392908716916125a89190612ed4565b6000604051808303816000865af19150503d80600081146125e5576040519150601f19603f3d011682016040523d82523d6000602084013e6125ea565b606091505b50915091508180156126145750805115806126145750808060200190518101906126149190612db3565b61263a5761262181612ace565b60405162461bcd60e51b81526004016109189190612fa0565b5050505050565b600060016001607f1b036001600160801b03831611156126735760405162461bcd60e51b815260040161091890612ffb565b5090565b60006108217f00000000000000000000000000000000000000000000000000000000000000006001600160a01b03166370a08231306040518263ffffffff1660e01b81526004016126c89190612f8c565b60206040518083038186803b1580156126e057600080fd5b505afa1580156126f4573d6000803e3d6000fd5b505050506040513d601f19601f820116820180604052508101906123329190612ebb565b60007f000000000000000000000000000000000000000000000000000000000000000063ffffffff16421061275f5760405162461bcd60e51b815260040161091890612fd3565b60006001600160601b037f00000000000000000000000000000000000000000000000000000000000000001673aAce8Db985F05794634b39739ccD7a049Cd8CB8d635fd8dc086127af8388613241565b6127e26001600160601b037f00000000000000000000000000000000000000000000000000000000000000001688613241565b6128156001600160601b037f0000000000000000000000000000000000000000000000000000000000000000168b613241565b61283f427f00000000000000000000000000000000000000000000000000000000000000006132e5565b7f00000000000000000000000000000000000000000000000000000000000000007f00000000000000000000000000000000000000000000000000000000000000006040518763ffffffff1660e01b81526004016128a29695949392919061310f565b60206040518083038186803b1580156128ba57600080fd5b505af41580156128ce573d6000803e3d6000fd5b505050506040513d601f19601f820116820180604052508101906128f29190612e9e565b6128fc91906131d8565b90506129088185613195565b6001600160801b03166115f186856132ae565b60006001600160801b038211156126735760405162461bcd60e51b815260040161091890612ffb565b6001600160a01b0382166000908152600160205260408120546129689083906131c0565b6001600160a01b038416600090815260016020526040812091909155546129909083906131c0565b60009081556040518381526001600160a01b0385169190600080516020613468833981519152906020015b60405180910390a350600192915050565b60006001600160ff1b038211156126735760405162461bcd60e51b815260040161091890612ffb565b6001600160a01b038216600090815260016020526040812054821115612a2d5760405162461bcd60e51b815260040161091890613022565b6001600160a01b038316600081815260016020908152604080832080548790039055825486900383555185815291929160008051602061346883398151915291016129bb565b60006001600160701b038211156126735760405162461bcd60e51b815260040161091890612ffb565b60006001600160701b036001600160801b03831611156126735760405162461bcd60e51b815260040161091890612ffb565b6060604482511015612b1357505060408051808201909152601d81527f5472616e73616374696f6e2072657665727465642073696c656e746c79000000602082015290565b60048201915081806020019051810190612b2d9190612dd5565b92915050565b80356001600160a01b0381168114610e7557600080fd5b600060208284031215612b5c57600080fd5b61073c82612b33565b60008060408385031215612b7857600080fd5b612b8183612b33565b9150612b8f60208401612b33565b90509250929050565b600080600060608486031215612bad57600080fd5b612bb684612b33565b9250612bc460208501612b33565b9150604084013590509250925092565b60008060008060808587031215612bea57600080fd5b612bf385612b33565b9350612c0160208601612b33565b93969395505050506040820135916060013590565b600080600080600060a08688031215612c2e57600080fd5b612c3786612b33565b9450612c4560208701612b33565b94979496505050506040830135926060810135926080909101359150565b600080600080600080600060e0888a031215612c7e57600080fd5b612c8788612b33565b9650612c9560208901612b33565b95506040880135945060608801359350608088013560ff81168114612cb957600080fd5b9699959850939692959460a0840135945060c09093013592915050565b60008060408385031215612ce957600080fd5b612cf283612b33565b91506020830135612d028161340f565b809150509250929050565b600080600060608486031215612d2257600080fd5b612d2b84612b33565b92506020840135612d3b8161340f565b91506040840135612d4b8161340f565b809150509250925092565b60008060408385031215612d6957600080fd5b612d7283612b33565b946020939093013593505050565b600080600060608486031215612d9557600080fd5b612d9e84612b33565b95602085013595506040909401359392505050565b600060208284031215612dc557600080fd5b8151801515811461073c57600080fd5b600060208284031215612de757600080fd5b81516001600160401b0380821115612dfe57600080fd5b818401915084601f830112612e1257600080fd5b815181811115612e2457612e246133f9565b604051601f8201601f19908116603f01168101908382118183101715612e4c57612e4c6133f9565b81604052828152876020848701011115612e6557600080fd5b612e76836020830160208801613302565b979650505050505050565b600060208284031215612e9357600080fd5b813561073c8161340f565b600060208284031215612eb057600080fd5b815161073c8161340f565b600060208284031215612ecd57600080fd5b5051919050565b60008251612ee6818460208701613302565b9190910192915050565b600080835481600182811c915080831680612f0c57607f831692505b6020808410821415612f2c57634e487b7160e01b86526022600452602486fd5b818015612f405760018114612f5157612f7e565b60ff19861689528489019650612f7e565b60008a81526020902060005b86811015612f765781548b820152908501908301612f5d565b505084890196505b509498975050505050505050565b6001600160a01b0391909116815260200190565b6020815260008251806020840152612fbf816040850160208701613302565b601f01601f19169190910160400192915050565b6020808252600e908201526d506f6f6c3a20546f6f206c61746560901b604082015260600190565b6020808252600d908201526c43617374206f766572666c6f7760981b604082015260600190565b6020808252601b908201527a45524332303a20496e73756666696369656e742062616c616e636560281b604082015260600190565b6020808252601e908201527f506f6f6c3a204e6f7420656e6f756768206261736520746f6b656e20696e0000604082015260600190565b6020808252601c908201527b141bdbdb0e8814995cd95c9d995cc81c985d1a5bc818da185b99d95960221b604082015260600190565b6001600160701b0396871681529490951660208501526001600160801b0392909216604084015263ffffffff166060830152600f90810b60808301529190910b60a082015260c00190565b6001600160801b039687168152948616602086015292909416604084015263ffffffff166060830152600f92830b608083015290910b60a082015260c00190565b63ffffffff939093168352600f91820b6020840152900b604082015260600190565b63ffffffff94909416845260208401929092526040830152606082015260800190565b60006001600160801b038281168482168083038211156131b7576131b76133cd565b01949350505050565b600082198211156131d3576131d36133cd565b500190565b60006001600160801b03838116806131f2576131f26133e3565b92169190910492915050565b60008261320d5761320d6133e3565b500490565b60006001600160701b0382811684821681151582840482111615613238576132386133cd565b02949350505050565b60006001600160801b0382811684821681151582840482111615613238576132386133cd565b6000816000190483118215151615613281576132816133cd565b500290565b60006001600160701b03838116908316818110156132a6576132a66133cd565b039392505050565b60006001600160801b03838116908316818110156132a6576132a66133cd565b6000828210156132e0576132e06133cd565b500390565b600063ffffffff838116908316818110156132a6576132a66133cd565b60005b8381101561331d578181015183820152602001613305565b8381111561332c576000848401525b50505050565b600181811c9082168061334657607f821691505b6020821081141561336757634e487b7160e01b600052602260045260246000fd5b50919050565b6000600019821415613381576133816133cd565b5060010190565b6000600f82900b60016001607f1b03198114156133a7576133a76133cd565b60000392915050565b6000600160ff1b8214156133c6576133c66133cd565b5060000390565b634e487b7160e01b600052601160045260246000fd5b634e487b7160e01b600052601260045260246000fd5b634e487b7160e01b600052604160045260246000fd5b6001600160801b038116811461342457600080fd5b5056fe05e533e65fa7a345b42a006257cdd31febe912eacbbaaa92299c7a931895c529b8aaa3347fac66c4197e2ddb56d1b1e06fa6f7ae158c01cb2e7f9f9efb4975bbddf252ad1be2c89b69c2b068fc378daa952ba7f163c4a11628f55a4df523b3efa26469706673582212200f5c95d7666cbd8c9cd99649830d664432f011bb983190438a59ff88489d283464736f6c63430008060033a26469706673582212203ef556801cb71cb001e6a159a09b035c2403a2e064a6fe7bfa66f2cae0aa1cc564736f6c63430008060033",
  "deployedBytecode": "0x60806040523480156200001157600080fd5b5060043610620001315760003560e01c80156200013657806310ab9432146200015d578063209b6738146200018557806344faded014620001ab578063531aa03e14620001c4578063559742d914620001db5780635909c12f14620001365780635ba5e9f014620001f2578063687f0e4c14620002095780636970a9241462000220578063a4f0d7d01462000242578063ad82110f1462000252578063ae93c1b51462000269578063b51616aa1462000280578063bdd8a3661462000294578063c2df15d714620002a9578063d0d3fb8014620002c0578063d8406cb414620002d9578063de02cde714620002ed578063e34336151462000304578063e86d60bf146200031b578063effae3531462000329578063ffffffff1462000242575b600080fd5b6200013f600081565b6040516001600160e01b031990911681526020015b60405180910390f35b620001746200016e36600462000d1f565b62000340565b604051901515815260200162000154565b6200019c6200019636600462000ba4565b62000357565b60405162000154919062000d8f565b620001c2620001bc36600462000d1f565b62000365565b005b6200019c620001d536600462000ba4565b620003b5565b620001c2620001ec36600462000d01565b620003de565b6200013f6200020336600462000d01565b62000425565b620001c26200021a36600462000d1f565b62000432565b6004546200022e90600f0b81565b604051600f9190910b815260200162000154565b6200013f6001600160e01b031981565b620001c26200026336600462000bdc565b62000491565b620001c26200027a36600462000d3e565b62000525565b6002546200019c906001600160a01b031681565b6003546200022e90600160801b9004600f0b81565b620001c2620002ba36600462000cc9565b62000560565b620002ca620006b8565b60405190815260200162000154565b6001546200019c906001600160a01b031681565b620001c2620002fe36600462000d1f565b620006e7565b6200019c6200031536600462000ba4565b62000722565b6003546200022e90600f0b81565b620001c26200033a36600462000bdc565b62000859565b60006200034e8383620008df565b90505b92915050565b60006200034e838362000914565b816200037c6200037582620009d6565b33620008df565b620003a45760405162461bcd60e51b81526004016200039b9062000da3565b60405180910390fd5b620003b08383620009f8565b505050565b6000620003c3838362000914565b90506001600160a01b0381163b620003515750600092915050565b80620003ee6200037582620009d6565b6200040d5760405162461bcd60e51b81526004016200039b9062000da3565b62000421826001600160e01b031962000a6a565b5050565b60006200035182620009d6565b6001600160a01b0381163314620004855760405162461bcd60e51b81526020600482015260166024820152752932b737bab731b29037b7363c903337b91039b2b63360511b60448201526064016200039b565b620004218282620009f8565b60005b8251811015620003b057620004c962000375848381518110620004bb57620004bb62000e18565b6020026020010151620009d6565b620004e85760405162461bcd60e51b81526004016200039b9062000da3565b6200051083828151811062000501576200050162000e18565b602002602001015183620009f8565b806200051c8162000dee565b91505062000494565b81620005356200037582620009d6565b620005545760405162461bcd60e51b81526004016200039b9062000da3565b620003b0838362000a6a565b620005786000356001600160e01b03191633620008df565b620005975760405162461bcd60e51b81526004016200039b9062000dc7565b8161747360f01b1415620005ca57600380546001600160801b0319166001600160801b03600f84900b1617905562000678565b8161673160f01b1415620005fd5760038054600f83900b6001600160801b03908116600160801b02911617905562000678565b8161339960f11b14156200063057600480546001600160801b0319166001600160801b03600f84900b1617905562000678565b60405162461bcd60e51b815260206004820152601c60248201527b2837b7b61d102ab73932b1b7b3b734bd32b2103830b930b6b2ba32b960211b60448201526064016200039b565b60408051838152600f83900b60208201527f59ee970f5b28ebafebe6b5c0b6e43a9c66ae921f7d273677552b0eec5fad4ea4910160405180910390a15050565b604051620006c96020820162000b60565b6020820181038252601f19601f820116604052508051906020012081565b81620006f76200037582620009d6565b620007165760405162461bcd60e51b81526004016200039b9062000da3565b620003b0838362000aec565b60006200073c6000356001600160e01b03191633620008df565b6200075b5760405162461bcd60e51b81526004016200039b9062000dc7565b600180546001600160a01b038086166001600160a01b0319928316179092556002805492851692909116919091179055604051600090620007a3908590859060200162000d6d565b60405160208183030381529060405280519060200120604051620007c79062000b60565b8190604051809103906000f5905080158015620007e8573d6000803e3d6000fd5b50600180546001600160a01b03199081169091556002805490911690556040519091506001600160a01b0384811691908616907f9c5d829b9b23efc461f9aeef91979ec04bb903feb3bee4f26d22114abfc7335b906200084a90859062000d8f565b60405180910390a39392505050565b60005b8251811015620003b0576200088362000375848381518110620004bb57620004bb62000e18565b620008a25760405162461bcd60e51b81526004016200039b9062000da3565b620008ca838281518110620008bb57620008bb62000e18565b60200260200101518362000aec565b80620008d68162000dee565b9150506200085c565b6001600160e01b031982166000908152602081815260408083206001600160a01b038516845290915290205460ff1692915050565b600060ff60f81b3084846040516020016200093192919062000d6d565b6040516020818303038152906040528051906020012060405180602001620009599062000b60565b6020820181038252601f19601f8201166040525080519060200120604051602001620009b794939291906001600160f81b031994909416845260609290921b6001600160601b03191660018401526015830152603582015260550190565b60408051601f1981840301815291905280516020909101209392505050565b6001600160e01b03191660009081526020819052604090206001015460e01b90565b62000a048282620008df565b1562000421576001600160e01b031982166000818152602081815260408083206001600160a01b0386168085529252808320805460ff1916905551339391927f4ddc7b757e7bdd7254a9cd39452d307a52761bc824625c6a33104a075d8099e691a45050565b6001600160e01b0319811662000a8083620009d6565b6001600160e01b0319161462000421576001600160e01b0319828116600081815260208190526040808220600101805463ffffffff191660e087901c17905551928416927fd348e2220a50b4500ec353f6e802d2f14dd1b5d6786148fd1bbcc570bf92d4739190a35050565b62000af88282620008df565b62000421576001600160e01b031982166000818152602081815260408083206001600160a01b0386168085529252808320805460ff1916600117905551339391927fe6231789d19137da31d0550f4ba9ee379020a8cfb64cb79bf1790c996d2e616591a45050565b6144fa8062000e4583390190565b80356001600160a01b038116811462000b8657600080fd5b919050565b80356001600160e01b03198116811462000b8657600080fd5b6000806040838503121562000bb857600080fd5b62000bc38362000b6e565b915062000bd36020840162000b6e565b90509250929050565b6000806040838503121562000bf057600080fd5b82356001600160401b038082111562000c0857600080fd5b818501915085601f83011262000c1d57600080fd5b813560208282111562000c345762000c3462000e2e565b8160051b604051601f19603f8301168101818110868211171562000c5c5762000c5c62000e2e565b604052838152828101945085830182870184018b101562000c7c57600080fd5b600096505b8487101562000caa5762000c958162000b8b565b86526001969096019594830194830162000c81565b50965062000cbc905087820162000b6e565b9450505050509250929050565b6000806040838503121562000cdd57600080fd5b82359150602083013580600f0b811462000cf657600080fd5b809150509250929050565b60006020828403121562000d1457600080fd5b6200034e8262000b8b565b6000806040838503121562000d3357600080fd5b62000bc38362000b8b565b6000806040838503121562000d5257600080fd5b62000d5d8362000b8b565b915062000bd36020840162000b8b565b6001600160601b0319606093841b811682529190921b16601482015260280190565b6001600160a01b0391909116815260200190565b6020808252600a908201526927b7363c9030b236b4b760b11b604082015260600190565b6020808252600d908201526c1058d8d95cdcc819195b9a5959609a1b604082015260600190565b600060001982141562000e1157634e487b7160e01b600052601160045260246000fd5b5060010190565b634e487b7160e01b600052603260045260246000fd5b634e487b7160e01b600052604160045260246000fdfe61020060405260036101c0819052623f3f3f60e81b6101e0908152620000279190816200095d565b50604080518082019091526003808252623f3f3f60e81b602090920191825262000054916004916200095d565b506005805460ff191660121790557f6e71edae12b1b97f4d1f60370fef10105fa2faae0126114a169c64845d6126c96080523480156200009357600080fd5b5073__$2e3424cef6f63b39e0f8625c29becf4d47$__63e54f7522336001600160a01b031663b51616aa6040518163ffffffff1660e01b815260040160206040518083038186803b158015620000e857600080fd5b505afa158015620000fd573d6000803e3d6000fd5b505050506040513d601f19601f8201168201806040525081019062000123919062000a03565b6040518263ffffffff1660e01b815260040162000141919062000c60565b60006040518083038186803b1580156200015a57600080fd5b505af41580156200016f573d6000803e3d6000fd5b505050506040513d6000823e601f3d908101601f1916820160405262000199919081019062000a5a565b604051602001620001ab919062000c1d565b60405160208183030381529060405273__$2e3424cef6f63b39e0f8625c29becf4d47$__63033b9b4f336001600160a01b031663b51616aa6040518163ffffffff1660e01b815260040160206040518083038186803b1580156200020e57600080fd5b505afa15801562000223573d6000803e3d6000fd5b505050506040513d601f19601f8201168201806040525081019062000249919062000a03565b6040518263ffffffff1660e01b815260040162000267919062000c60565b60006040518083038186803b1580156200028057600080fd5b505af415801562000295573d6000803e3d6000fd5b505050506040513d6000823e601f3d908101601f19168201604052620002bf919081019062000a5a565b604051602001620002d1919062000bf5565b60405160208183030381529060405273__$2e3424cef6f63b39e0f8625c29becf4d47$__638ee573ac336001600160a01b031663d8406cb46040518163ffffffff1660e01b815260040160206040518083038186803b1580156200033457600080fd5b505afa15801562000349573d6000803e3d6000fd5b505050506040513d601f19601f820116820180604052508101906200036f919062000a03565b6040518263ffffffff1660e01b81526004016200038d919062000c60565b60206040518083038186803b158015620003a657600080fd5b505af4158015620003bb573d6000803e3d6000fd5b505050506040513d601f19601f82011682018060405250810190620003e1919062000b2c565b8282828260039080519060200190620003fc9291906200095d565b508151620004129060049060208501906200095d565b506005805460ff191660ff9290921691909117905550504660c08190526200043a90620008a7565b60a0818152505050505060003390506000816001600160a01b031663b51616aa6040518163ffffffff1660e01b815260040160206040518083038186803b1580156200048557600080fd5b505afa1580156200049a573d6000803e3d6000fd5b505050506040513d601f19601f82011682018060405250810190620004c0919062000a03565b90506000826001600160a01b031663d8406cb46040518163ffffffff1660e01b815260040160206040518083038186803b158015620004fe57600080fd5b505afa15801562000513573d6000803e3d6000fd5b505050506040513d601f19601f8201168201806040525081019062000539919062000a03565b6001600160601b0319606084811b82166101a05282901b16610180526040805163204f83f960e01b815290519192506000916001600160a01b0385169163204f83f9916004808301926020929190829003018186803b1580156200059c57600080fd5b505afa158015620005b1573d6000803e3d6000fd5b505050506040513d601f19601f82011682018060405250810190620005d7919062000b12565b905063ffffffff8111156200063e5760405162461bcd60e51b8152602060048201526024808201527f506f6f6c3a204d6174757269747920746f6f2066617220696e207468652066756044820152637475726560e01b606482015260840160405180910390fd5b8063ffffffff166101408163ffffffff1660e01b81525050836001600160a01b031663e86d60bf6040518163ffffffff1660e01b815260040160206040518083038186803b1580156200069057600080fd5b505afa158015620006a5573d6000803e3d6000fd5b505050506040513d601f19601f82011682018060405250810190620006cb919062000a35565b600f0b60e081600f0b60801b81525050836001600160a01b031663bdd8a3666040518163ffffffff1660e01b815260040160206040518083038186803b1580156200071557600080fd5b505afa1580156200072a573d6000803e3d6000fd5b505050506040513d601f19601f8201168201806040525081019062000750919062000a35565b600f0b61010081600f0b60801b81525050836001600160a01b0316636970a9246040518163ffffffff1660e01b815260040160206040518083038186803b1580156200079b57600080fd5b505afa158015620007b0573d6000803e3d6000fd5b505050506040513d601f19601f82011682018060405250810190620007d6919062000a35565b600f90810b900b60801b610120526040516323b95ceb60e21b815273__$2e3424cef6f63b39e0f8625c29becf4d47$__90638ee573ac906200081d90859060040162000c60565b60206040518083038186803b1580156200083657600080fd5b505af41580156200084b573d6000803e3d6000fd5b505050506040513d601f19601f8201168201806040525081019062000871919062000b2c565b6200087e90601262000d7e565b6200088b90600a62000cbd565b60a01b6001600160a01b031916610160525062000e4092505050565b60007f8b73c3c69bb8fe3d512ecc4cf759cc79239f7b179b0ffacaa9a75d522b39400f6003604051620008db919062000b51565b60408051918290038220828201825260018352603160f81b602093840152815180840194909452838201527fc89efdaa54c0f20c7adf612882df0950f5a951637e0307cdcb4c672f298b8bc6606084015260808301949094523060a0808401919091528451808403909101815260c09092019093528051920191909120919050565b8280546200096b9062000dd7565b90600052602060002090601f0160209004810192826200098f5760008555620009da565b82601f10620009aa57805160ff1916838001178555620009da565b82800160010185558215620009da579182015b82811115620009da578251825591602001919060010190620009bd565b50620009e8929150620009ec565b5090565b5b80821115620009e85760008155600101620009ed565b60006020828403121562000a1657600080fd5b81516001600160a01b038116811462000a2e57600080fd5b9392505050565b60006020828403121562000a4857600080fd5b815180600f0b811462000a2e57600080fd5b60006020828403121562000a6d57600080fd5b81516001600160401b038082111562000a8557600080fd5b818401915084601f83011262000a9a57600080fd5b81518181111562000aaf5762000aaf62000e2a565b604051601f8201601f19908116603f0116810190838211818310171562000ada5762000ada62000e2a565b8160405282815287602084870101111562000af457600080fd5b62000b0783602083016020880162000da4565b979650505050505050565b60006020828403121562000b2557600080fd5b5051919050565b60006020828403121562000b3f57600080fd5b815160ff8116811462000a2e57600080fd5b600080835481600182811c91508083168062000b6e57607f831692505b602080841082141562000b8f57634e487b7160e01b86526022600452602486fd5b81801562000ba6576001811462000bb85762000be7565b60ff1986168952848901965062000be7565b60008a81526020902060005b8681101562000bdf5781548b82015290850190830162000bc4565b505084890196505b509498975050505050505050565b6000825162000c0981846020870162000da4565b6104c560f41b920191825250600201919050565b6502cb4b2b632160d51b81526000825162000c4081600685016020870162000da4565b68102628102a37b5b2b760b91b6006939091019283015250600f01919050565b6001600160a01b0391909116815260200190565b600181815b8085111562000cb557816000190482111562000c995762000c9962000e14565b8085161562000ca757918102915b93841c939080029062000c79565b509250929050565b600062000a2e60ff84168360008262000cd95750600162000d78565b8162000ce85750600062000d78565b816001811462000d01576002811462000d0c5762000d2c565b600191505062000d78565b60ff84111562000d205762000d2062000e14565b50506001821b62000d78565b5060208310610133831016604e8410600b841016171562000d51575081810a62000d78565b62000d5d838362000c74565b806000190482111562000d745762000d7462000e14565b0290505b92915050565b600060ff821660ff84168082101562000d9b5762000d9b62000e14565b90039392505050565b60005b8381101562000dc157818101518382015260200162000da7565b8381111562000dd1576000848401525b50505050565b600181811c9082168062000dec57607f821691505b6020821081141562000e0e57634e487b7160e01b600052602260045260246000fd5b50919050565b634e487b7160e01b600052601160045260246000fd5b634e487b7160e01b600052604160045260246000fd5b60805160a05160c05160e05160801c6101005160801c6101205160801c6101405160e01c6101605160a01c6101805160601c6101a05160601c6134bd6200103d600039600081816105d601528181610d6c01528181610e4e0152818161129d0152818161171801528181611e0b015261228e0152600081816103ac015281816109bc01528181610bb80152818161113f01528181611678015281816119c201528181611dd1015261267e0152600081816103e80152818161142f01528181611480015281816114b301528181611b9001528181611bf301528181611c4301528181612062015281816120b3015281816120e6015281816123880152818161276b015281816127bc01526127ef0152600081816102d401528181610a0801528181610c0401528181610db8015281816112e9015281816113e0015281816114df01528181611a1901528181611c8401528181611e5201528181612015015281816121120152818161233b0152818161271c015261281b01526000818161042701528181611ccb015261215901526000818161052d01528181611526015261286201526000818161063e0152818161150501528181611caa015281816121380152612841015260008181610574015281816107f30152610f6f0152600081816108290152610fa401526000818161035e0152610ee601526134bd6000f3fe608060405234801561001057600080fd5b50600436106101e35760003560e01c806306fdde03146101e8578063095ea7b3146102065780630a0d86861461022957806313e7bc8c1461026457806318160ddd1461028f5780631eb728fc146102a1578063204f83f9146102cf578063210a49911461030b57806323b872dd1461033357806327bab0631461034657806330adf81f14610359578063313ce567146103805780633644e5151461039f5780635001f3b5146103a757806354fd4d50146103db578063683dd191146103e35780636970a9241461042257806370a082311461045c5780637ecebe001461048557806395d89b41146104a55780639ebdc9b4146104ad578063a9059cbb146104c0578063aea0f201146104d3578063b0f28921146104dc578063b3f1c93d146104ef578063bc3d1c4e14610502578063bcc1694f14610515578063bdd8a36614610528578063c03edd221461054f578063cd0d00961461056f578063d3d00f2414610596578063d505accf146105a9578063d7020d0a146105be578063dc3bfba9146105d1578063dd363371146105f8578063dd62ed3e14610600578063e86d60bf14610639578063fa29687914610660578063fdb0732d14610673578063fe2846b114610686578063fff6cae914610699575b600080fd5b6101f06106a1565b6040516101fd9190612fa0565b60405180910390f35b610219610214366004612d56565b61072f565b60405190151581526020016101fd565b600754604080516001600160701b038084168252600160701b8404166020820152600160e01b90920463ffffffff16908201526060016101fd565b610277610272366004612e81565b610743565b6040516001600160801b0390911681526020016101fd565b6000545b6040519081526020016101fd565b6102b46102af366004612c16565b610770565b604080519384526020840192909252908201526060016101fd565b6102f67f000000000000000000000000000000000000000000000000000000000000000081565b60405163ffffffff90911681526020016101fd565b61031e610319366004612d80565b610793565b604080519283526020830191909152016101fd565b610219610341366004612b98565b6107b2565b610277610354366004612e81565b6107ca565b6102937f000000000000000000000000000000000000000000000000000000000000000081565b60055461038d9060ff1681565b60405160ff90911681526020016101fd565b6102936107ef565b6103ce7f000000000000000000000000000000000000000000000000000000000000000081565b6040516101fd9190612f8c565b6101f061084b565b61040a7f000000000000000000000000000000000000000000000000000000000000000081565b6040516001600160601b0390911681526020016101fd565b6104497f000000000000000000000000000000000000000000000000000000000000000081565b604051600f9190910b81526020016101fd565b61029361046a366004612b4a565b6001600160a01b031660009081526001602052604090205490565b610293610493366004612b4a565b60066020526000908152604090205481565b6101f0610866565b6102776104bb366004612d0d565b610873565b6102196104ce366004612d56565b610a76565b61029360085481565b6102776104ea366004612e81565b610a83565b6102b46104fd366004612bd4565b610aa8565b610277610510366004612cd6565b610acb565b610277610523366004612cd6565b610c73565b6104497f000000000000000000000000000000000000000000000000000000000000000081565b610557610e04565b6040516001600160701b0390911681526020016101fd565b6102937f000000000000000000000000000000000000000000000000000000000000000081565b6102776105a4366004612b4a565b610e0e565b6105bc6105b7366004612c63565b610e7a565b005b6102b46105cc366004612bd4565b6110e9565b6103ce7f000000000000000000000000000000000000000000000000000000000000000081565b6105576110fc565b61029361060e366004612b65565b6001600160a01b03918216600090815260026020908152604080832093909416825291909152205490565b6104497f000000000000000000000000000000000000000000000000000000000000000081565b61027761066e366004612b4a565b611106565b610277610681366004612e81565b611166565b610277610694366004612d0d565b61118b565b6105bc611335565b600380546106ae90613332565b80601f01602080910402602001604051908101604052809291908181526020018280546106da90613332565b80156107275780601f106106fc57610100808354040283529160200191610727565b820191906000526020600020905b81548152906001019060200180831161070a57829003601f168201915b505050505081565b600061073c338484611373565b9392505050565b6007546000906001600160701b0380821691600160701b9004166107688483836113dc565b949350505050565b60008060006107828888888888611648565b925092509250955095509592505050565b6000806107a585600060018787611a8f565b5090969095509350505050565b60006107be8483611ebc565b50610768848484611f64565b6007546000906001600160701b0380821691600160701b900416610768848383612011565b60007f0000000000000000000000000000000000000000000000000000000000000000461461082657610821466121f3565b905090565b507f000000000000000000000000000000000000000000000000000000000000000090565b6040805180820190915260018152603160f81b602082015290565b600480546106ae90613332565b60008061087e612284565b6007546001600160701b03918216925080821691600160701b9091041660006108a8878484612337565b90506001600160801b0381166108c76001600160701b038416866132ae565b6001600160801b031610156109215760405162461bcd60e51b815260206004820152601b60248201527a2837b7b61d102737ba1032b737bab3b410333caa37b5b2b71034b760291b60448201526064015b60405180910390fd5b856001600160801b0316816001600160801b0316111561097f5760405162461bcd60e51b81526020600482015260196024820152782837b7b61d102a37b79036bab1b410333caa37b5b2b71034b760391b6044820152606401610918565b6109af610995886001600160701b0386166132ae565b6109a8836001600160701b038616613195565b85856123cc565b6109ec6001600160a01b037f000000000000000000000000000000000000000000000000000000000000000016896001600160801b038a1661254c565b6001600160a01b038816336000805160206134488339815191527f0000000000000000000000000000000000000000000000000000000000000000610a396001600160801b038c16612641565b610a4b866001600160801b0316612641565b610a5490613388565b604051610a6393929190613150565b60405180910390a3979650505050505050565b600061073c338484611f64565b6007546000906001600160701b0380821691600160701b900416610768848383612337565b6000806000610abb878760008888611648565b9250925092509450945094915050565b6007546000906001600160701b0380821691600160701b90041682610aee612284565b90506000610afa612677565b90506000610b088484613286565b6001600160701b031690506000610b20828787612011565b9050876001600160801b0316816001600160801b03161015610b845760405162461bcd60e51b815260206004820152601e60248201527f506f6f6c3a204e6f7420656e6f7567682062617365206f627461696e656400006044820152606401610918565b610bab610b9a826001600160701b0386166132ae565b856001600160701b031688886123cc565b610be86001600160a01b037f0000000000000000000000000000000000000000000000000000000000000000168a6001600160801b03841661254c565b6001600160a01b038916336000805160206134488339815191527f0000000000000000000000000000000000000000000000000000000000000000610c356001600160801b038616612641565b610c47876001600160801b0316612641565b610c5090613388565b604051610c5f93929190613150565b60405180910390a398975050505050505050565b6007546000906001600160701b0380821691600160701b90041682610c96612677565b90506000610ca2612284565b90506000610cb08584613286565b6001600160701b031690506000610cc88287856113dc565b9050876001600160801b0316816001600160801b03161015610d365760405162461bcd60e51b815260206004820152602160248201527f506f6f6c3a204e6f7420656e6f756768206679546f6b656e206f627461696e656044820152601960fa1b6064820152608401610918565b610d5f846001600160701b031682856001600160701b0316610d5891906132ae565b88886123cc565b610d9c6001600160a01b037f0000000000000000000000000000000000000000000000000000000000000000168a6001600160801b03841661254c565b6001600160a01b038916336000805160206134488339815191527f0000000000000000000000000000000000000000000000000000000000000000610de96001600160801b038716612641565b610df290613388565b610c50866001600160801b0316612641565b6000610821612284565b600754600090600160701b90046001600160701b0316610e2c612284565b610e369190613286565b6001600160701b03169050610e756001600160a01b037f000000000000000000000000000000000000000000000000000000000000000016838361254c565b919050565b42841015610eca5760405162461bcd60e51b815260206004820152601d60248201527f45524332305065726d69743a206578706972656420646561646c696e650000006044820152606401610918565b6001600160a01b038716600090815260066020526040812080547f0000000000000000000000000000000000000000000000000000000000000000918a918a918a919086610f178361336d565b909155506040805160208101969096526001600160a01b0394851690860152929091166060840152608083015260a082015260c0810186905260e00160405160208183030381529060405280519060200120905060007f00000000000000000000000000000000000000000000000000000000000000004614610fa257610f9d466121f3565b610fc4565b7f00000000000000000000000000000000000000000000000000000000000000005b60405161190160f01b602082015260228101919091526042810183905260620160408051601f198184030181528282528051602091820120600080855291840180845281905260ff89169284019290925260608301879052608083018690529092509060019060a0016020604051602081039080840390855afa15801561104f573d6000803e3d6000fd5b5050604051601f1901519150506001600160a01b038116158015906110855750896001600160a01b0316816001600160a01b0316145b6110d15760405162461bcd60e51b815260206004820152601e60248201527f45524332305065726d69743a20696e76616c6964207369676e617475726500006044820152606401610918565b6110dc8a8a8a611373565b5050505050505050505050565b6000806000610abb878760008888611a8f565b6000610821612677565b6007546000906001600160701b031661111d612677565b6111279190613286565b6001600160701b03169050610e756001600160a01b037f000000000000000000000000000000000000000000000000000000000000000016838361254c565b6007546000906001600160701b0380821691600160701b900416610768848383612718565b600080611196612677565b6007546001600160701b03918216925080821691600160701b9091041660006111c0878484612718565b90506001600160801b0381166111df6001600160701b038516866132ae565b6001600160801b031610156112065760405162461bcd60e51b815260040161091890613057565b856001600160801b0316816001600160801b031611156112675760405162461bcd60e51b815260206004820152601c60248201527b2837b7b61d102a37b79036bab1b4103130b9b2903a37b5b2b71034b760211b6044820152606401610918565b61129061127d826001600160701b038616613195565b6109a8896001600160701b0386166132ae565b6112cd6001600160a01b037f000000000000000000000000000000000000000000000000000000000000000016896001600160801b038a1661254c565b6001600160a01b038816336000805160206134488339815191527f000000000000000000000000000000000000000000000000000000000000000061131a6001600160801b038616612641565b61132390613388565b610a548c6001600160801b0316612641565b611371611340612677565b6001600160701b0316611351612284565b6007546001600160701b039182169181811691600160701b9004166123cc565b565b6001600160a01b03838116600081815260026020908152604080832094871680845294825280832086905551858152919392917f8c5be1e5ebec7d5bd14f71427d1e84f3dd0314c0f7b2291e5b200ac8c7c3b92591015b60405180910390a35060019392505050565b60007f000000000000000000000000000000000000000000000000000000000000000063ffffffff1642106114235760405162461bcd60e51b815260040161091890612fd3565b60006001600160601b037f00000000000000000000000000000000000000000000000000000000000000001673__$14acc0473240a59aaba421130bb5369487$__63405289326114738388613212565b6114a66001600160601b037f00000000000000000000000000000000000000000000000000000000000000001688613212565b6114d96001600160601b037f0000000000000000000000000000000000000000000000000000000000000000168b613241565b611503427f00000000000000000000000000000000000000000000000000000000000000006132e5565b7f00000000000000000000000000000000000000000000000000000000000000007f00000000000000000000000000000000000000000000000000000000000000006040518763ffffffff1660e01b8152600401611566969594939291906130c4565b60206040518083038186803b15801561157e57600080fd5b505af4158015611592573d6000803e3d6000fd5b505050506040513d601f19601f820116820180604052508101906115b69190612e9e565b6115c091906131d8565b90506115d5856001600160701b038616613195565b6001600160801b03166115f1826001600160701b0386166132ae565b6001600160801b031610156107685760405162461bcd60e51b815260206004820152601d60248201527f506f6f6c3a206679546f6b656e2062616c616e636520746f6f206c6f770000006044820152606401610918565b60008054600754829182916001600160701b0380821691600160701b9004168361167284836132ce565b905060007f00000000000000000000000000000000000000000000000000000000000000006001600160a01b03166370a08231306040518263ffffffff1660e01b81526004016116c29190612f8c565b60206040518083038186803b1580156116da57600080fd5b505afa1580156116ee573d6000803e3d6000fd5b505050506040513d601f19601f820116820180604052508101906117129190612ebb565b905060007f00000000000000000000000000000000000000000000000000000000000000006001600160a01b03166370a08231306040518263ffffffff1660e01b81526004016117629190612f8c565b60206040518083038186803b15801561177a57600080fd5b505afa15801561178e573d6000803e3d6000fd5b505050506040513d601f19601f820116820180604052508101906117b29190612ebb565b905060006117c96001600160701b038716846132ce565b905083158061182d57508b846117f06001600160701b038916670de0b6b3a7640000613267565b6117fa91906131fe565b1015801561182d57508a846118206001600160701b038916670de0b6b3a7640000613267565b61182a91906131fe565b11155b6118495760405162461bcd60e51b81526004016109189061308e565b866118595780995089975061194e565b83611886579850886001600160701b0386166118758289613267565b61187f91906131fe565b975061194e565b60008d156118bf576118b361189a8f61291b565b886001600160701b0316886001600160701b0316612718565b6001600160801b031690505b6118c985846132ce565b99506118d58e866132ce565b8a8f6118e191906131c0565b6118eb908a613267565b6118f591906131fe565b9850878961190c836001600160701b038b166131c0565b6119169190613267565b61192091906131fe565b61192a90826131c0565b9a508a82101561194c5760405162461bcd60e51b815260040161091890613057565b505b61198d61196c6119678c6001600160701b038a166131c0565b61291b565b610d588a6119838d6001600160701b038b166131c0565b61196791906131c0565b6119978f89612944565b5060006119a48b836132ce565b11156119e9576119e98e6119b88c846132ce565b6001600160a01b037f000000000000000000000000000000000000000000000000000000000000000016919061254c565b60006001600160a01b03168f6001600160a01b0316336001600160a01b03166000805160206134288339815191527f0000000000000000000000000000000000000000000000000000000000000000611a418f6129cc565b611a4a906133b0565b611a538f6129cc565b611a5c906133b0565b611a658f6129cc565b604051611a759493929190613172565b60405180910390a450505050505050955095509592505050565b3060009081526001602052604081205481546007549192918291906001600160701b0380821691600160701b90041683611ac984836132ce565b9050801580611b2d57508881611af06001600160701b038616670de0b6b3a7640000613267565b611afa91906131fe565b10158015611b2d57508781611b206001600160701b038616670de0b6b3a7640000613267565b611b2a91906131fe565b11155b611b495760405162461bcd60e51b81526004016109189061308e565b83611b5d6001600160701b03851689613267565b611b6791906131fe565b955083611b748289613267565b611b7e91906131fe565b94508915611d7f576001600160601b037f00000000000000000000000000000000000000000000000000000000000000001673__$14acc0473240a59aaba421130bb5369487$__63e03824d682611bd48a61291b565b611be7906001600160701b0389166132ae565b611bf19190613241565b7f00000000000000000000000000000000000000000000000000000000000000006001600160601b0316611c248a61291b565b611c37906001600160701b0389166132ae565b611c419190613241565b7f00000000000000000000000000000000000000000000000000000000000000006001600160601b0316611c748b61291b565b611c7e9190613241565b611ca8427f00000000000000000000000000000000000000000000000000000000000000006132e5565b7f00000000000000000000000000000000000000000000000000000000000000007f00000000000000000000000000000000000000000000000000000000000000006040518763ffffffff1660e01b8152600401611d0b9695949392919061310f565b60206040518083038186803b158015611d2357600080fd5b505af4158015611d37573d6000803e3d6000fd5b505050506040513d601f19601f82011682018060405250810190611d5b9190612e9e565b611d6591906131d8565b611d78906001600160801b0316876131c0565b9550600094505b611db9611d98611967886001600160701b0387166132ce565b6109a889611daf896001600160701b0388166132ce565b61196791906132ce565b611dc330886129f5565b50611df86001600160a01b037f0000000000000000000000000000000000000000000000000000000000000000168d8861254c565b8415611e3257611e326001600160a01b037f0000000000000000000000000000000000000000000000000000000000000000168c8761254c565b6001600160a01b03808c16908d16336000805160206134288339815191527f0000000000000000000000000000000000000000000000000000000000000000611e7a8b6129cc565b611e838b6129cc565b611e8c8e6129cc565b611e95906133b0565b604051611ea59493929190613172565b60405180910390a450505050955095509592505050565b60006001600160a01b0383163314611f5b576001600160a01b03831660009081526002602090815260408083203384529091529020546000198114611f595782811015611f4a5760405162461bcd60e51b815260206004820152601c60248201527b115490cc8c0e88125b9cdd59999a58da595b9d08185c1c1c9bdd985b60221b6044820152606401610918565b611f578433858403611373565b505b505b50600192915050565b6001600160a01b038316600090815260016020526040812054821115611f9c5760405162461bcd60e51b815260040161091890613022565b6001600160a01b038085166000908152600160205260408082208054869003905591851681522054611fcf9083906131c0565b6001600160a01b038085166000818152600160205260409081902093909355915190861690600080516020613468833981519152906113ca9086815260200190565b60007f000000000000000000000000000000000000000000000000000000000000000063ffffffff1642106120585760405162461bcd60e51b815260040161091890612fd3565b6001600160601b037f00000000000000000000000000000000000000000000000000000000000000001673__$14acc0473240a59aaba421130bb5369487$__63e03824d66120a68387613212565b6120d96001600160601b037f00000000000000000000000000000000000000000000000000000000000000001687613212565b61210c6001600160601b037f0000000000000000000000000000000000000000000000000000000000000000168a613241565b612136427f00000000000000000000000000000000000000000000000000000000000000006132e5565b7f00000000000000000000000000000000000000000000000000000000000000007f00000000000000000000000000000000000000000000000000000000000000006040518763ffffffff1660e01b8152600401612199969594939291906130c4565b60206040518083038186803b1580156121b157600080fd5b505af41580156121c5573d6000803e3d6000fd5b505050506040513d601f19601f820116820180604052508101906121e99190612e9e565b61076891906131d8565b60007f8b73c3c69bb8fe3d512ecc4cf759cc79239f7b179b0ffacaa9a75d522b39400f60036040516122259190612ef0565b604051809103902061223561084b565b80516020918201206040805192830194909452928101919091526060810191909152608081018390523060a082015260c001604051602081830303815290604052805190602001209050919050565b60006108216000547f00000000000000000000000000000000000000000000000000000000000000006001600160a01b03166370a08231306040518263ffffffff1660e01b81526004016122d89190612f8c565b60206040518083038186803b1580156122f057600080fd5b505afa158015612304573d6000803e3d6000fd5b505050506040513d601f19601f820116820180604052508101906123289190612ebb565b61233291906131c0565b612a73565b60007f000000000000000000000000000000000000000000000000000000000000000063ffffffff16421061237e5760405162461bcd60e51b815260040161091890612fd3565b6001600160601b037f00000000000000000000000000000000000000000000000000000000000000001673__$14acc0473240a59aaba421130bb5369487$__639a7d15706120a68387613212565b60075442906000906123eb90600160e01b900463ffffffff16836132e5565b905060008163ffffffff1611801561240b57506001600160701b03841615155b801561241f57506001600160701b03831615155b156124825760006124446001600160701b038516676765c793fa10079d601b1b613267565b90506001600160701b03851661246063ffffffff841683613267565b61246a91906131fe565b6008600082825461247b91906131c0565b9091555050505b612494866001600160801b0316612a9c565b600780546001600160701b0319166001600160701b03929092169190911790556124c66001600160801b038616612a9c565b600780546001600160701b03908116600160701b93821684026001600160e01b031617600160e01b63ffffffff8716021791829055600854604080518484168152949093049091166020840152908201527f17be3acebd510daa18778e1ee1fbaf88237b124dc0803c3be2fd4f99f3e69d339060600160405180910390a1505050505050565b604080516001600160a01b038481166024830152604480830185905283518084039091018152606490920183526020820180516001600160e01b031663a9059cbb60e01b17905291516000928392908716916125a89190612ed4565b6000604051808303816000865af19150503d80600081146125e5576040519150601f19603f3d011682016040523d82523d6000602084013e6125ea565b606091505b50915091508180156126145750805115806126145750808060200190518101906126149190612db3565b61263a5761262181612ace565b60405162461bcd60e51b81526004016109189190612fa0565b5050505050565b600060016001607f1b036001600160801b03831611156126735760405162461bcd60e51b815260040161091890612ffb565b5090565b60006108217f00000000000000000000000000000000000000000000000000000000000000006001600160a01b03166370a08231306040518263ffffffff1660e01b81526004016126c89190612f8c565b60206040518083038186803b1580156126e057600080fd5b505afa1580156126f4573d6000803e3d6000fd5b505050506040513d601f19601f820116820180604052508101906123329190612ebb565b60007f000000000000000000000000000000000000000000000000000000000000000063ffffffff16421061275f5760405162461bcd60e51b815260040161091890612fd3565b60006001600160601b037f00000000000000000000000000000000000000000000000000000000000000001673__$14acc0473240a59aaba421130bb5369487$__635fd8dc086127af8388613241565b6127e26001600160601b037f00000000000000000000000000000000000000000000000000000000000000001688613241565b6128156001600160601b037f0000000000000000000000000000000000000000000000000000000000000000168b613241565b61283f427f00000000000000000000000000000000000000000000000000000000000000006132e5565b7f00000000000000000000000000000000000000000000000000000000000000007f00000000000000000000000000000000000000000000000000000000000000006040518763ffffffff1660e01b81526004016128a29695949392919061310f565b60206040518083038186803b1580156128ba57600080fd5b505af41580156128ce573d6000803e3d6000fd5b505050506040513d601f19601f820116820180604052508101906128f29190612e9e565b6128fc91906131d8565b90506129088185613195565b6001600160801b03166115f186856132ae565b60006001600160801b038211156126735760405162461bcd60e51b815260040161091890612ffb565b6001600160a01b0382166000908152600160205260408120546129689083906131c0565b6001600160a01b038416600090815260016020526040812091909155546129909083906131c0565b60009081556040518381526001600160a01b0385169190600080516020613468833981519152906020015b60405180910390a350600192915050565b60006001600160ff1b038211156126735760405162461bcd60e51b815260040161091890612ffb565b6001600160a01b038216600090815260016020526040812054821115612a2d5760405162461bcd60e51b815260040161091890613022565b6001600160a01b038316600081815260016020908152604080832080548790039055825486900383555185815291929160008051602061346883398151915291016129bb565b60006001600160701b038211156126735760405162461bcd60e51b815260040161091890612ffb565b60006001600160701b036001600160801b03831611156126735760405162461bcd60e51b815260040161091890612ffb565b6060604482511015612b1357505060408051808201909152601d81527f5472616e73616374696f6e2072657665727465642073696c656e746c79000000602082015290565b60048201915081806020019051810190612b2d9190612dd5565b92915050565b80356001600160a01b0381168114610e7557600080fd5b600060208284031215612b5c57600080fd5b61073c82612b33565b60008060408385031215612b7857600080fd5b612b8183612b33565b9150612b8f60208401612b33565b90509250929050565b600080600060608486031215612bad57600080fd5b612bb684612b33565b9250612bc460208501612b33565b9150604084013590509250925092565b60008060008060808587031215612bea57600080fd5b612bf385612b33565b9350612c0160208601612b33565b93969395505050506040820135916060013590565b600080600080600060a08688031215612c2e57600080fd5b612c3786612b33565b9450612c4560208701612b33565b94979496505050506040830135926060810135926080909101359150565b600080600080600080600060e0888a031215612c7e57600080fd5b612c8788612b33565b9650612c9560208901612b33565b95506040880135945060608801359350608088013560ff81168114612cb957600080fd5b9699959850939692959460a0840135945060c09093013592915050565b60008060408385031215612ce957600080fd5b612cf283612b33565b91506020830135612d028161340f565b809150509250929050565b600080600060608486031215612d2257600080fd5b612d2b84612b33565b92506020840135612d3b8161340f565b91506040840135612d4b8161340f565b809150509250925092565b60008060408385031215612d6957600080fd5b612d7283612b33565b946020939093013593505050565b600080600060608486031215612d9557600080fd5b612d9e84612b33565b95602085013595506040909401359392505050565b600060208284031215612dc557600080fd5b8151801515811461073c57600080fd5b600060208284031215612de757600080fd5b81516001600160401b0380821115612dfe57600080fd5b818401915084601f830112612e1257600080fd5b815181811115612e2457612e246133f9565b604051601f8201601f19908116603f01168101908382118183101715612e4c57612e4c6133f9565b81604052828152876020848701011115612e6557600080fd5b612e76836020830160208801613302565b979650505050505050565b600060208284031215612e9357600080fd5b813561073c8161340f565b600060208284031215612eb057600080fd5b815161073c8161340f565b600060208284031215612ecd57600080fd5b5051919050565b60008251612ee6818460208701613302565b9190910192915050565b600080835481600182811c915080831680612f0c57607f831692505b6020808410821415612f2c57634e487b7160e01b86526022600452602486fd5b818015612f405760018114612f5157612f7e565b60ff19861689528489019650612f7e565b60008a81526020902060005b86811015612f765781548b820152908501908301612f5d565b505084890196505b509498975050505050505050565b6001600160a01b0391909116815260200190565b6020815260008251806020840152612fbf816040850160208701613302565b601f01601f19169190910160400192915050565b6020808252600e908201526d506f6f6c3a20546f6f206c61746560901b604082015260600190565b6020808252600d908201526c43617374206f766572666c6f7760981b604082015260600190565b6020808252601b908201527a45524332303a20496e73756666696369656e742062616c616e636560281b604082015260600190565b6020808252601e908201527f506f6f6c3a204e6f7420656e6f756768206261736520746f6b656e20696e0000604082015260600190565b6020808252601c908201527b141bdbdb0e8814995cd95c9d995cc81c985d1a5bc818da185b99d95960221b604082015260600190565b6001600160701b0396871681529490951660208501526001600160801b0392909216604084015263ffffffff166060830152600f90810b60808301529190910b60a082015260c00190565b6001600160801b039687168152948616602086015292909416604084015263ffffffff166060830152600f92830b608083015290910b60a082015260c00190565b63ffffffff939093168352600f91820b6020840152900b604082015260600190565b63ffffffff94909416845260208401929092526040830152606082015260800190565b60006001600160801b038281168482168083038211156131b7576131b76133cd565b01949350505050565b600082198211156131d3576131d36133cd565b500190565b60006001600160801b03838116806131f2576131f26133e3565b92169190910492915050565b60008261320d5761320d6133e3565b500490565b60006001600160701b0382811684821681151582840482111615613238576132386133cd565b02949350505050565b60006001600160801b0382811684821681151582840482111615613238576132386133cd565b6000816000190483118215151615613281576132816133cd565b500290565b60006001600160701b03838116908316818110156132a6576132a66133cd565b039392505050565b60006001600160801b03838116908316818110156132a6576132a66133cd565b6000828210156132e0576132e06133cd565b500390565b600063ffffffff838116908316818110156132a6576132a66133cd565b60005b8381101561331d578181015183820152602001613305565b8381111561332c576000848401525b50505050565b600181811c9082168061334657607f821691505b6020821081141561336757634e487b7160e01b600052602260045260246000fd5b50919050565b6000600019821415613381576133816133cd565b5060010190565b6000600f82900b60016001607f1b03198114156133a7576133a76133cd565b60000392915050565b6000600160ff1b8214156133c6576133c66133cd565b5060000390565b634e487b7160e01b600052601160045260246000fd5b634e487b7160e01b600052601260045260246000fd5b634e487b7160e01b600052604160045260246000fd5b6001600160801b038116811461342457600080fd5b5056fe05e533e65fa7a345b42a006257cdd31febe912eacbbaaa92299c7a931895c529b8aaa3347fac66c4197e2ddb56d1b1e06fa6f7ae158c01cb2e7f9f9efb4975bbddf252ad1be2c89b69c2b068fc378daa952ba7f163c4a11628f55a4df523b3efa26469706673582212200f5c95d7666cbd8c9cd99649830d664432f011bb983190438a59ff88489d283464736f6c63430008060033a26469706673582212203ef556801cb71cb001e6a159a09b035c2403a2e064a6fe7bfa66f2cae0aa1cc564736f6c63430008060033",
  "libraries": {
    "YieldMath": "0xaAce8Db985F05794634b39739ccD7a049Cd8CB8d",
    "SafeERC20Namer": "0x608746FD624216250BF7C41153B1113f6FdE5423"
  },
  "devdoc": {
    "details": "The PoolFactory can deterministically create new pool instances.",
    "kind": "dev",
    "methods": {
      "calculatePoolAddress(address,address)": {
        "details": "Calculate the deterministic addreess of a pool, based on the base token & fy token.",
        "params": {
          "base": "Address of the base token (such as Base).",
          "fyToken": "Address of the fixed yield token (such as fyToken)."
        },
        "returns": {
          "_0": "The calculated pool address."
        }
      },
      "createPool(address,address)": {
        "details": "Deploys a new pool. base & fyToken are written to temporary storage slots to allow for simpler address calculation, while still allowing the Pool contract to store the values as immutable.",
        "params": {
          "base": "Address of the base token (such as Base).",
          "fyToken": "Address of the fixed yield token (such as fyToken)."
        },
        "returns": {
          "_0": "pool The pool address."
        }
      },
      "getPool(address,address)": {
        "details": "Calculate the addreess of a pool, and return address(0) if not deployed.",
        "params": {
          "base": "Address of the base token (such as Base).",
          "fyToken": "Address of the fixed yield token (such as fyToken)."
        },
        "returns": {
          "pool": "The deployed pool address."
        }
      },
      "getRoleAdmin(bytes4)": {
        "details": "Returns the admin role that controls `role`. See {grantRole} and {revokeRole}. To change a role's admin, use {_setRoleAdmin}."
      },
      "grantRole(bytes4,address)": {
        "details": "Grants `role` to `account`. If `account` had not been already granted `role`, emits a {RoleGranted} event. Requirements: - the caller must have ``role``'s admin role."
      },
      "grantRoles(bytes4[],address)": {
        "details": "Grants all of `role` in `roles` to `account`. If `account` had not been already granted `role`, emits a {RoleGranted} event. Requirements: - For each `role` in `roles`, the caller must have ``role``'s admin role."
      },
      "hasRole(bytes4,address)": {
        "details": "Returns `true` if `account` has been granted `role`."
      },
      "lockRole(bytes4)": {
        "details": "Sets LOCK as ``role``'s admin role. LOCK has no members, so this disables admin management of ``role``. Emits a {RoleAdminChanged} event. Requirements: - the caller must have ``role``'s admin role."
      },
      "renounceRole(bytes4,address)": {
        "details": "Revokes `role` from the calling account. Roles are often managed via {grantRole} and {revokeRole}: this function's purpose is to provide a mechanism for accounts to lose their privileges if they are compromised (such as when a trusted device is misplaced). If the calling account had been granted `role`, emits a {RoleRevoked} event. Requirements: - the caller must be `account`."
      },
      "revokeRole(bytes4,address)": {
        "details": "Revokes `role` from `account`. If `account` had been granted `role`, emits a {RoleRevoked} event. Requirements: - the caller must have ``role``'s admin role."
      },
      "revokeRoles(bytes4[],address)": {
        "details": "Revokes all of `role` in `roles` from `account`. If `account` had been granted `role`, emits a {RoleRevoked} event. Requirements: - For each `role` in `roles`, the caller must have ``role``'s admin role."
      },
      "setParameter(bytes32,int128)": {
        "details": "Set the ts, g1 or g2 parameters"
      },
      "setRoleAdmin(bytes4,bytes4)": {
        "details": "Sets `adminRole` as ``role``'s admin role. If ``role``'s admin role is not `adminRole` emits a {RoleAdminChanged} event. Requirements: - the caller must have ``role``'s admin role."
      }
    },
    "version": 1
  },
  "userdoc": {
    "kind": "user",
    "methods": {
      "POOL_BYTECODE_HASH()": {
        "notice": "Pre-hashing the bytecode allows calculatePoolAddress to be cheaper, and makes client-side address calculation easier"
      }
    },
    "version": 1
  },
  "storageLayout": {
    "storage": [
      {
        "astId": 15,
        "contract": "contracts/space/PoolFactory.sol:PoolFactory",
        "label": "_roles",
        "offset": 0,
        "slot": "0",
        "type": "t_mapping(t_bytes4,t_struct(RoleData)10_storage)"
      },
      {
        "astId": 7808,
        "contract": "contracts/space/PoolFactory.sol:PoolFactory",
        "label": "nextBase",
        "offset": 0,
        "slot": "1",
        "type": "t_address"
      },
      {
        "astId": 7811,
        "contract": "contracts/space/PoolFactory.sol:PoolFactory",
        "label": "nextFYToken",
        "offset": 0,
        "slot": "2",
        "type": "t_address"
      },
      {
        "astId": 7829,
        "contract": "contracts/space/PoolFactory.sol:PoolFactory",
        "label": "ts",
        "offset": 0,
        "slot": "3",
        "type": "t_int128"
      },
      {
        "astId": 7847,
        "contract": "contracts/space/PoolFactory.sol:PoolFactory",
        "label": "g1",
        "offset": 16,
        "slot": "3",
        "type": "t_int128"
      },
      {
        "astId": 7865,
        "contract": "contracts/space/PoolFactory.sol:PoolFactory",
        "label": "g2",
        "offset": 0,
        "slot": "4",
        "type": "t_int128"
      }
    ],
    "types": {
      "t_address": {
        "encoding": "inplace",
        "label": "address",
        "numberOfBytes": "20"
      },
      "t_bool": {
        "encoding": "inplace",
        "label": "bool",
        "numberOfBytes": "1"
      },
      "t_bytes4": {
        "encoding": "inplace",
        "label": "bytes4",
        "numberOfBytes": "4"
      },
      "t_int128": {
        "encoding": "inplace",
        "label": "int128",
        "numberOfBytes": "16"
      },
      "t_mapping(t_address,t_bool)": {
        "encoding": "mapping",
        "key": "t_address",
        "label": "mapping(address => bool)",
        "numberOfBytes": "32",
        "value": "t_bool"
      },
      "t_mapping(t_bytes4,t_struct(RoleData)10_storage)": {
        "encoding": "mapping",
        "key": "t_bytes4",
        "label": "mapping(bytes4 => struct AccessControl.RoleData)",
        "numberOfBytes": "32",
        "value": "t_struct(RoleData)10_storage"
      },
      "t_struct(RoleData)10_storage": {
        "encoding": "inplace",
        "label": "struct AccessControl.RoleData",
        "members": [
          {
            "astId": 7,
            "contract": "contracts/space/PoolFactory.sol:PoolFactory",
            "label": "members",
            "offset": 0,
            "slot": "0",
            "type": "t_mapping(t_address,t_bool)"
          },
          {
            "astId": 9,
            "contract": "contracts/space/PoolFactory.sol:PoolFactory",
            "label": "adminRole",
            "offset": 0,
            "slot": "1",
            "type": "t_bytes4"
          }
        ],
        "numberOfBytes": "64"
      }
    }
  }
}