{
  "address": "0x608746FD624216250BF7C41153B1113f6FdE5423",
  "abi": [
    {
      "inputs": [
        {
          "internalType": "address",
          "name": "token",
          "type": "address"
        }
      ],
      "name": "tokenDecimals",
      "outputs": [
        {
          "internalType": "uint8",
          "name": "",
          "type": "uint8"
        }
      ],
      "stateMutability": "view",
      "type": "function"
    },
    {
      "inputs": [
        {
          "internalType": "address",
          "name": "token",
          "type": "address"
        }
      ],
      "name": "tokenName",
      "outputs": [
        {
          "internalType": "string",
          "name": "",
          "type": "string"
        }
      ],
      "stateMutability": "view",
      "type": "function"
    },
    {
      "inputs": [
        {
          "internalType": "address",
          "name": "token",
          "type": "address"
        }
      ],
      "name": "tokenSymbol",
      "outputs": [
        {
          "internalType": "string",
          "name": "",
          "type": "string"
        }
      ],
      "stateMutability": "view",
      "type": "function"
    }
  ],
  "transactionHash": "0x947c78f6c5a43d385e3741371fb2783d9a882e0c7dc58976edd0aebee5154216",
  "args": [],
  "solcInputHash": "33ce1b88dd6eab84b0d7ae38c48ff578",
  "bytecode": "0x6108df61003a600b82828239805160001a60731461002d57634e487b7160e01b600052600060045260246000fd5b30600052607381538281f3fe730000000000000000000000000000000000000000301460806040526004361061004b5760003560e01c8063033b9b4f146100505780638ee573ac14610079578063e54f75221461009e575b600080fd5b61006361005e366004610627565b6100b1565b6040516100709190610754565b60405180910390f35b61008c610087366004610627565b6100e8565b60405160ff9091168152602001610070565b6100636100ac366004610627565b6101a8565b606060006100c6836395d89b4160e01b6101d2565b90508051600014156100e2576100db836102ff565b9392505050565b92915050565b60408051600481526024810182526020810180516001600160e01b031663313ce56760e01b1790529051600091829182916001600160a01b0386169161012e9190610738565b600060405180830381855afa9150503d8060008114610169576040519150601f19603f3d011682016040523d82523d6000602084013e61016e565b606091505b5091509150818015610181575080516020145b61018c5760126101a0565b808060200190518101906101a09190610715565b949350505050565b606060006101bd836306fdde0360e01b6101d2565b90508051600014156100e2576100db8361030c565b60408051600481526024810182526020810180516001600160e01b03166001600160e01b03198516179052905160609160009182916001600160a01b0387169161021c9190610738565b600060405180830381855afa9150503d8060008114610257576040519150601f19603f3d011682016040523d82523d6000602084013e61025c565b606091505b509150915081158061026d57508051155b1561028b5760405180602001604052806000815250925050506100e2565b8051602014156102c0576000818060200190518101906102ab9190610650565b90506102b681610319565b93505050506100e2565b6040815111156102e757808060200190518101906102de9190610669565b925050506100e2565b50506040805160208101909152600081529392505050565b60606100e2826006610474565b60606100e2826028610474565b604080516020808252818301909252606091600091906020820181803683370190505090506000805b60208110156103c057600085826020811061035f5761035f61087d565b1a60f81b90506001600160f81b03198116156103ad57808484815181106103885761038861087d565b60200101906001600160f81b031916908160001a905350826103a98161082a565b9350505b50806103b88161082a565b915050610342565b506000816001600160401b038111156103db576103db610893565b6040519080825280601f01601f191660200182016040528015610405576020820181803683370190505b50905060005b8281101561046b578381815181106104255761042561087d565b602001015160f81c60f81b8282815181106104425761044261087d565b60200101906001600160f81b031916908160001a905350806104638161082a565b91505061040b565b50949350505050565b6060610481600283610845565b15801561048e5750600082115b801561049b575060288211155b6104eb5760405162461bcd60e51b815260206004820152601e60248201527f41646472657373537472696e675574696c3a20494e56414c49445f4c454e0000604482015260640160405180910390fd5b6000826001600160401b0381111561050557610505610893565b6040519080825280601f01601f19166020018201604052801561052f576020820181803683370190505b5090506001600160a01b03841660005b848110156105f05760006105548260266107e3565b61055f9060046107c4565b83901c905061057460048260ff16901c6105fa565b8483815181106105865761058661087d565b60200101906001600160f81b031916908160001a9053506105a981600f166105fa565b846105b5846001610787565b815181106105c5576105c561087d565b60200101906001600160f81b031916908160001a9053506105e99050600282610787565b905061053f565b5090949350505050565b6000600a8260ff16101561061c5761061382603061079f565b60f81b92915050565b61061382603761079f565b60006020828403121561063957600080fd5b81356001600160a01b03811681146100db57600080fd5b60006020828403121561066257600080fd5b5051919050565b60006020828403121561067b57600080fd5b81516001600160401b038082111561069257600080fd5b818401915084601f8301126106a657600080fd5b8151818111156106b8576106b8610893565b604051601f8201601f19908116603f011681019083821181831017156106e0576106e0610893565b816040528281528760208487010111156106f957600080fd5b61070a8360208301602088016107fa565b979650505050505050565b60006020828403121561072757600080fd5b815160ff811681146100db57600080fd5b6000825161074a8184602087016107fa565b9190910192915050565b60208152600082518060208401526107738160408501602087016107fa565b601f01601f19169190910160400192915050565b6000821982111561079a5761079a610867565b500190565b600060ff821660ff84168060ff038211156107bc576107bc610867565b019392505050565b60008160001904831182151516156107de576107de610867565b500290565b6000828210156107f5576107f5610867565b500390565b60005b838110156108155781810151838201526020016107fd565b83811115610824576000848401525b50505050565b600060001982141561083e5761083e610867565b5060010190565b60008261086257634e487b7160e01b600052601260045260246000fd5b500690565b634e487b7160e01b600052601160045260246000fd5b634e487b7160e01b600052603260045260246000fd5b634e487b7160e01b600052604160045260246000fdfea26469706673582212203653fbb70a2c1ae9d4b5de53988acb8fc61fab75e0236b2552e20838e9e6da3364736f6c63430008060033",
  "devdoc": {
    "kind": "dev",
    "methods": {
      "tokenDecimals(address)": {
        "params": {
          "token": "The address of the ERC-20 token contract."
        },
        "returns": {
          "_0": "(uint8) Token decimals."
        }
      }
    },
    "version": 1
  },
  "userdoc": {
    "kind": "user",
    "methods": {
      "tokenDecimals(address)": {
        "notice": "Provides a safe ERC20.decimals version which returns '18' as fallback value."
      }
    },
    "version": 1
  },
  "storageLayout": {
    "storage": [],
    "types": null
  }
}