{
  "address": "0x6C04Ce03324158Cb607478c35C877d68B1192b91",
  "abi": [
    {
      "inputs": [],
      "name": "decimals",
      "outputs": [
        {
          "internalType": "uint8",
          "name": "",
          "type": "uint8"
        }
      ],
      "stateMutability": "view",
      "type": "function"
    },
    {
      "inputs": [],
      "name": "latestRoundData",
      "outputs": [
        {
          "internalType": "uint80",
          "name": "",
          "type": "uint80"
        },
        {
          "internalType": "int256",
          "name": "",
          "type": "int256"
        },
        {
          "internalType": "uint256",
          "name": "",
          "type": "uint256"
        },
        {
          "internalType": "uint256",
          "name": "",
          "type": "uint256"
        },
        {
          "internalType": "uint80",
          "name": "",
          "type": "uint80"
        }
      ],
      "stateMutability": "view",
      "type": "function"
    },
    {
      "inputs": [],
      "name": "price",
      "outputs": [
        {
          "internalType": "int256",
          "name": "",
          "type": "int256"
        }
      ],
      "stateMutability": "view",
      "type": "function"
    },
    {
      "inputs": [
        {
          "internalType": "uint256",
          "name": "price_",
          "type": "uint256"
        }
      ],
      "name": "setPrice",
      "outputs": [],
      "stateMutability": "nonpayable",
      "type": "function"
    },
    {
      "inputs": [],
      "name": "timestamp",
      "outputs": [
        {
          "internalType": "uint256",
          "name": "",
          "type": "uint256"
        }
      ],
      "stateMutability": "view",
      "type": "function"
    }
  ],
  "transactionHash": "0xd16d0dcee55c80c8038c463fa465a691d01cd628b9abb5cd7d2ec00fb0d1bb40",
  "args": [],
  "solcInputHash": "f3a6a6963231fabdd7fcfc01badc3425",
  "bytecode": "0x60806040526002805460ff1916601217905534801561001d57600080fd5b506101288061002d6000396000f3fe6080604052348015600f57600080fd5b506004361060505760003560e01c8063313ce56714605557806391b7f5ed146078578063a035b1fe14608e578063b80777ea1460a3578063feaf968c1460ab575b600080fd5b60025460619060ff1681565b60405160ff90911681526020015b60405180910390f35b608c608336600460da565b60005542600155565b005b609660005481565b604051908152602001606f565b609660015481565b6000805460015460408051848152602081019390935282018390526060820152608081019190915260a001606f565b60006020828403121560eb57600080fd5b503591905056fea26469706673582212201c1c149052d99ab8e52568f10b811f49a063ee1068f2cae1db3be6a04f5ab8b064736f6c63430008060033",
  "devdoc": {
    "kind": "dev",
    "methods": {},
    "version": 1
  },
  "userdoc": {
    "kind": "user",
    "methods": {},
    "version": 1
  },
  "storageLayout": {
    "storage": [
      {
        "astId": 3,
        "contract": "contracts/vault/chainlink/ChainlinkAggregatorV3Mock.sol:ChainlinkAggregatorV3Mock",
        "label": "price",
        "offset": 0,
        "slot": "0",
        "type": "t_int256"
      },
      {
        "astId": 5,
        "contract": "contracts/vault/chainlink/ChainlinkAggregatorV3Mock.sol:ChainlinkAggregatorV3Mock",
        "label": "timestamp",
        "offset": 0,
        "slot": "1",
        "type": "t_uint256"
      },
      {
        "astId": 8,
        "contract": "contracts/vault/chainlink/ChainlinkAggregatorV3Mock.sol:ChainlinkAggregatorV3Mock",
        "label": "decimals",
        "offset": 0,
        "slot": "2",
        "type": "t_uint8"
      }
    ],
    "types": {
      "t_int256": {
        "encoding": "inplace",
        "label": "int256",
        "numberOfBytes": "32"
      },
      "t_uint256": {
        "encoding": "inplace",
        "label": "uint256",
        "numberOfBytes": "32"
      },
      "t_uint8": {
        "encoding": "inplace",
        "label": "uint8",
        "numberOfBytes": "1"
      }
    }
  }
}